:020000040800F2
:100000006018002029020008292700082924000878
:10001000252700081F0400088930000800000000A0
:100020000000000000000000000000002F27000872
:100030008F050008000000002D2700083127000868
:10004000430200084302000843020008430200087C
:10005000430200084302000843020008430200086C
:10006000430200084302000843020008430200085C
:100070002504000843020008350400084302000874
:10008000430200084302000843020008430200083C
:10009000430200084302000843020008430200082C
:1000A000430200084302000843020008430200081C
:1000B000430200084302000843020008430200080C
:1000C00043020008430200084302000843020008FC
:1000D0004302000859300008430200086930000854
:1000E00043020008430200084302000811280008E8
:1000F0004128000831280008212800084302000890
:1001000043020008430200084302000843020008BB
:1001100043020008430200084302000801280008C7
:100120004302000845040008550400084302000883
:100130004302000800000000000000004302000825
:10014000430200084302000843020008430200087B
:1001500043020008650400087504000879300008AF
:10016000430200084302000843020008430200085B
:1001700043020008430200080000000000000000E5
:10018000430200084302000800F002F800F03CF8C7
:100190000AA090E8000C82448344AAF10107DA45E2
:1001A00001D100F031F8AFF2090EBAE80F0013F0F8
:1001B000010F18BFFB1A43F001031847603C000011
:1001C000803C0000103A24BF78C878C1FAD85207A2
:1001D00024BF30C830C144BF04680C6070470000C1
:1001E0000023002400250026103A28BF78C1FBD840
:1001F000520728BF30C148BF0B6070471FB503F0DE
:10020000F7FD1FBD10B510BD00F0D4F81146FFF783
:10021000F5FF03F001FC00F0F2F803B4FFF7F2FF82
:1002200003BC00F0F5F80000094880470948004782
:10023000FEE7FEE7FEE7FEE7FEE7FEE7FEE7FEE796
:10024000FEE7FEE704480549054A064B70470000F3
:10025000ED270008890100086012002060180020C6
:10026000601400206014002053EA020C00F0698042
:100270002DE9F04B4FF00006002B1FBFB3FA83F5BA
:1002800003FA05F424FA05F65E4012BF1643B2FAEB
:1002900082F502FA05F4C5F120051EBF22FA05FC1D
:1002A00044EA0C04203556EA044C4FEA144418BFC3
:1002B000641C4FF000084FF00009904271EB030CF2
:1002C00039D3002919BFB1FA81F701FA07F6B0FA5C
:1002D00080F700FA07F6C7F120071EBF20FA07FCD7
:1002E00046EA0C062037B6FBF4FCA7EB0507103FE7
:1002F00007F01F0BCBF120060CFA0BFB2CFA06F6CD
:1003000044BFB3460026202FA4BF5E464FF0000B2B
:100310005BEA060C08BF4FF0010B19EB0B09ABFBB6
:10032000027C48EB0608C01B06FB02CC0BFB03CC8F
:1003300071EB0C01C1E70B46024641464846BDE859
:10034000F08B13B54FF000004FF00001AFF30080C9
:10035000BDE81C4070474FF0000200B513469446BC
:100360009646203922BFA0E80C50A0E80C50B1F10D
:100370002001BFF4F7AF090728BFA0E80C5048BF21
:100380000CC05DF804EB890028BF40F8042B08BFBF
:10039000704748BF20F8022B11F0804F18BF00F8BB
:1003A000012B704770477047704700000048704746
:1003B000001200207546FFF7F9FFAE4605006946BA
:1003C000534620F00700854618B020B5FFF73AFFE6
:1003D000BDE820404FF000064FF000074FF0000846
:1003E0004FF0000B21F00701AC46ACE8C009ACE8C7
:1003F000C009ACE8C009ACE8C0098D46704710B52B
:100400000446AFF300802046BDE81040FFF705BF6B
:1004100001491820ABBEFEE726000200704700BF6E
:10042000FEE7000010B5024800F022F910BD000000
:10043000DC02002010B5024800F01AF910BD0000DF
:100440003C03002010B5024800F012F910BD000076
:100450009C03002010B5024800F00AF910BD00000E
:100460001C02002010B5024800F002F910BD000087
:10047000FC03002010B5024800F0FAF810BD00009F
:100480007C0200200146087810381823B0FBF3F2F4
:100490000848805CC865032A05D908686FF309001D
:1004A000001D886503E008686FF309008865886DA2
:1004B00070470000FA3D0008014600208A6A8B69F7
:1004C000CBB932B1012A0DD0022A03D0032A10D1B0
:1004D0000EE000BFCB6A03F08073B3F1807F00D1E0
:1004E000012007E0CB6AB3F1C07F00D1012001E019
:1004F00000E000BF34E08B69B3F5005F1AD132B180
:10050000012A07D0022A03D0032A11D10AE000BF32
:1005100001200EE0CB6A03F08073B3F1807F00D13D
:10052000012006E0CB6AB3F1C07F00D1012000E0DA
:1005300000BF15E032B1012A05D0022A04D0032AF7
:100540000CD103E000BF00BF012008E0CB6A03F03C
:100550008073B3F1807F00D1012000E000BF00BFB5
:10056000704730B50468246824F4802405682C6042
:10057000046863608468402C04D10468A260046845
:10058000E16003E00468A1600468E26030BD704788
:1005900072B600BFFEE770B50446A56D00F064FBBF
:1005A000064694F83500022808D08020606500BF18
:1005B000002084F8340000BF012070BD206800686E
:1005C00020F01600216808602068406920F0800053
:1005D00021684861206C08B9A06C28B120680068C7
:1005E00020F00800216808602068006820F0010001
:1005F0002168086010E000F037FB801B05280BD94C
:1006000020206065032084F8350000BF002084F8B6
:10061000340000BF0320D0E72068006800F001002C
:100620000028E8D194F85C103F208840A8600120A1
:1006300084F8350000BF002084F8340000BF00BFFC
:10064000BBE7014691F83500022803D080204865B9
:1006500001207047052081F835000868006820F007
:1006600001000A6810600020F3E70146486D7047FA
:10067000F8B50446002000908C4800684FF41651ED
:10068000B0FBF1F7A56D2E6894F85C100820884047
:10069000304098B12068006800F0040070B1206814
:1006A000006820F004002168086094F85C100820BD
:1006B0008840A860606D40F00100606594F85C10AF
:1006C00001208840304068B12068406900F0800017
:1006D00040B194F85C1001208840A860606D40F043
:1006E0000200606594F85C1004208840304068B1D6
:1006F0002068006800F0020040B194F85C1004200B
:100700008840A860606D40F00400606594F85C105B
:1007100010208840304078B32068006800F008005E
:1007200050B394F85C1010208840A86020680068DE
:1007300000F4802080B12068006800F4002028B90F
:10074000206CC8B12046216C884715E0A06C98B198
:100750002046A16C88470FE02068006800F4807094
:1007600028B92068006820F0080021680860206C23
:1007700010B12046216C884794F85C1020208840F6
:100780003040002865D02068006800F01000002884
:100790005FD094F85C1020208840A86094F8350061
:1007A000052828D12068006820F01600216808601C
:1007B0002068406920F0800021684861206C08B9F9
:1007C000A06C28B12068006820F00800216808604B
:1007D00094F85C103F208840A860012084F8350020
:1007E00000BF002084F8340000BF206D10B1204607
:1007F000216D8847F8BD2068006800F4802080B132
:100800002068006800F4002028B9606C10B1204610
:10081000616C88471DE0E06BD8B12046E16B8847EA
:1008200017E02068006800F4807068B920680068EC
:1008300020F0100021680860012084F8350000BF16
:10084000002084F8340000BFE06B10B12046E16B5B
:100850008847606D38B3606D00F00100F0B105208D
:1008600084F835002068006820F0010021680860E5
:1008700000BF0098401C0090B84200D905E02068F5
:10088000006800F001000028F3D100BF012084F8C7
:10089000350000BF002084F8340000BFE06C10B1C8
:1008A0002046E16C884700BFA4E700000C00002050
:1008B0002DE9F0410446002500F0D6F9074614B9A9
:1008C0000120BDE8F081606A00B100BF022084F819
:1008D000350000BF002084F8340000BF20680068A5
:1008E00020F00100216808600AE000F0BDF9C01B9B
:1008F000052805D920206065032084F83500E0E74D
:100900002068006800F001000028EED1206805682A
:1009100021480540D4E901010843E1680843216901
:10092000084361690843A1690843E1690843216AF2
:1009300008430543606A042803D1D4E90B01084346
:100940000543206805602068456925F00705606A51
:100950000543606A04280DD1A06A0543E06A48B1E6
:100960002046FFF7A9FD28B140206065012084F8EA
:100970003500A6E7206845612046FFF783FD06465F
:1009800094F85C103F208840B06000206065012032
:1009900084F83500002094E73F8010F02DE9F047FF
:1009A00004460D4616461F464FF00008D4F85890EE
:1009B00000BF94F83400012802D10220BDE8F0877E
:1009C000012084F8340000BF94F83500012825D1B7
:1009D000022084F83500002060653B4632462946F7
:1009E0002046FFF7BEFD94F85C103F208840C9F810
:1009F00008002068006840F0160021680860206C3C
:100A000028B12068006840F008002168086020686C
:100A1000006840F001002168086006E000BF002087
:100A200084F8340000BF4FF002084046C6E70000DB
:100A300070B5044600F018F906462546681C10B14A
:100A400004480078054400BF00F00EF9801BA8425E
:100A5000FAD370BD08000020F8B502460B46002509
:100A6000002400200021D6E0012606FA01F51E68C8
:100A700006EA0504AC4274D11E7906F00306012E85
:100A800004D01E7906F00306022E13D190684F00A1
:100A90000326BE40B0434F00DE68BE403043906046
:100AA000506801268E40B0431E79C6F300168E4072
:100AB000304350601E7906F00306032E09D0D0683B
:100AC0004F000326BE40B0434F009E68BE403043F7
:100AD000D0601E7906F00306022E13D1CF0802F172
:100AE000200656F827004E07F70E0F26BE40B043EB
:100AF0004F07FF0E1E69BE403043CF0802F12006AB
:100B000046F8270010684F000326BE40B0431E7908
:100B100006F003064F00BE40304310605E6806F4E6
:100B20004036002E76D000BF002600963C4E366838
:100B300046F480463A4F3E603E46366806F48046AC
:100B4000009600BF00BF374E8F0856F827008E076B
:100B5000370F0F26BE40B043334EB24202D10026BB
:100B600024E057E0314EB24201D101261EE0304E62
:100B7000B24201D1022619E02E4EB24201D1032623
:100B800014E02D4EB24201D104260FE02B4EB242AA
:100B900001D105260AE02A4EB24201D1062605E01F
:100BA000284EB24201D1072600E008268F073F0FEA
:100BB000BE4030431B4E8F0846F82700224E306857
:100BC000A0435E6806F4801606B120431E4E3060D6
:100BD000361D3068A0435E6806F4001606B1204357
:100BE000194E361D3060184E361F3068A0435E68BF
:100BF00006F4003606B12043134E361F3060361F10
:100C00003068A0435E6806F4803606B120430E4E7D
:100C1000083E3060491C1029FFF426AFF8BD0000E3
:100C200044380240083801400000024000040240FD
:100C300000080240000C0240001002400014024074
:100C400000180240001C0240083C014002461369A3
:100C50000B400BB1012000E0002070470AB1816118
:100C600001E00B0483617047014800687047000091
:100C7000000000200348006803490978084401493E
:100C800008607047000000200800002010B50D48E3
:100C9000006840F400700B4908600846006840F4A2
:100CA000806008600846006840F480700860032097
:100CB00000F0A6F80F2000F007F800F02BF8002055
:100CC00010BD0000003C024070B504460E4800789C
:100CD0004FF47A71B1FBF0F00C490968B1FBF0F503
:100CE000284600F02FFC08B1012070BD102C07D25F
:100CF00000222146501E00F045F80548046001E03E
:100D00000120F2E70020F0E7080000200C0000209E
:100D10000400002008B500BF002000900E480068C5
:100D200040F480400C4908600846006800F48040A8
:100D3000009000BF00BF00BF00200090081F0068A7
:100D400040F08050091F08600846006800F080509D
:100D5000009000BF00BF08BD44380240014608466D
:100D600000280DDB00BF00BF00F01F0301229A40E6
:100D700043099B0003F1E023C3F8002100BF00BF3B
:100D800000BF70472DE9F05F80460D4616460027EC
:100D900002F01EFD074639462A46334601F0070099
:100DA000C0F1070ABAF1040F02D94FF0040A01E0BA
:100DB000C0F1070AD14600F1040ABAF1070F02D2C6
:100DC0004FF0000A01E0A0F1030AD4464FF0010AF7
:100DD0000AFA09FAAAF1010A0AEA020A0AFA0CFA5C
:100DE0004FF0010B0BFA0CFBABF1010B0BEA030B01
:100DF0004AEA0B042146404602F0F2FCBDE8F09FAF
:100E000000BF00F00702064B19684FF6FF031940B8
:100E1000044B0B4343EA0221014B196000BF7047AA
:100E20000CED00E00000FA0570B504460D460CB963
:100E3000012070BD5848006800F00700A84209D2A0
:100E400055490D700846006800F00700A84201D01F
:100E50000120EEE7207800F0020002281DD1207862
:100E600000F00400042805D14C48006840F4E0502C
:100E70004A490860207800F00800082805D1474852
:100E8000006840F46040454908604448006820F02C
:100E9000F000A168084341490860207800F0010093
:100EA000A8B36068012807D13C4808380068C0F33F
:100EB0004040B8B90120BCE76068022802D06068F1
:100EC000032807D1354808380068C0F3406048B9A6
:100ED0000120AEE7314808380068C0F3400008B987
:100EE0000120A6E72D48006820F003006168084350
:100EF0002A490860FFF7B8FE064609E0FFF7B4FE8E
:100F0000801B41F28831884202D9032091E707E033
:100F10002248006800F00C006168B0EB810FEDD151
:100F20001D48006800F00700A84209D91A490D7051
:100F30000846006800F00700A84201D0012078E7C9
:100F4000207800F00400042807D11448006820F439
:100F5000E050E168084311490860207800F008007B
:100F6000082808D10D48006820F46040216940EA53
:100F7000C1000A49086000F03FF808490968C1F358
:100F80000311074A515CC8400649086006480068DA
:100F9000FFF79AFE00204CE7003C02400838024070
:100FA000023E00080C0000200400002001480068F8
:100FB000704700000C00002000B5FFF7F7FF044960
:100FC0000968C1F38221034A515CC84000BD00009A
:100FD00008380240123E000800B5FFF7E7FF044959
:100FE0000968C1F34231034A515CC84000BD0000AA
:100FF00008380240123E00082DE9F0470024002581
:101000000026A1462548006800F00C0020B1042805
:1010100005D008283AD105E0DFF8849039E0DFF800
:10102000849036E01D48001F006800F03F041B4814
:10103000001F006800F4800078B11A481749091FA2
:101040000968C1F38811A0FB017001462246002304
:101050003846FFF709F905460EE011480F49091F08
:101060000968C1F38811A0FB0170014622460023E4
:101070003846FFF7F9F805460848001F0068C0F336
:101080000140401C4600B5FBF6F902E0DFF8109085
:1010900000BF00BF4846BDE8F087000008380240A6
:1010A0000024F40000127A00F8B504460CB90120BF
:1010B000F8BD207800F00100002874D0F9480068DD
:1010C00000F00C0004280DD0F648006800F00C0079
:1010D000082813D1F348001F006800F48000B0F521
:1010E000800F0BD1EF4808380068C0F3404000285B
:1010F00059D06068002856D10120D9E700BF606848
:10110000B0F5803F08D1E7480838006840F48030E7
:10111000E449083908601EE06068B0F5A02F0DD1E1
:10112000E0480838006840F48020DE49083908604B
:101130000846006840F4803008600CE0D948083860
:10114000006820F48030D7490839086008460068F4
:1011500020F48020086000BF606890B1FFF784FD34
:10116000054606E0FFF780FD401B642801D90320F7
:101170009EE7CC4808380068C0F340400028F1D012
:1011800011E0FFF771FD054606E0FFF76DFD401B1E
:10119000642801D903208BE7C24808380068C0F3EF
:1011A00040400028F1D1207800F0020002285FD1F1
:1011B000BC48006800F00C0058B1BA48006800F064
:1011C0000C0008281CD1B748001F006800F48000FC
:1011D000B0B9B44808380068C0F3400020B1E068F6
:1011E000012801D0012063E7AE480838006820F0EC
:1011F000F800216940EAC100AA490839086037E0CF
:10120000E06800B30120A8490860FFF72DFD0546FE
:1012100006E0FFF729FD401B022801D9032047E71C
:10122000A04808380068C0F340000028F1D09D486D
:101230000838006820F0F800216940EAC1009949A7
:101240000839086014E0002097490860FFF70CFD9A
:10125000054606E0FFF708FD401B022801D90320E0
:1012600026E7904808380068C0F340000028F1D114
:10127000207800F0080008282CD16069A8B101206E
:101280008A490860FFF7F0FC054606E0FFF7ECFC32
:10129000401B022801D903200AE782486C3000680D
:1012A000C0F340000028F1D014E000207F4908601E
:1012B000FFF7DAFC054606E0FFF7D6FC401B0228E4
:1012C00001D90320F4E677486C300068C0F3400091
:1012D0000028F1D1207800F00400042870D1002704
:1012E00070483830006800F0805090B900BF00208E
:1012F00000906C483830006840F0805069493831BF
:1013000008600846006800F08050009000BF00BFF1
:1013100001276748006800F48070B0B9644800682D
:1013200040F4807062490860FFF79EFC054606E0C5
:10133000FFF79AFC401B022801D90320B8E65C485D
:10134000006800F480700028F2D000BFA068012877
:1013500008D154486830006840F0010051496831B4
:1013600008601DE0A06805280DD14E48683000686F
:1013700040F004004B49683108600846006840F0BE
:10138000010008600CE047486830006820F0010068
:101390004449683108600846006820F0040008608D
:1013A00000BFA068A8B1FFF75FFC054609E0FFF7A2
:1013B0005BFC401B41F28831884202D9032077E66A
:1013C00026E0384868300068C0F340000028EED0BE
:1013D00013E0FFF749FC054608E0FFF745FC401B1A
:1013E00041F28831884201D9032061E62D486830F6
:1013F0000068C0F340000028EFD1012F07D1294831
:101400003830006820F0805026493831086000BF2D
:10141000A069002845D02348006800F00C00082887
:101420005DD0A069022845D100201F490866FFF75A
:101430001BFC054606E0FFF717FC401B022801D9FC
:10144000032035E6174808380068C0F340600028DC
:10145000F1D1D4E907010843616A40EA8111012210
:10146000A06AC2EB500041EA00412C20005D41EA35
:1014700000600C49091F086001200B490866FFF74E
:10148000F3FB054606E0FFF7EFFB401B022801D9FE
:1014900003200DE6034808380068C0F340600028C8
:1014A000F1D049E00838024000004742800E474230
:1014B00000700040002021490866FFF7D5FB054673
:1014C00006E0FFF7D1FB401B022801D90320EFE51E
:1014D0001B480068C0F340600028F2D12CE0A069EE
:1014E000012800D1E4E51648001D0668A06901281E
:1014F00020D006F48001E06981421BD106F03F0153
:10150000206A814216D147F6C0703040616AB0EB64
:10151000811F0FD106F440310122A06AC2EB5000B6
:10152000B1EB004F06D106F070612C20005DB1EBED
:10153000006F01D00120BBE50020B9E50000474263
:101540000038024070B504462546681EB0F1807F21
:1015500001D301200FE0681E4FF0E02148610F2108
:101560004FF0FF3002F03CF900204FF0E02188619D
:1015700007200861002070BD7047704730B50246F3
:101580000B4600BF92F83C00012801D1022030BD7B
:10159000012082F83C0000BF022082F83D00106864
:1015A00044681068816824F0700418680443106867
:1015B0004460184D1068A8421BD01068B0F1804FED
:1015C00017D0154D1068A84213D0144D1068A842CA
:1015D0000FD0134D1068A8420BD0124D1068A842CE
:1015E00007D0114D1068A84203D0104D1068A842D2
:1015F00005D121F080015868014310688160012005
:1016000082F83D0000BF002082F83C0000BF00BF10
:10161000BDE7000000000140000400400008004059
:10162000000C004000040140004001400018004050
:1016300010B504460CB9012010BD94F83D0028B93E
:10164000002084F83C00204600F026F8022084F8B0
:101650003D00211D206801F0FBF8012084F84600C0
:1016600000BF84F83E0001213F2001554020015574
:101670004120015500BF00BF012084F842004320F3
:101680000155442001554520015500BF012084F833
:101690003D000020D0E7000038B504462949206805
:1016A000884218D100BF002000902748006840F011
:1016B0002000254908600846006800F020000090DE
:1016C00000BF00BF002211463720FFF75BFB372029
:1016D000FFF744FB35E01D492068884231D100BF47
:1016E000002000901848001D006840F002001649D4
:1016F000091D08600846006800F00200009000BF65
:1017000000BF002211462B20FFF73CFB2B20FFF7E8
:1017100025FB002211462C20FFF734FB2C20FFF77D
:101720001DFB002211462D20FFF72CFB2D20FFF77B
:1017300015FB002211462E20FFF724FB2E20FFF779
:101740000DFB38BD00140040403802400004014049
:10175000014691F83D00012801D001207047022088
:1017600081F83D000868C06840F001000B68D8604F
:101770001A4B086898421BD00868B0F1804F17D008
:10178000174B0868984213D0164B086898420FD040
:10179000154B086898420BD0144B0868984207D044
:1017A000134B0868984203D0124B086898420CD13A
:1017B0000868806800F00702062A0CD008680068F4
:1017C00040F001000B68186005E00868006840F010
:1017D00001000B6818600020C0E700000000014015
:1017E0000004004000080040000C004000040140DC
:1017F00000400140001800402DE9F04104460D462C
:10180000002700BF94F83C00012802D10220BDE867
:10181000F081012084F83C0000BF022084F83D00E4
:101820002068866826F0770626F47F462068866062
:101830002868502833D00CDC202850D004DC002845
:101840004BD0102851D149E0302849D040284CD104
:1018500039E060282DD0702807D0B0F5805F03D024
:10186000B0F5005F41D10DE041E0D5E902136A68AF
:10187000206801F05DF82068866846F077062068E9
:10188000866034E0D5E902136A68206801F050F8F8
:101890002068806840F480402168886027E0EA681A
:1018A0006968206801F058F85021206801F04BF871
:1018B0001DE0EA686968206801F061F8602120682D
:1018C00001F041F813E0EA686968206801F044F823
:1018D0004021206801F037F809E000BF00BF00BFD9
:1018E0002968206801F02FF801E0012700BF00BF40
:1018F000012084F83D0000BF002084F83C0000BFB8
:10190000384684E7704770B504462068C56820688B
:10191000066906F00200022819D105F0020002282B
:1019200015D1401F21680861012020772068806957
:1019300000F0030018B12046FFF7E4FF05E0204661
:1019400000F097F8204600F095F80020207706F088
:101950000400042819D105F00400042815D1C0435F
:1019600021680861022020772068806900F44070B7
:1019700018B12046FFF7C6FF05E0204600F079F8D1
:10198000204600F077F80020207706F008000828AD
:1019900019D105F00800082815D1C0432168086155
:1019A000042020772068C06900F0030018B12046A9
:1019B000FFF7A8FF05E0204600F05BF8204600F0A6
:1019C00059F80020207706F01000102819D105F0F2
:1019D0001000102815D1C043216808610820207725
:1019E0002068C06900F4407018B12046FFF78AFFF4
:1019F00005E0204600F03DF8204600F03BF80020CE
:101A0000207706F0010048B105F0010030B16FF019
:101A1000010021680861204600F02EF806F08000E1
:101A2000802809D105F08000802805D1C0432168B5
:101A300008612046FFF7A0FD06F04000402809D1CC
:101A400005F04000402805D1C043216808612046C8
:101A500000F05AF806F02000202809D105F02000F7
:101A6000202805D1C043216808612046FFF785FD85
:101A700070BD70477047000070B504461849206873
:101A800088422CD117480068B0F5FA7F04D2154877
:101A90000068401C13490860134801F095FE134884
:101AA00080ED000A124801F08FFE124880ED000A16
:101AB0009FED110A114801F0E9FE9FED0F0A0F4852
:101AC00001F01AFF0E4801F097FF06460D4801F09D
:101AD00093FF05462946304601F0F2FF00BF70BD76
:101AE0000014004094000020580000201000002046
:101AF000300000201400002000000000BC10002076
:101B0000A0000020A80000207047F8B504460D464C
:101B1000164694F8420020282DD105B10EB90120B7
:101B2000F8BD01202063002060633246294620462C
:101B300001F0F6F90746206B012819D100BF0020FB
:101B4000009020680068009020684068009000BF06
:101B500000BF00BF00BF21680C3151E8001F41F0F9
:101B6000100021680C3141E80002002AF3D100E0A6
:101B700001273846D4E70220D2E7000070B50446BA
:101B80000D4614492068884209D12A461249204648
:101B900001F0D5FB1049114801F084FC19E010490F
:101BA0002068884209D12A460E49204601F0C7FB29
:101BB0000C490D4801F076FC0BE00C492068884286
:101BC00007D129460A4801F06DFA0949094801F090
:101BD00069FC70BD001001405C040020440100203D
:101BE000004800409C0400208C01002000140140AB
:101BF000DC040020D401002010B5044600BF00BF63
:101C000021680C3151E8001F21F4907021680C31DB
:101C100041E80002002AF3D100BF00BF00BF2168E5
:101C2000143151E8001F21F001002168143141E80E
:101C30000002002AF3D100BF206B01280ED100BFA3
:101C400000BF21680C3151E8001F21F0100021680D
:101C50000C3141E80002002AF3D100BF206840693E
:101C600000F04000402820D100BF00BF216814319F
:101C700051E8001F21F040002168143141E80002C2
:101C8000002AF3D100BFE06B78B10020E16B08655A
:101C9000E06BFEF780FC40B1E06BFEF7E6FC20282D
:101CA00003D110206064032010BD0020E0852020B7
:101CB00084F842000020206300BFF5E710B5044619
:101CC000204601F085FB10BD2DE9F84F0446206841
:101CD00005682068C668206847694FF00009CA4651
:101CE00005F00F09B9F1000F0AD105F0200038B155
:101CF00006F0200020B1204600F07EFFBDE8F88FFE
:101D0000B9F1000F7CD007F0010018B906F490700B
:101D1000002875D005F0010030B106F4807018B1CC
:101D2000606C40F00100606405F0040030B107F021
:101D3000010018B1606C40F00200606405F0020020
:101D400030B107F0010018B1606C40F0040060642D
:101D500005F0080048B106F0200010B907F00100B6
:101D600018B1606C40F008006064606C002846D0D8
:101D700005F0200028B106F0200010B1204600F048
:101D80003BFF20684069C0F3801A606C00F00800D7
:101D900010B9BAF1000F2DD0204600F0D4FE206813
:101DA000406900F04000402820D100BF00BF2168FA
:101DB000143151E8001F21F040002168143141E83E
:101DC0000002002AF3D100BFE06B50B17F48E16B05
:101DD0000865E06BFEF735FC88B1E06B016D884764
:101DE0000DE02046FFF76AFF09E009E02046FFF713
:101DF00065FF04E02046FFF761FF002060647DE797
:101E0000206B012878D105F01000002874D006F06E
:101E100010000028FAD000BF002000902068006861
:101E2000009020684068009000BF00BF20684069B3
:101E300000F04000402870D1E06B006840681FFA55
:101E400080F8B8F1000F58D0A08D404555DDA4F8BA
:101E50002E80E06BC069B0F5807F43D000BF00BF2B
:101E600021680C3151E8001F21F4807021680C3189
:101E700041E80002002AF3D100BF00BF00BF216883
:101E8000143151E8001F21F001002168143141E8AC
:101E90000002002AF3D100BF00BF00BF2168143147
:101EA00051E8001F21F040002168143141E8000290
:101EB000002AF3D100BF202084F8420000202063D4
:101EC00000BF00BF21680C3151E8001F21F0100055
:101ED00021680C3141E80002002AF3D100BFE06B19
:101EE000FEF759FB02206063A08DE28D801A81B25B
:101EF0002046FFF743FE0EE052E0A08D40450AD198
:101F0000E06BC069B0F5807F05D102206063A18DD0
:101F10002046FFF733FEF1E6FFE7A08DE18D401A82
:101F20001FFA80F8E08DD0B3B8F1000F37D000BFB2
:101F300000BF21680C3151E8001F21F49070216826
:101F40000C3141E80002002AF3D100BF00BF00BFFE
:101F50002168143151E8001F21F00100216814317B
:101F600041E80002002AF3D100BF202084F842009B
:101F70000020206300BF00BF21680C3151E8001F22
:101F800021F0100021680C3141E80002002AF3D151
:101F900000BF0220606341462046FFF7EFFDADE63B
:101FA00005F0800030B106F0800018B1204601F045
:101FB00023F8A3E605F0400030B106F0400018B168
:101FC000204600F0F6FD99E600BF97E6A729000835
:101FD00010B504460CB9012010BDA06900B100E0A5
:101FE00000BF94F8410028B9002084F84000204642
:101FF00000F02AF8242084F841002068C06820F40A
:1020000000502168C860204600F074FE2068006916
:1020100020F49040216808612068406920F02A007F
:10202000216848612068C06840F400502168C86099
:1020300000206064202084F8410084F842000020E1
:10204000606300BFC8E7000010B586B004461421E5
:1020500001A8FEF780F9BC492068884279D100BF09
:1020600000200090B948006840F01000B7490860AF
:102070000846006800F01000009000BF00BF00BFDD
:1020800000200090B1481438006840F00100AF49CA
:10209000143908600846006800F00100009000BF95
:1020A00000BF4FF4C0600190022002900020039016
:1020B000032004900720059001A9A548FEF7CCFC59
:1020C000A448A54908604FF0006048600021A2487C
:1020D0008160C1604FF480610161002141618161D3
:1020E0004FF48071C161002101624162FEF7E0FBA3
:1020F00008B1FEF74DFA00BF9748E063846300BF64
:1021000094487830954908604FF00060486040215D
:10211000924881600021C1604FF48061016100211B
:1021200041618161C16101624162FEF7C1FB08B199
:10213000FEF72EFA00BF8948A063846300BF002227
:1021400011462520FEF71EFE2520FEF707FEF8E0CB
:10215000FFE78349206888427BD100BF00200090C0
:102160007A48001F006840F480207849091F086001
:102170000846006800F48020009000BF00BF00BF48
:102180000020009071481438006840F002006F4948
:10219000143908600846006800F00200009000BF93
:1021A00000BF4FF440600190022002900020039095
:1021B000032004900720059001A96A48FEF74CFC13
:1021C00069486A4908604FF000604860002167482C
:1021D0008160C1604FF480610161002141618161D2
:1021E0004FF48071C161002101624162FEF760FB22
:1021F00008B1FEF7CDF900BF5C48E063846300BF1F
:10220000594830305A4908604FF00060486040211A
:10221000574881600021C1604FF480610161002155
:1022200041618161C16101624162FEF741FB08B118
:10223000FEF7AEF900BF4E48A063846300BF0022E2
:1022400011462720FEF79EFD2720FEF787FD78E048
:10225000FFE748492068884273D100BF0020009002
:102260003A48006840F02000384908600846006895
:1022700000F02000009000BF00BF00BF00200090D1
:1022800032481438006840F00400304914390860BE
:102290000846006800F00400009000BF00BFC020A6
:1022A0000190022002900020039003200490082057
:1022B000059001A93048FEF7CFFB264818382F4972
:1022C00008608005486000212C488160C1604FF49F
:1022D00080610161002141618161C16101624162EE
:1022E000FEF7E6FA08B1FEF753F900BF2348E063B2
:1022F000846300BF17486030214908604FF02060B8
:10230000486040211E4881600021C1604FF4806117
:102310000161002141618161C16101624162FEF799
:10232000C7FA08B1FEF734F900BF1548A06384630B
:1023300000BF002211464720FEF724FD4720FEF78C
:102340000DFD06B010BD00000010014044380240F1
:1023500000000240406402401C0200207C02002079
:10236000004800400004024028600240DC020020D7
:102370003C03002000140140000802409C030020A0
:10238000FC03002070477047F7B50446154694F8E3
:10239000410020283ED1019800B10DB90120FEBDB9
:1023A00001982062A584E58400206064212084F8DF
:1023B00041001948A16BC8631848A16B086418480C
:1023C000A16BC8640020A16B086501AE23681A1DCB
:1023D00031682B46A06BFEF7E1FA30B11020606443
:1023E000202084F841000120D9E76FF040002168E7
:1023F000086000BF00BF2168143151E8001F41F0A0
:1024000080002168143141E80002002AF3D100BFA6
:102410000020C4E70220C2E7E12A0008392B0008A7
:10242000B92900087047704700BFFEE708B500BF34
:10243000002000902648006840F48000244908608D
:102440000846006800F48000009000BF00BF00BF95
:10245000002000900846006840F40010086008461C
:10246000006800F40010009000BF00BF0022114679
:102470000C20FEF787FC0C20FEF770FC00221146B2
:102480000E20FEF77FFC0E20FEF768FC00221146AE
:102490003920FEF777FC3920FEF760FC0022114658
:1024A0003A20FEF76FFC3A20FEF758FC0022114656
:1024B0004520FEF767FC4520FEF750FC0022114640
:1024C0004620FEF75FFC4620FEF748FC08BD0000F2
:1024D0003038024000B587B0142102A8FDF73BFF59
:1024E00000BF002001903348006840F004003149EB
:1024F00008600846006800F00400019000BF00BFBB
:1025000000BF002001900846006840F0800008608D
:102510000846006800F08000019000BF00BF00BFC7
:10252000002001900846006840F00100086008465D
:10253000006800F00100019000BF00BF00BF002054
:1025400001900846006840F00200086008460068F4
:1025500000F00200019000BF00BF002246F210010F
:102560001548FEF77BFB012220211348FEF776FB7E
:1025700046F2300002900120039000200490059064
:1025800002A90D48FEF768FA082002900020039087
:102590000120049002A90848FEF75EFA102002907C
:1025A000002003900120049002A90448FEF754FA89
:1025B00007B000BD30380240000802400000024071
:1025C0001CB50020009001900E480F490860532070
:1025D000486000210C48816040F2E731C160002171
:1025E0008161FFF725F808B1FDF7D2FF00200090C8
:1025F000019069460448FEF7C1FF08B1FDF7C8FF26
:102600001CBD000000140040B400002000B587B0DD
:1026100000200390049005900690019002901548C8
:1026200015490860A720486000211348816042F2E4
:102630000F71C16000210161416180218161FEF75C
:10264000F7FF08B1FDF7A4FF4FF48050039003A9F2
:102650000948FFF7D1F808B1FDF79AFF0020019073
:10266000029001A90448FEF789FF08B1FDF790FF29
:1026700007B000BD00040140FC00002010B50B486D
:102680000B4908604FF461204860002108488160D0
:10269000C16001610C21416100218161C161FFF7CD
:1026A00097FC08B1FDF774FF10BD00000010014059
:1026B0004401002010B50B480B4908604FF461201D
:1026C0004860002108488160C16001610C214161BE
:1026D00000218161C161FFF77BFC08B1FDF758FF64
:1026E00010BD0000004800408C01002010B50B48D0
:1026F0000B4908604FF4E1304860002108488160D0
:10270000C16001610C21416100218161C161FFF75C
:102710005FFC08B1FDF73CFF10BD00000014014054
:10272000D401002000BFFEE700BFFEE770477047FE
:1027300010B5FEF79FFA10BD00B593B0302107A881
:10274000FDF709FE142102A8FDF705FE00BF0020D9
:1027500001902448006840F08050224908600846F3
:10276000006800F08050019000BF00BF00BF002053
:1027700001901D48006840F480401B4908600846ED
:10278000006800F48040019000BF00BF0120079066
:102790000004089002200D9041050E9104210F9134
:1027A000A8211091022111910421129107A8FEF78E
:1027B0007BFC08B1FDF7ECFE0F2002900220039095
:1027C000002004904FF4A05005904FF480500690E4
:1027D000052102A8FEF728FB08B1FDF7D9FE13B0CA
:1027E00000BD00004038024000700040034800680F
:1027F00040F47000014908607047000088ED00E077
:1028000010B50248FFF77FF810BD0000B4000020AB
:1028100010B50248FFF777F810BD0000FC0000205B
:1028200010B50248FFF76FF810BD0000FC00002053
:1028300010B50248FFF767F810BD0000FC0000204B
:1028400010B50248FFF75FF810BD0000FC00002043
:1028500010B502682B4B98420ED0B0F1804F0BD0D0
:10286000294B984208D0294B984205D0284B9842D2
:1028700002D0284B984203D122F070024B681A43D1
:10288000204B984220D0B0F1804F1DD01E4B984273
:102890001AD01E4B984217D01D4B984214D01D4B96
:1028A000984211D01C4B98420ED01C4B98420BD032
:1028B0001B4B984208D01B4B984205D01A4B9842AC
:1028C00002D01A4B984203D122F44072CB681A43CB
:1028D00022F080034C6943EA04028B68C3620B68F0
:1028E0008362084B984202D00A4B984201D10B698F
:1028F0000363036843F00403036001234361026040
:1029000010BD00000000014000040040000800402D
:10291000000C004000040140004001400044014020
:102920000048014000180040001C0040002000400A
:1029300030B50C46816821F47F4142EA03252543E6
:102940002943816030BD0A46816821F0700142F060
:10295000070319438160704730B50B461446026A7D
:10296000056A25F001050562816921F0F00141EA5F
:10297000041122F00A021A438161026230BD30B5AF
:102980000B461446026A056A25F010050562816946
:1029900021F4704141EA043122F0A00242EA03121C
:1029A0008161026230BD70B50446A56B0020E885E8
:1029B0002846FFF783F970BD70B506460025B46B55
:1029C00020684069C0F3C01594F84100212805D162
:1029D00025B10020E084204600F0FBF82068406923
:1029E000C0F3801594F84200222805D125B10020BB
:1029F000E085204600F0A7F8606C40F010006064AD
:102A00002046FFF75BF970BD70B50546AC6B2868D2
:102A1000006800F48070002842D1E08500BF00BF4C
:102A200021680C3151E8001F21F4807021680C31BD
:102A300041E80002002AF3D100BF00BF00BF2168B7
:102A4000143151E8001F21F001002168143141E8E0
:102A50000002002AF3D100BF00BF00BF216814317B
:102A600051E8001F21F040002168143141E80002C4
:102A7000002AF3D100BF202084F84200206B0128F7
:102A80000ED100BF00BF21680C3151E8001F21F0BA
:102A9000100021680C3141E80002002AF3D100BF88
:102AA00000206063206B012804D1A18D2046FFF730
:102AB00065F802E02046FFF765FC70BD70B505467D
:102AC000AC6B01206063206B012805D1A08D41080B
:102AD0002046FFF753F802E02046FFF754FC70BD94
:102AE00070B50546AC6B2868006800F48070F8B9D2
:102AF0000020E08400BF00BF2168143151E8001FAE
:102B000021F080002168143141E80002002AF3D14D
:102B100000BF00BF00BF21680C3151E8001F41F029
:102B2000400021680C3141E80002002AF3D102E0A4
:102B30002046FFF777FC70BD70B50446A56B2846AC
:102B4000FFF771FC70BD00BF00BF02680C3252E895
:102B5000002F22F4907102680C3242E80013002B1F
:102B6000F3D100BF00BF00BF0268143252E8002F4B
:102B700022F001010268143242E80013002BF3D165
:102B800000BF016B01290ED100BF00BF02680C32EB
:102B900052E8002F22F0100102680C3242E80013C4
:102BA000002BF3D100BF202180F8421000210163E7
:102BB000704710B504462068C06820F040002168C6
:102BC000C860202084F841002046FFF72BFC00203D
:102BD00010BD00BF00BF02680C3252E8002F22F087
:102BE000C00102680C3242E80013002BF3D100BF91
:102BF000202180F841107047F8B5044600250026D2
:102C000094F84200222873D1A068B0F5805F0BD100
:102C1000206948B9A66A20684068C0F3080030807F
:102C2000A06A801CA06214E0A56AA068B0F5805F6D
:102C300003D0A06828B9206918B9206840682870B6
:102C400004E02068406800F07F002870A06A401C03
:102C5000A062E08D401E80B2E085002846D1206849
:102C6000C06820F020002168C8602068C06820F497
:102C700080702168C8602068406920F001002168E8
:102C80004861202084F8420000206063206B012806
:102C900026D10020206300BF00BF21680C3151E81D
:102CA000001F21F0100021680C3141E80002002AC9
:102CB000F3D100BF2068006800F0100010280AD18E
:102CC00000BF0020009020680068009020684068E5
:102CD000009000BF00BFA18D2046FEF74FFF02E02D
:102CE0002046FFF74FFB0020F8BD01E00020FBE786
:102CF0000220F9E72DE9F84F04462068006920F426
:102D00004050E1680843216808612169A0680843D0
:102D100061690843E169084300902068C06849F28E
:102D20000C618843009908432168C86020684069A5
:102D300020F44070A1690843216848617649206801
:102D4000884203D075492068884203D1FEF744F9D0
:102D5000814602E0FEF730F98146E069B0F5004FA8
:102D60006CD102206168A0FB015003461920A9FB29
:102D7000007001462A463846FDF776FA6421B0FB1A
:102D8000F1F04FEA001A02206168A0FB01510B46E6
:102D90001920A9FB00712A463846FDF765FA8346DB
:102DA00002206168A0FB015003461920A9FB0071B5
:102DB0002A463846FDF758FA6421B0FBF1F000EBE3
:102DC000C00101EB0010ABEB8000322101EBC00031
:102DD0006421B0FBF1F000F0F8000AEB400A022099
:102DE0006168A0FB015003461920A9FB0070014651
:102DF0002A463846FDF738FA834602206168A0FB70
:102E0000015003461920A9FB00712A463846FDF7F8
:102E10002BFA6421B0FBF1F000EBC00101EB0010D4
:102E2000ABEB8000322101EBC0006421B0FBF1F07C
:102E300000F007005044216888606AE0042061685F
:102E4000A0FB015003461920A9FB007001462A4649
:102E50003846FDF709FA824604206168A0FB01505C
:102E600003461920A9FB007001462A463846FDF7A3
:102E7000FBF96421B0FBF1F000EBC00101EB0010A5
:102E8000AAEB8000322101EB00106421B0FBF1F0CD
:102E900000F0F00A04206168A0FB017003461920CD
:102EA000A9FB00513A462846FDF7DEF96421B0FB44
:102EB000F1F00AEB001A04206168A0FB01510B46F7
:102EC0001920A9FB00712A463846FDF7CDF9834643
:102ED00004206168A0FB015003461920A9FB007083
:102EE00001462A463846FDF7BFF96421B0FBF1F0F0
:102EF00000EBC00101EB0010ABEB8000322101EBD5
:102F000000106421B0FBF1F000F00F005044216884
:102F10008860BDE8F88F00000010014000140140F7
:102F200077B581B0044615460298A062A5850020B9
:102F30006064222084F842002C48E16BC8632C486E
:102F4000E16B08642B48E16BC8640020E16B086505
:102F500002AE32682368191D2B46E06BFDF71EFD9B
:102F600038B110206064202084F84200012004B0B1
:102F700070BD00BF002000902068006800902068AD
:102F80004068009000BF00BF206970B100BF00BF63
:102F900021680C3151E8001F41F4807021680C3128
:102FA00041E80002002AF3D100BF00BF00BF216842
:102FB000143151E8001F41F001002168143141E84B
:102FC0000002002AF3D100BF00BF00BF2168143106
:102FD00051E8001F41F040002168143141E800022F
:102FE000002AF3D100BF0020C1E70000092A000831
:102FF000BD2A0008B9290008014691F8410021289E
:1030000028D18868B0F5805F0BD1086948B90A6A91
:103010001088C0F308000B685860086A801C0862BA
:1030200005E00B6A581C086218780B685860C88C59
:10303000401E80B2C88458B90868C06820F080007B
:103040000B68D8600868C06840F040000B68D86022
:10305000002070470220FCE710B50248FEF734FE5E
:1030600010BD00004401002010B50248FEF72CFE00
:1030700010BD00008C01002010B50248FEF724FEB0
:1030800010BD0000D401002000BFFEE710B50348CA
:10309000FEF75EFB0248FEF75BFB10BDB4000020AC
:1030A000FC0000202DE9FC4105460E46002428E0E6
:1030B000285DAA2823D1601C285C55281FD1002731
:1030C000022004E02118695C3944CFB2401C0A2870
:1030D000F8DB04F10A00285CB8420FD1A01C284498
:1030E00000680190A01D284400680090DDED000AF2
:1030F0009DED010A00F088FBBDE8FC8100BF601C6B
:1031000084B204F10B00B042D2DD00BFF4E700004E
:1031100001460848814201D107487047074881426B
:1031200001D10748F9E70748814201D10648F4E791
:103130000020F2E7440100201C0900208C0100203F
:103140003C090020D40100205C0900202DE9FF5F2C
:103150002DED020B2DED028B884691461E46B0EEFA
:10316000408AF0EE608ADDE912AB0498FFF7D0FFE9
:103170000446B2EE040A28EE000AB5EEC00AF1EEEB
:1031800010FA04DDB2EE040A28EE000A03E0B2EE03
:10319000040A28EE400ABCEEC00A10EE100A87B2FC
:1031A000B2EE040A28EE800AB5EEC00AF1EE10FA7B
:1031B00004DDB2EE040A28EE800A03E0B2EE040A4F
:1031C00028EEC00ABCEEC00A10EE105A24B9BDECBD
:1031D000028B06B0BDE8F09F84F80080FD2060708F
:1031E00084F802903012E07026714FEA2A20607154
:1031F00084F806A03812E0712772280E6072280C3D
:10320000A072280AE072257384F80DB01498A07398
:103210006B20E07310222146049800F002F800BFF2
:10322000D5E770B504460D46164604B105B970BD24
:1032300094F84100202800D0F9E73246294620467C
:10324000FFF7A2F800BFF2E72DE9F0472DED028B62
:1032500081460F4690461D46B0EE408ADDF828A014
:103260004846FFF755FF0446B2EE040A28EE000A6E
:10327000B5EEC00AF1EE10FA04DDB2EE040A28EE53
:10328000000A03E0B2EE040A28EE400ABCEEC00ACF
:1032900010EE100A86B21CB9BDEC028BBDE8F087B7
:1032A0002770F620607084F802802812E070257183
:1032B00030126071A67184F807A06B202072092279
:1032C00021464846FFF7ADFF00BFE5E708B500BF60
:1032D0000021009101680968009101684968009126
:1032E00000BF00BF00BF0021009101680968009184
:1032F00001684968009100BF00BF00BF0021009134
:1033000001680968009101684968009100BF00BF29
:1033100000BF0021009101680968009101684968B7
:10332000009100BF00BF00BF002100910168096843
:10333000009101684968009100BF00BF08BD2DE9F8
:10334000F04180460D461646002423E00027601C0D
:10335000285C352802D0362804D101E0062704E095
:10336000082702E0601C84B214E000BFE019B042FC
:1033700001DDBDE8F081E019401E285C6B2806D114
:103380002919404600F00CF8E01984B201E0601CF5
:1033900084B200BFA01CB042D8DD00BFE9E7000046
:1033A00070B504460D4608480068A04203D106499E
:1033B000284600F0F7F805480068A04203D1034909
:1033C000284600F0EFF870BD3000002058000020C3
:1033D00010B50446606C194908602046FFF776FF77
:1033E0002046FEF709FC16492068884209D1154895
:1033F0000068401C134908601349144800F052F853
:103400001AE013492068884209D112480068401C1C
:10341000104908601049114800F044F80CE01049C8
:103420002068884208D10F480068401C0D49086098
:103430000D490E4800F036F810BD00002C000020A9
:1034400000100140200000205C0400204401002006
:1034500000480040240000209C0400208C01002033
:103460000014014028000020DC040020D4010020CA
:1034700010B50649064800F015F80649064800F060
:1034800011F80649064800F00DF810BD5C04002054
:10349000440100209C0400208C010020DC0400205A
:1034A000D401002070B504460D464022294620462E
:1034B000FEF72BFB38B9E06B0068006820F00800CD
:1034C000E16B0968086070BDF0B52DED028B83B02B
:1034D0000446206808B932482060208A10B94FF4A9
:1034E0007A702082607910BB94ED020AB5EEC00AB2
:1034F000F1EE10FA01DA012000E000200546D4EDDB
:10350000020AB0EE600A204600F0C8F8B0EE408A29
:10351000204600F0F9F80646002000902179B0EE30
:10352000480A33462A462068FFF78EFE34E094EDC1
:10353000030AB5EEC00AF1EE10FA01DA012000E04C
:1035400000200546D4ED020AB0EE600A204600F0E5
:10355000A5F8B0EE408AD4ED030AB0EE600A20462A
:1035600000F0E4F8F0EE408A204600F0CDF8064680
:10357000204600F0C9F8074600200121CDE900618E
:1035800002902179F0EE680AB0EE480A3B462A46DE
:103590002068FFF7DBFD00BF03B0BDEC028BF0BD80
:1035A0004401002070B52DED028B04460D462078B5
:1035B0002979884265D16078352802D036285ED1D5
:1035C00030E060796B282CD1A078012803D1FF204E
:1035D0002D49087002E001202B4908702B48B4F8EF
:1035E00003100180008800F0E9FB00EE100AB8EE3D
:1035F000400ADFED270A20EE200AF1EE080A20EE4D
:10360000208A284600F088F8C8EE000A1E4890F983
:10361000000000EE100AB8EEC00A20EE800A85ED28
:10362000050A2DE0E0796B2828D1A078012803D184
:10363000FF201849087002E001201649087016485A
:10364000D4F803100160006800F0C0FB00EE100A1F
:10365000B8EE400ADFED0E0A20EE208A284600F080
:103660005BF8C8EE000A0B4890F9000000EE100A63
:10367000B8EEC00A20EE800A85ED060A00E000BF21
:1036800000BFBDEC028B70BD8000002082000020D6
:10369000CDCCCC3D840000208800002010B52DED5D
:1036A000028B0446B0EE408A204600F035F8B5EEB5
:1036B000C08AF1EE10FA02DDF0EE480A01E0F1EE08
:1036C000480A60EE200AB1EE081A80EE810ABDECCD
:1036D000028B10BD7CB504460D4620798DF80000A4
:1036E000F3208DF80100AB208DF802008DF8035017
:1036F00000208DF804006B208DF805000622694635
:103700002068FEF741FE7CBD0146088A10B94FF4DF
:103710007A707047088AFCE7416A11B9B7EE000A6F
:10372000704790ED090AB8EE400AF9E710B52DEDA3
:10373000028B0446B0EE408A2046FFF7EDFFB5EE5F
:10374000C08AF1EE10FA02DDF0EE480A01E0F1EE77
:10375000480A20EE200ABDEC028B10BD0122427106
:1037600080ED020AC0ED030A11B94FF47A7200E04D
:103770000A4602827047000070B505460E460024D6
:103780002A792146641C0F48425411222146641CA8
:10379000425418222146641C425436222146641C9D
:1037A000425432122146641C42542146641C465441
:1037B0006B222146641C4254224602492868FEF7C7
:1037C000E3FD70BD8C00002090ED060A70470000FC
:1037D00002480068C0F30220704700000CED00E0D2
:1037E00010B5002804DB0A07130E054A135406E03F
:1037F0000A07140E034A00F00F031B1FD45410BD18
:1038000000E400E018ED00E01D4880ED0C0AC0ED7A
:103810000D0AB5EEC00AF1EE10FA04D1F5EEC00AB9
:10382000F1EE10FA02D0002016490860B0EEC01A7E
:10383000F2EE041AB4EEE11AF1EE10FA1CD2B0EE78
:10384000E01AF2EE041AB4EEE11AF1EE10FA13D215
:10385000B5EEC00AF1EE10FA04D1F5EEC00AF1EEB1
:1038600010FA09D008480078FF2808DA06480078DE
:10387000401C0549087002E00020034908707047A9
:10388000BC100020940000209800002010B52DED01
:10389000048B0446B0EE409AA068401CA060E16A28
:1038A00088420BD30020A06094ED0C0AF0EE400A91
:1038B000B0EE490A04F1A00000F042F994ED3A0A92
:1038C000B1EE408A0A4890ED000A70EE088A094875
:1038D000018AD0ED020AB0EE600AF0EE680AFFF746
:1038E0003DFF0448FFF7F0FDBDEC048B10BD000068
:1038F000100000205800002010B52DED048B044668
:10390000B0EE409A6068401C6060A16A88420BD3A8
:103910000020606094ED0D0AF0EE400AB0EE490A16
:1039200004F1540000F00CF994ED270AB1EE408A3E
:103930001E4890ED000A70EE088A1D4890ED060AB8
:10394000DFED1C0AB4EEE00AF1EE10FA04DDB5EE8C
:10395000C08AF1EE10FA0EDC154890ED060AFBEE77
:103960000E0AB4EEE00AF1EE10FA0FD2B5EEC08AFC
:10397000F1EE10FA0AD20E48D0ED020AB0EE600A5B
:103980000021DFED0D0AFFF7E9FE09E00848018A92
:10399000D0ED020AB0EE600AF0EE680AFFF7DEFE34
:1039A0000348FFF791FDBDEC048B10BD140000200F
:1039B00030000020000048420000000000B500F088
:1039C0006DF900F0A9F900BD07480849086010200A
:1039D0008880012088710648064908600820888090
:1039E000012088717047000000000240A000002004
:1039F00000080240A800002070B50446A188206895
:103A0000FDF724F905460026A079012801D105B962
:103A10000126A571304670BDFDF738F9FEF78CFE22
:103A2000FEF758FDFEF702FDFEF728FEFEF742FE08
:103A3000FEF75CFEFEF7C4FDFEF7E8FDFFF718FD9C
:103A40006420FCF7F5FFFFF7B9FF4FF4FA70FCF7BD
:103A5000EFFF01211348FFF73DFE0520FCF7E8FFCB
:103A600001211148FFF736FE0520FCF7E1FF052193
:103A70000C48FFF781FE3220FCF7DAFF05210A48E7
:103A8000FFF77AFE3220FCF7D3FFFFF79DFF00F02F
:103A90000FF8FFF7FBFA04E0012291030348FDF75A
:103AA000DDF8F9E73000002058000020000802404F
:103AB000002002490870487070470000B0000020E4
:103AC00010B502461C48407868BB012A0AD11A4B3F
:103AD0001B78581CC31700EB93739B10A0EB830358
:103AE000154C2370012925D10120134B587018461D
:103AF000007830B1012808D002280AD0032810D15C
:103B00000BE000200D4B18700CE001200B4B1870DF
:103B100008E00220094B187004E00420074B1870DD
:103B200000E000BF06E0012904D10020024B5870DC
:103B3000024B187010BD0000B0000020F4110020EE
:103B4000B0EE401A80ED0C1AC0ED0D0A90ED0C0A93
:103B5000D0ED0D1A30EE610A80ED0E0A90ED000AEC
:103B6000D0ED0E1A20EE210A80ED050A90ED0E0A26
:103B7000D0ED0F1A30EE610AD0ED021A20EE210AC4
:103B800080ED080A90ED0E0A80ED0F0A90ED110A03
:103B9000D0ED051A30EE610AB5EEC00AF1EE10FA6A
:103BA00006DD90ED110AD0ED051A30EE610A01E054
:103BB0009FED390A80ED090A90ED100AD0ED051A43
:103BC00030EE610AB5EEC00AF1EE10FA06D290EDC1
:103BD000100AD0ED051A30EE610A01E09FED2E0AC1
:103BE00080ED0A0A017F21B19FED2B0A80ED060AC4
:103BF00028E090ED010AD0ED0E1A60EE211A90ED4A
:103C00000B2A90ED060A01EE820A80ED060A90ED7D
:103C1000060AD0ED091AB4EEE10AF1EE10FA04DD5D
:103C200090ED090A80ED060A0CE090ED060AD0ED51
:103C30000A1AB4EEE10AF1EE10FA03D290ED0A0A84
:103C400080ED060A90ED050AD0ED061A30EE210A45
:103C5000D0ED081A30EE210A80ED120A90ED120A1A
:103C6000D0ED111AB4EEE10AF1EE10FA04DD90ED98
:103C7000110A80ED120A0CE090ED120AD0ED101A34
:103C8000B4EEE10AF1EE10FA03D290ED100A80EDE5
:103C9000120A90ED120A7047000000009FED1C0A06
:103CA0001C4880ED030A90ED030AF7EE000A80EE4F
:103CB000801A80ED041A9FED160A80ED050A90ED3A
:103CC000050AF7EE000A80EE801A80ED061A90EDE4
:103CD000030AD0ED060A20EE200ABCEEC00A80EDF1
:103CE0000A0A9FED0B0A80ED070A90ED070AF7EE2E
:103CF000000A80EE801A80ED081A90ED030AD0EDDC
:103D0000080A20EE200ABCEEC00A80ED0B0A7047BC
:103D100000007A44BC1000209FED230A234880ED68
:103D2000150A9FED230A80ED160A9FED220A80ED09
:103D3000170AB2EE0E0A80ED260ABAEE0E0A80EDE0
:103D4000250AB2EE040A80ED1E0ABAEE040A80EDDE
:103D50001F0A90ED060A80ED200A002180F87010FD
:103D60009FED150A80ED280A9FED110A80ED290AC2
:103D70009FED100A80ED2A0AB3EE040A80ED390A9D
:103D8000BBEE040A80ED380AB2EE040A80ED310A77
:103D9000BAEE040A80ED320A90ED080A80ED330A8B
:103DA00080F8BC10704700000AD7A33BBC1000206D
:103DB000C98E8D3900000000A69B443C01464FF49B
:103DC0007F4000EA012040EA1120704701464FF48D
:103DD0007F4202EA112242EA11604FF47F0202EAB6
:103DE000012210434FF07F4202EA01621043704704
:103DF0004FF04070E1EE100A704700061016000602
:103E00001016000000000000000001020304060775
:103E10000809000000000102030400003C3E000805
:103E200000000020B4000000C4010008F03E0008BB
:103E3000B4000020AC170000E00100080000000002
:103E400010000000010000000024F4000000000049
:103E50000000000000000000000000000000000062
:103E600000000000000000000000000044010020ED
:103E7000020100000000C84200000000E80300004A
:103E80000000000000000000000000000001000031
:103E9000060000008C010020010100000000C84263
:103EA00000000000E8030000000000000000000027
:103EB00000000000000100000600000001000000FA
:103EC00001000000000000000000000000000000F1
:103ED00000000000000000000000000000000000E2
:103EE00000000000000000000000000000000000D2
:040000050800018965
:00000001FF
