:020000040800F2
:100000008009002029020008531C0008B91A0008C2
:10001000511C00081F040008D9220008000000003D
:10002000000000000000000000000000571C000855
:100030001305000800000000551C0008591C0008AA
:10004000430200084302000843020008430200087C
:10005000430200084302000843020008430200086C
:10006000430200084302000843020008430200085C
:10007000210400084302000843020008430200086C
:10008000430200084302000843020008430200083C
:10009000430200084302000843020008430200082C
:1000A000430200084302000843020008430200081C
:1000B000430200084302000843020008430200080C
:1000C00043020008430200084302000843020008FC
:1000D00043020008B522000843020008C1220008BC
:1000E00043020008430200084302000843020008DC
:1000F00043020008430200084302000843020008CC
:1001000043020008430200084302000843020008BB
:10011000430200084302000843020008011D0008D2
:10012000430200082D0400083904000843020008B7
:100130004302000800000000000000004302000825
:10014000430200084302000843020008430200087B
:10015000430200084302000843020008CD220008C1
:10016000430200084302000843020008430200085B
:1001700043020008430200080000000000000000E5
:10018000430200084302000800F002F800F03CF8C7
:100190000AA090E8000C82448344AAF10107DA45E2
:1001A00001D100F031F8AFF2090EBAE80F0013F0F8
:1001B000010F18BFFB1A43F0010318479C240000ED
:1001C000BC240000103A24BF78C878C1FAD852077E
:1001D00024BF30C830C144BF04680C6070470000C1
:1001E0000023002400250026103A28BF78C1FBD840
:1001F000520728BF30C148BF0B6070471FB502F0DF
:1002000015FA1FBD10B510BD00F0CFF81146FFF76D
:10021000F5FF02F0D9F900F0EDF803B4FFF7F2FFB3
:1002200003BC00F0F5F80000094880470948004782
:10023000FEE7FEE7FEE7FEE7FEE7FEE7FEE7FEE796
:10024000FEE7FEE704480549054A064B70470000F3
:10025000F11C0008890100088003002080090020AB
:10026000800500208005002053EA020C00F0698020
:100270002DE9F04B4FF00006002B1FBFB3FA83F5BA
:1002800003FA05F424FA05F65E4012BF1643B2FAEB
:1002900082F502FA05F4C5F120051EBF22FA05FC1D
:1002A00044EA0C04203556EA044C4FEA144418BFC3
:1002B000641C4FF000084FF00009904271EB030CF2
:1002C00039D3002919BFB1FA81F701FA07F6B0FA5C
:1002D00080F700FA07F6C7F120071EBF20FA07FCD7
:1002E00046EA0C062037B6FBF4FCA7EB0507103FE7
:1002F00007F01F0BCBF120060CFA0BFB2CFA06F6CD
:1003000044BFB3460026202FA4BF5E464FF0000B2B
:100310005BEA060C08BF4FF0010B19EB0B09ABFBB6
:10032000027C48EB0608C01B06FB02CC0BFB03CC8F
:1003300071EB0C01C1E70B46024641464846BDE859
:10034000F08B13B54FF000004FF00001AFF30080C9
:10035000BDE81C4070474FF0000200B513469446BC
:100360009646203922BFA0E80C50A0E80C50B1F10D
:100370002001BFF4F7AF090728BFA0E80C5048BF21
:100380000CC05DF804EB890028BF40F8042B08BFBF
:10039000704748BF20F8022B11F0804F18BF00F8BB
:1003A000012B7047704770477047754600F02CF876
:1003B000AE4605006946534620F00700854618B052
:1003C00020B5FFF73FFFBDE820404FF000064FF09B
:1003D00000074FF000084FF0000B21F00701AC467A
:1003E000ACE8C009ACE8C009ACE8C009ACE8C00999
:1003F0008D46704710B50446AFF300802046BDE837
:100400001040FFF70ABF000000487047200300209B
:1004100001491820ABBEFEE7260002007047FEE748
:10042000014800F023B90000E0010020014800F07D
:100430001DB9000040020020014800F017B900007B
:10044000800100200168CAB2103A1823B2FBF3F20F
:10045000064B9B5CC3656FF30901032A02D9091D92
:10046000816500E08165806D7047000036260008D8
:1004700010B5014600208A6A8B694FF0C074002BCA
:100480000ED0B3F5005F1AD062B3012A2AD0022A37
:1004900028D0032A03D1C96AC90100D5012010BDA3
:1004A0001AB1012A06D0022AF9D1C96AC901F6D5C2
:1004B000012010BDC96AA142FBD1012010BD52B17B
:1004C000012A0AD0022A06D0032AF7D1C96AA1421A
:1004D000F4D1012010BD012010BDC96AC901FBD5AE
:1004E000012010BD012010BD30B50468256825F439
:1004F00080252560046863608368402B04D003680E
:1005000099600068C26030BD03689A600068C1608D
:1005100030BD70472DE9FF41DDE90AC5DDE90C6713
:10052000002400940194029403948DF80010FD219E
:100530008DF801108DF80220190A8DF803108DF83E
:1005400004308DF805C0290E8DF80610290C8DF8A1
:100550000710290A8DF808108DF809508DF80A60E7
:100560008DF80B706B218DF80C100D22694602F08E
:1005700053F8BDE8FF817FB5DDE9085600240094FB
:100580000194029403948DF80010F6218DF8011067
:100590008DF80220190A8DF803108DF804308DF8BB
:1005A00005508DF806606B218DF80710082269460A
:1005B00002F032F87FBD72B6FEE72DE9F041044645
:1005C000A76D00F0C5FA054694F83500002602280C
:1005D00006D08020606584F834600120BDE8F08199
:1005E0002068016821F0160101602068416921F04E
:1005F00080014161206C08B9A06C20B120680168BD
:1006000021F0080101602068016821F0010101600A
:100610000BE000F09DFA401B052806D92020343459
:100620002062032060702670D8E720680068C00749
:10063000EFD134343F2094F828108840B86001206E
:10064000607026700020C9E790F83510022903D0A9
:100650008021416501207047052180F83510006830
:10066000016821F001010160002070472DE9F84385
:1006700004464FF00009CDF800906F484FF4165132
:100680000068B0FBF1F7A56D2E6894F85C000822B5
:1006900002FA00F1314210D02068016849070CD5F8
:1006A000016821F00401016094F85C0002FA00F195
:1006B000A960606D40F00100606594F85C104FF037
:1006C000010808FA01F0304208D02168496909069A
:1006D00004D5A860606D40F00200606594F85C107D
:1006E00004208840304208D021680968890704D571
:1006F000A860606D40F00400606594F85C10102004
:100700008840304220D02168096809071CD5A860BC
:100710002068016849030CD50068000304D4216CEB
:1007200091B1204688470FE0A16C69B12046884707
:100730000AE00168C90503D4016821F008010160DD
:10074000216C09B12046884794F85C10202088402D
:1007500030424CD021680968C90648D5A86094F891
:10076000350005280BD020680168490330D50068A2
:10077000000328D4616C51B32046884737E02068D5
:10078000016821F0160101602068416921F08001B3
:100790004161206C08B9A06C20B12068016821F08B
:1007A0000801016094F85C103F208840A86084F83C
:1007B000358084F83490216D00293BD001B020466B
:1007C000BDE8F0430847E16B09B1204688470EE0D9
:1007D0000168C90507D4016821F01001016084F89F
:1007E000358084F83490E16B09B120468847606D0C
:1007F00000281FD0606DC00714D0052084F8350094
:100800002068016821F0010101600098401C0090FF
:10081000B84203D820680068C007F6D184F8358054
:1008200084F83490E16C002904D001B02046BDE882
:10083000F0430847BDE8F8830C0000202DE9F041A3
:10084000044600F085F905465CB1022084F83500C5
:10085000002684F834602068016821F001010160FD
:100860000DE00120BDE8F08100F072F9401B052881
:1008700005D920206065032084F83500F2E7206860
:100880000068C007F0D121680A6820480240D4E916
:1008900001031843D4E903352B4318436369184314
:1008A000A3691843E3691843236A18431043626A33
:1008B000042A03D1D4E90B231A43104308602068AB
:1008C000406920F00700656A29460543012704298D
:1008D0000DD1A06A0543E06A48B12046FFF7C8FD84
:1008E00028B14020606584F835700120BAE720689F
:1008F00045612046FFF7A6FD94F85C203F2191401A
:100900008160666584F835700020ABE73F8010F0A9
:100910002DE9F04104460025A66D94F83400012825
:100920000DD0012084F8340094F835700020012F98
:1009300007D084F8340002252846BDE8F081022063
:10094000FBE7022784F8357060652046FFF7CCFD91
:1009500094F85C103F208840B0602068016841F046
:1009600016010160206C20B12068016841F0080187
:1009700001602068016841F001010160DCE70000CE
:100980002DE9F84F0022DFF89C914FF00108032772
:100990004FF00F0C09F1040AA9F1040B08FA02F553
:1009A0000B682B40AB426ED10C7904F00304012C90
:1009B00001D0022C15D18668540007FA04FE26EAFD
:1009C0000E06D1F80CE00EFA04FE4EEA060EC0F850
:1009D00008E04468AC430D79C5F300159540254304
:1009E00045600C79E443A40708D0C568540007FAB1
:1009F00004F6B5438E68A6402E43C6600C7904F019
:100A00000304022C11D1D40800EB8406356A540784
:100A1000E40E0CFA04FE25EA0E05D1F810E00EFAF9
:100A200004FE4EEA050EC6F820E00568540007FAF9
:100A300004F6B5430E7906F00306A6402E43066081
:100A40004C6814F4403F67D0374C256845F4804526
:100A50002560246804F480440094344C22F003059B
:100A60002E19D6F8085894074FEA147E0CFA0EF4A3
:100A7000A5432F4CA04201D1002424E02D4CA042DC
:100A800002D101241FE047E02B4CA04201D10224F7
:100A900019E02A4CA04201D1032414E0284CA042C2
:100AA00001D104240FE0274CA04201D105240AE023
:100AB000254CA04201D1062405E0244CA04201D1DE
:100AC000072400E0082404FA0EF42C43C6F8084872
:100AD000D9F800409C434D68ED0200D51C43C9F88D
:100AE0000040DAF800409C434D68AD0200D51C433D
:100AF000CAF80040DBF800409C434D68AD0300D5C8
:100B00001C43CBF80040074D083D2C689C434E68C1
:100B1000F60300D51C432C60521C102AFFF43EAF94
:100B2000BDE8F88F083C01404438024000300140E5
:100B3000000002400004024000080240000C024095
:100B4000001002400014024000180240001C024045
:100B5000014880687047000000000020024881685A
:100B600002781144816070470000002010B50B48E6
:100B7000016841F400710160016841F48061016025
:100B8000016841F480710160032000F071F80F20CA
:100B900000F006F800F026F8002010BD003C0240EE
:100BA00070B504460D4D4FF47A712878B1FBF0F022
:100BB0000B490968B1FBF0F000F04CFB08B10120D3
:100BC00070BD102C07D200222146501E00F030F8D4
:100BD0006C60002070BD012070BD0000000000208E
:100BE0000C00002008B50A48016841F4804101600A
:100BF000006800F4804000900548001F016841F043
:100C000080510160006800F08050009008BD000035
:100C100044380240002809DB00F01F020121914006
:100C20004009800000F1E020C0F80011704700008A
:100C3000F0B40D460D4B1B68C3F30223C3F1070448
:100C4000042C00D90424191D072901D2002300E037
:100C5000DB1E012606FA04F1491E294099409E40F8
:100C6000761E16403143F0BC01F09EBC0CED00E056
:100C700000F00701054A10684FF6FF03184040EAEC
:100C80000120034908431060704700000CED00E0AC
:100C90000000FA052DE9F04704460D46002C13D05C
:100CA000DFF82891D9F80000EFB200F00700A84261
:100CB0000CD289F80070D9F8000000F00700A842B3
:100CC00004D00120BDE8F0870120FBE72068404EFA
:100CD000810712D5400703D5306840F4E0503060FA
:100CE0002078000703D5306840F4604030603068F9
:100CF000A16820F0F000084330602078C00731D0B0
:100D0000334960680839012808D002280BD003282D
:100D100009D0096889070BD40120D3E70968890342
:100D200006D40120CEE70968890101D40120C9E772
:100D3000316821F0030101433160FFF709FF80466C
:100D400041F2883A07E0FFF703FFA0EB08005045A7
:100D500001D90320B6E73068616800F00C00B0EB01
:100D6000810FF0D1D9F8000000F00700A84209D99E
:100D700089F80070D9F8000000F00700A84201D0FF
:100D800001209FE72078400705D53068E16820F40E
:100D9000E050084330602078000706D530682169AC
:100DA00020F4604040EAC100306000F03FF8316854
:100DB000084AC1F30311515CC8400749086007485D
:100DC0000068FFF7EDFE00207CE70000003C0240D9
:100DD000083802403E2600080C00002004000020D5
:100DE00001480068704700000C00002000B5FFF7C4
:100DF000F7FF04490968044AC1F38221515CC840E5
:100E000000BD0000083802404E26000800B5FFF77C
:100E1000E7FF04490968044AC1F34231515CC84004
:100E200000BD0000083802404E26000810B51748E3
:100E3000006810F00C01164816D04310042912D097
:100E4000082911D1114C241F216801F03F022168AB
:100E500049020AD52068C0F38810A0FB03010023D3
:100E6000FFF702FA09E0184610BD21680023C1F31C
:100E70008811A1FB0001FFF7F7F92168C1F30141D7
:100E8000491C4900B0FBF1F010BD000008380240D9
:100E90000024F4002DE9F84F0446002C13D02078EC
:100EA000DFF8A083C007A8F1040556D008F10400BC
:100EB0000168C1F3810101290CD00068C0F38100F1
:100EC000022803D00DE00120BDE8F88FD8F800001B
:100ED000400206D5286880033FD5606870BB0120BA
:100EE000F2E76068B0F5803F10D0B0F5A02F12D0C7
:100EF000286820F480302860286820F4802028604A
:100F00006068E0B1FFF724FE064614E0286840F46C
:100F100080302860F4E7286840F480202860286842
:100F200040F480302860EBE7FFF712FE801B642856
:100F300001D90320C8E728688003F5D50DE0FFF745
:100F400007FE064606E0FFF703FE801B642801D972
:100F50000320B9E728688003F5D42078BA4F8007CA
:100F60004FF0000948D5B748001D016811F00C0F7B
:100F700008D00068C0F38100022813D1D8F800001F
:100F800040020FD42868800704D5E068012801D00A
:100F9000012099E72868216920F0F80040EAC100A3
:100FA000286029E0E068B8B101203860FFF7D0FD83
:100FB000064606E0FFF7CCFD801B022801D903207E
:100FC00082E728688007F5D52868216920F0F800B5
:100FD00040EAC10028600FE0C7F80090FFF7B8FDB5
:100FE000064606E0FFF7B4FD801B022801D9032066
:100FF0006AE728688007F5D42078000729D5DFF84C
:1010000044A2924861690AF1700A89B10121016024
:10101000FFF79EFD064606E0FFF79AFD801B0228BB
:1010200001D9032050E7DAF800008007F4D510E07A
:10103000C0F80090FFF78CFD064606E0FFF788FD3C
:10104000801B022801D903203EE7DAF80000800760
:10105000F4D42078400778D54FF0000A79483C3026
:101060000068C0000BD477483C30016841F08051E3
:101070000160006800F0805000904FF0010ADFF836
:10108000D0B1DBF80000C00514D4DBF8000040F458
:101090008070CBF80000FFF75BFD064606E0FFF727
:1010A00057FD801B022801D903200DE7DBF8000063
:1010B000C005F4D5634EA0686C3601280FD0052812
:1010C00012D0306820F001003060306820F0040059
:1010D0003060A068F8B1FFF73BFD834617E0306849
:1010E00040F001003060F4E7306840F00400306008
:1010F000306840F001003060EBE7FFF729FDA0EB1E
:101100000B0141F28830814201D90320DCE63068CE
:101110008007F2D510E0FFF71BFD834609E0FFF7DB
:1011200017FDA0EB0B0141F28830814201D9032069
:10113000CAE630688007F2D4BAF1010F05D1414800
:101140003C30016821F080510160A069C0B33D4985
:10115000091D09684FF0FF36C1F38101022946D00D
:10116000022805D0C7F86090FFF7F2FC04463AE089
:10117000C7F86090FFF7ECFC814607E0FFF7E8FC5A
:10118000A0EB0900022801D903209DE62868800110
:10119000F4D4D4E907010843616AA26A890106EB25
:1011A000520241EA0241084394F82C1040EA0160DF
:1011B000C8F8000001203866FFF7CAFC044607E0C3
:1011C0003DE0FFF7C5FC001B022801D903207BE6A8
:1011D00028688001F5D532E0FFF7BAFC001B022831
:1011E00001D9032070E628688001F5D427E00128A2
:1011F00023D0D8F80000E26900F4800191421AD1AE
:10120000226A00F03F01914215D147F6C071626A2F
:101210000140B1EB821F0ED1A26A00F4403106EB0F
:101220005202B1EB024F06D194F82C1000F070601E
:10123000B0EB016F03D0012046E6012044E6002018
:1012400042E600000438024000004742800E474258
:101250000070004010B5401EB0F1807F01D3012026
:1012600010BD4FF0E02460610F21601701F09CF980
:101270000020A06107202061002010BD704770474A
:1012800070B590F83C20012A31D0012680F83C60EE
:10129000022280F83D2002685468936824F07005AB
:1012A0000C682C435460134C0268A24214D0B2F173
:1012B000804F11D0104CA2420ED0104CA2420BD045
:1012C0000F4CA24208D00F4CA24205D00E4CA242B5
:1012D00002D00E4CA24204D123F080034968194386
:1012E00091603C30467000210170002070BD0220EA
:1012F00070BD0000000001400004004000080040F4
:10130000000C004000040140004001400018004073
:1013100010B50446002C03D094F83D0010B107E04E
:10132000012010BD002084F83C00204600F016F893
:10133000022084F83D00211D206800F0E7FC012018
:101340003D3460726070A070E07020716071A071B7
:10135000E07120722070002010BD000008B5006808
:101360000B49884212D10B48016841F0200101600D
:10137000006800F020000090002211463720FFF79F
:1013800057FCBDE808403720FFF744BC08BD00000B
:10139000001400404038024070472DE9F0410446F7
:1013A0002068C56806694FF00007B10714D5A90782
:1013B00012D5F91E0161012020772068806980071D
:1013C00003D02046FFF7E8FF05E0204600F081F853
:1013D000204600F07FF82777700717D5680715D5E6
:1013E00021686FF00400086102202077206880697E
:1013F00010F4407F03D02046FFF7CEFF05E02046E3
:1014000000F067F8204600F065F82777300716D51A
:10141000280714D521686FF00800086104202077A0
:101420002068C069800703D02046FFF7B5FF05E0BC
:10143000204600F04EF8204600F04CF82777F006E2
:1014400017D5E80615D521686FF01000086108204F
:1014500020772068C06910F4407F03D02046FFF752
:101460009BFF05E0204600F034F8204600F032F8FB
:101470002777F00708D0E80706D021686FF0010051
:101480000861204600F027F8300608D5280606D562
:1014900021686FF0800008612046FFF7EFFE7006BC
:1014A00008D5680606D521686FF04000086120461F
:1014B00000F012F8B0060AD5A80608D521686FF02A
:1014C000200008612046BDE8F041FFF7D8BEBDE826
:1014D000F081704770477047704738B5044694F8FC
:1014E0004200202801D0022038BD71B16AB101202C
:1014F000206300206063204600F020FE0346206B3E
:10150000012804D00123184638BD012038BD2068C9
:1015100001684068009020680C3050E8001F41F0DE
:10152000100140E80012002AF5D1ECE710B50F4A8F
:101530000368934209D10A460D4900F0CEFEBDE88A
:1015400010400B490B4800F01BBF0B4A93420BD1D4
:101550000A460749403100F0C0FE0549BDE8104089
:101560004031064800F00CBF10BD000000100140E3
:10157000A0020020A800002000480040F000002049
:1015800070470000F8B5044622681068D1685369B6
:1015900000F00F06002E08D1850606D58D0604D56D
:1015A0002046BDE8F84000F0DBBC0025002E66D0E8
:1015B00003F0010601F49077374360D0C20705D0ED
:1015C000CA0503D5626C42F001026264420705D588
:1015D000DA0703D0626C42F002026264820705D52A
:1015E000DA0703D0626C42F004026264020707D596
:1015F00001F02002324303D0626C42F008026264C0
:10160000626C002A31D0800604D5880602D52046B7
:1016100000F0A6FC20684069C0F38010616C0907E7
:1016200000D438B3204600F059FC206840694006D9
:101630001CD52068143050E8001F21F0400140E81C
:101640000012002AF5D1E06B60B15F490165E06BE3
:10165000FEF7FAFF002808D0E06B016D01B0BDE88D
:10166000F04008472046FFF78BFFF8BD2046FFF704
:1016700087FFF8BD2046FFF783FF6564F8BD236B45
:10168000012B7DD1C3067BD5CB0679D51068506878
:10169000009050694FF0200340064FF002064FD5EE
:1016A000E26B1068406880B2DF00E8B3A18D814230
:1016B0003BD9E085D069B8422DD020680C3050E885
:1016C000001F21F4807140E80012002AF5D1206843
:1016D000143050E8001F21F0010140E80012002AF8
:1016E000F5D12068143050E8001F21F0400140E897
:1016F0000012002AF5D184F84230256320680C30AE
:1017000050E8001F21F0100140E80012002AF5D136
:10171000E06BFEF752FF6663A08DE18D401A81B247
:101720002046FFF703FFF8BDFFE7A18D8142FAD104
:10173000D069B842F7D166632046FFF7F7FEF2E7BB
:10174000A08DE18D401A81B2E08D0028EBD00029F8
:10175000E9D020680C3050E8002F22F4907240E865
:101760000027002FF5D12068143050E8002F22F018
:10177000010240E80027002FF5D184F8423000E054
:101780000FE0256320680C3050E8002F22F0100293
:1017900040E80023002BF5D166632046FFF7C6FE24
:1017A000C1E7020606D50A0604D52046BDE8F84082
:1017B00000F016BD4006B6D54806B4D52046BDE8B3
:1017C000F84000F0B2BB0000E11D000870B504460F
:1017D000002C04D094F84100002510B106E001204F
:1017E00070BD84F84050204600F024F8242084F88E
:1017F00041002068C16821F40051C160204600F01A
:1018000013FC2068016921F490410161206841695D
:1018100021F02A0141612068C16841F40051C16092
:101820006564202084F8410084F84200656300204C
:1018300070BD00002DE9F04387B00446142102A8D2
:10184000FEF789FD6649DFF8949114392068002677
:10185000634A022303250F154FF0070C4FF0006871
:1018600048453AD1106840F010001060106800F050
:1018700010000190086840F001000860086800F05E
:101880000100019068020290039304960595CDF83B
:1018900018C002A95348FFF773F8544D5248286006
:1018A000C5F80480AE60EE602F616E61AE61EE61DE
:1018B0002E626E622846FEF7C1FF08B1FEF77BFE7E
:1018C000E563AC63002211462520FFF7B1F925201E
:1018D000FFF7A0F907B0BDE8F083DFF814914845A1
:1018E0003CD13F48001F026842F480220260006839
:1018F00000F480200190086840F002000860086849
:1019000000F0020001904FF44060029003930496AF
:101910000595CDF818C002A93648FFF731F8334DC8
:10192000354860352860C5F80480AE60EE602F61F0
:101930006E61AE61EE612E626E622846FEF77EFF3A
:1019400008B1FEF738FEE563AC630022114627209C
:10195000FFF76EF92720FFF75DF9BBE7DFF89CC0C2
:101960006045B7D1106840F020001060106800F0AA
:1019700020000190086840F004000860086800F04A
:1019800004000190C020029003930496059508205E
:10199000069002A91A48FEF7F3FF1348134D1838B2
:1019A000C035286080056860AE60EE602F616E61B2
:1019B000AE61EE612E626E622846FEF73FFF08B10F
:1019C000FEF7F9FDE563AC63002211464720FFF7FF
:1019D0002FF94720FFF71EF97CE7000000100140B7
:1019E0004438024000000240406402408001002070
:1019F00000480040000402402860024000140140FA
:101A000000080240704770472DE9F84304460E462F
:101A100015461F4694F84100202802D00220BDE858
:101A2000F8837EB175B100206064212084F8410004
:101A3000FFF78EF88146A584E584A068B0F5805F45
:101A400002D003E00120EAE7206920B135460026F4
:101A50004FF0200815E00025FAE74B4600228021D0
:101A60002046009700F0EBFB18B184F8418003207A
:101A7000D5E7ADB1216815F8010B4860E08C401E38
:101A8000E084E08C0028E8D14B460022402120462B
:101A9000009700F0D4FB50B184F841800320BEE7EA
:101AA00036F8020B2168C0F308004860E6E784F8C6
:101AB00041800020B3E77047FEE7000008B51548F5
:101AC000016841F480010160016801F48001009126
:101AD000016841F400110160006800F400100090FA
:101AE000002211460C20FFF7A3F80C20FFF792F814
:101AF000002211463920FFF79BF83920FFF78AF8BA
:101B0000002211463A20FFF793F8BDE808403A203A
:101B1000FFF780B83038024008B51148016841F03D
:101B200080010160016801F080010091016841F0CD
:101B300002010160016801F002010091016841F0B9
:101B400004010160016801F004010091016841F0A5
:101B500001010160006800F00100009008BD000074
:101B6000303802401CB50024009401940D480C4903
:101B7000016053214160846040F2E731C1608461BB
:101B8000FFF7C6FB08B1FEF716FD00940194694605
:101B90000448FFF775FB002801D0FEF70CFD1CBDC3
:101BA000001400406000002010B50C480A49016094
:101BB0004FF4E131416000218160C16001610C227C
:101BC00042618161C161FFF701FE002803D0BDE8D9
:101BD0001040FEF7F0BC10BD00100140A80000202E
:101BE00010B50C480A4901604FF4E1314160002111
:101BF0008160C16001610C2242618161C161FFF7B6
:101C0000E5FD002803D0BDE81040FEF7D4BC10BDB0
:101C100000480040F000002010B50C480A4901605F
:101C20004FF4E131416000218160C16001610C220B
:101C300042618161C161FFF7C9FD002803D0BDE8A1
:101C40001040FEF7B8BC10BD001401403801002060
:101C5000FEE7FEE770477047FEF780BF30B593B0F0
:101C6000302107A8FEF777FB142102A8FEF773FBCB
:101C700000251D48016841F080510160006800F0B6
:101C8000805001901948016841F48041016000686A
:101C900000F4804001900120079000040890022485
:101CA0000D9480010E9004200F90A82110911194A2
:101CB000129007A8FFF7EEF808B1FEF77CFC0F20A2
:101CC0000290039404954FF4A05005904FF4805077
:101CD0000690052102A8FEF7DDFF002801D0FEF7DF
:101CE0006AFC13B030BD0000403802400070004074
:101CF0000248016841F470010160704788ED00E01E
:101D00000148FFF74ABB0000600000202DE9F041C8
:101D10000268284D284E294FDFF8A4C0294B4FF008
:101D20008048A84209D0404507D0B04205D0B8420B
:101D300003D0604501D0984203D122F070044A6874
:101D40002243A8421BD0404519D0B04217D0B84218
:101D500015D0604513D0984211D01B4CA0420ED034
:101D60001A4CA0420BD01A4CA04208D0194CA042E9
:101D700005D0194CA04202D0184CA04203D122F445
:101D80004074CA6822434C6922F0800222438C6866
:101D9000C4620C688462A84201D0984201D10969EA
:101DA0000163016841F004010160012141610260A9
:101DB000BDE8F08100000140000400400008004040
:101DC000000C00400004014000400140004401407C
:101DD0000048014000180040001C00400020004066
:101DE00010B5806B0021C185FFF7CAFB10BD70B52F
:101DF000846B20684069C0F3C01094F8411000253E
:101E0000212904D118B1E584204600F09BF8206810
:101E10004069C0F3801094F84210222904D118B10F
:101E2000E585204600F05AF8606C40F010006064D0
:101E30002046FFF7A5FB70BD10B50146886B096809
:101E400009684FF00003C9052ED4C38501680C3121
:101E500051E8002F22F4807241E80024002CF5D1D3
:101E60000168143151E8002F22F0010241E80024FA
:101E7000002CF5D10168143151E8002F22F0400206
:101E800041E80024002CF5D1202180F84210016B9C
:101E9000012909D101680C3151E8002F22F010020C
:101EA00041E80024002CF5D14363016B012902D0E5
:101EB000FFF7A8FD10BD818DFFF738FB10BD10B5F1
:101EC000806B01214163016B012902D0FFF79BFD6B
:101ED00010BD818D4908FFF729FB10BD01680C3149
:101EE00051E8002F22F4907241E80023002BF5D135
:101EF0000168143151E8002F22F0010241E800236B
:101F0000002BF5D1016B012909D101680C3151E891
:101F1000002F22F0100241E80023002BF5D12021F0
:101F200080F8421000210163704710B50168CA684B
:101F300022F04002CA60202180F84110FFF7BBFD6B
:101F4000002010BD01680C3151E8002F22F0C002C2
:101F500041E80023002BF5D1202180F84110704783
:101F600008B590F84210222901D0022008BD8268ED
:101F70004FF480539A4201D1016921B1816A9A429A
:101F80001DD052B10BE0816A02685268C2F30802A8
:101F90000A80816A891C816209E002697AB102685B
:101FA000526802F07F020A70816A491C8162C18D09
:101FB000491E0904090CC18505D0002008BD02682E
:101FC00052680A70F0E70168CA6822F02002CA600D
:101FD0000168CA6822F48072CA6001684A6922F006
:101FE00001024A61202180F8421000214163026B06
:101FF000012A03D0FFF706FD002008BD0163016838
:102000000C3151E8002F22F0100241E80023002B90
:10201000F5D101680A68D20602D50A6849680091BC
:10202000818DFFF783FAE7E72DE9F0410446206848
:102030000169E26821F4405111430161A1682069FE
:10204000E26901436069104301432068C26849F2B4
:102050000C639A430A43C26020684169A26921F473
:1020600040711143416133492068884202D03249AE
:10207000884202D1FEF7CAFE01E0FEF7B7FEE16931
:102080000023192764253226B1F5004F28D0616856
:102090008B0F8A00A0FB0701FEF7E6F80146B0FBB4
:1020A000F5F07A42504301EB800006EB0010B0FBE4
:1020B000F5F000F0F002B1FBF5F002EB0012B1FB1D
:1020C000F5F07B42584301EB800006EB0010B0FBBB
:1020D000F5F0216800F00F0010448860BDE8F08141
:1020E00061684A18A0FB07015B41FEF7BDF8014695
:1020F000B0FBF5F00201B1FBF5F06FF018035843A7
:1021000001EB800006EBC000B0FBF5F000F0F8003A
:1021100002EB4002B1FBF5F0584301EB800006EB07
:10212000C000B0FBF5F0216800F0070010448860A3
:10213000D4E70000001001400014014037B582B020
:1021400004461346039AA262A385002060642221FC
:1021500084F84210E56B1F49E963E56B1E49296469
:10216000E56B1E49E964E16B08652168E06B091DB8
:10217000FEF7CEFB38B110206064202084F84200C6
:10218000012005B030BD20680168406801902069D9
:1021900048B120680C3050E8001F41F4807140E8DD
:1021A0000012002AF5D12068143050E8001F41F0D9
:1021B000010140E80012002AF5D12068143050E8EF
:1021C000001F41F0400140E80012002AF5D1002034
:1021D000D7E70000391E0008BF1E0008EF1D0008E9
:1021E00090F84110212901D0022070478168B1F593
:1021F000805F01D1016961B1016A4A1C0262026813
:1022000009785160C18C491E0904090CC1840AD0A7
:1022100013E0016A02680988C1F308015160016A8C
:10222000891C0162EEE70168CA6822F08002CA6078
:102230000068C16841F04001C160002070472DE98D
:10224000F84304460D4617469846089E25E0701C44
:1022500023D0FEF77DFCA0EB0800B0421BD8D6B11E
:102260002068C168490718D5802D16D0402D14D09C
:102270000168C943090710D400252168096840682E
:1022800000902046FFF72AFE0820606484F8405042
:102290000120BDE8F8830320FBE72068006835EAE9
:1022A000000004D00020B842D1D00020F1E7012086
:1022B000F9E700000148FFF765B90000A800002019
:1022C0000148FFF75FB90000F00000200148FFF768
:1022D00059B9000038010020FEE72DE9F04107461A
:1022E0000D461646002315E0E9184878352804D035
:1022F000362804D05B1C9BB20CE0062400E00824C6
:102300001C44B44209D8601910F8010C6B2806D09F
:102310005B1C9BB2981CB042E6D9BDE8F081384600
:1023200000F002F8A3B2F5E770B504460D4609487F
:102330000068A04203D10749284600F0CFF80648BC
:102340000068A04205D12846BDE87040024900F06F
:10235000C5B870BD180000203C00002010B505492C
:10236000054800F00DF80349BDE81040403103482E
:1023700000F006B8A0020020A8000020F000002015
:1023800010B5044640222046FFF7A7F8002805D1E3
:10239000E06B0068016821F00801016010BD0000D9
:1023A0007FB54379002290ED020A01790468F1EECD
:1023B000080A002B3DD0B5EEC00AF1EE10FA03D2A8
:1023C000B1EE400A80ED020A90ED030A9FED3F1A3C
:1023D000DFED3F1AB5EEC00A0125F1EE10FA4BDB36
:1023E00090ED072AB8EE422A22EE011A61EE211A78
:1023F00090ED081AB8EE411A21EE811A21EE000A7A
:102400009FED341AC0EE011A90ED021A0092BCEE54
:10241000E10AC1EE201A8DED010ACDE90252002237
:10242000FCEEE10A10EE900A83B22046FEF772F845
:102430007FBDB5EEC00AF1EE10FA0DDD80EE201A78
:10244000009201920022BCEEC10A10EE100A83B283
:102450002046FEF790F87FBDF9EE080A009280EE64
:10246000201A01920122BCEEC10A10EE100A83B2BA
:102470002046FEF780F87FBD90ED072AB8EE422A8D
:1024800022EE011A61EE211A90ED081AB8EE411AF7
:1024900021EE811A21EE000A9FED0F1AC0EE011AFB
:1024A00090ED021A0092BCEEE10AC1EE201A8DED09
:1024B000010ACDE902520122FCEEE10A10EE900A77
:1024C00083B22046FEF726F87FBD00000000484595
:1024D0000000803D0000B4430000B4C330B50B469B
:1024E00001781A7991422FD141780125AA1E254CF5
:1024F00035292AD0362927D1C1796B2924D1817871
:1025000001293DD06570D0F80300606000F076F8D6
:1025100000EE100ADFED1C0A94F90100B8EE400A43
:1025200020EE200ADFED190A60EE200A93ED080A7A
:10253000B8EE400A80EE801A00EE100AB8EEC00A2B
:1025400021EE000A83ED050A30BD41796B29FBD1EC
:102550008178012912D02570B0F80300608000F066
:1025600048F894F90010484300EB4000400000EEAA
:10257000100AB8EEC00A83ED040A30BD2270EBE702
:102580006270C0E7100000200000B44300008037F4
:1025900010B50448FFF704FF0248BDE8104024309E
:1025A000FFF7FEBE180000200907090E002804DB13
:1025B00000F1E02080F80014704700F00F0000F1F7
:1025C000E02080F8141D7047FEF7D0FAFFF746FBB5
:1025D000FFF7A2FAFFF772FAFFF7E6FAFFF700FB40
:1025E000FFF71AFBFFF7BEFAFFF7B8FEFFF7D0FFC1
:1025F000FCE7010AC0B241EA002070474FF47F4176
:1026000001EA10214FF47F0241EA106102EA002240
:10261000114341EA00607047002800D1024892B29D
:102620004FF6FF73FFF7F0B9A80000204FF040709D
:10263000E1EE100A704700061016000610160000A2
:102640000000000000000102030406070809000062
:1026500000000102030400007826000800000020AA
:1026600060000000C4010008D826000860000020B7
:1026700020090000E0010008010000001000000037
:10268000000000000024F400010100000000000030
:10269000A8000020010100000000C8420000000066
:1026A0000000000000000000000000000001000029
:1026B00001000000F0000020020100000000C842FC
:1026C000000000000000000000000000000000000A
:0826D000000100000100000000
:040000050800018965
:00000001FF
