:020000040800F2
:10000000C818002029020008812B000815240008C8
:100010007D2B00083B040008E134000800000000CC
:10002000000000000000000000000000872B000816
:10003000AB05000800000000852B0008892B000894
:10004000430200084302000843020008430200087C
:10005000430200084302000843020008430200086C
:10006000430200084302000843020008430200085C
:10007000410400084302000851040008430200083C
:10008000430200084302000843020008430200083C
:10009000430200084302000843020008430200082C
:1000A000430200084302000843020008430200081C
:1000B000430200084302000843020008430200080C
:1000C00043020008430200084302000843020008FC
:1000D00043020008B134000843020008C13400089C
:1000E000430200084302000843020008692C00088C
:1000F000992C0008892C0008792C0008430200087C
:1001000043020008430200084302000843020008BB
:10011000430200084302000843020008592C00086B
:10012000430200086104000871040008430200084B
:100130004302000800000000000000004302000825
:10014000430200084302000843020008430200087B
:10015000430200088104000891040008D13400081B
:10016000430200084302000843020008430200085B
:1001700043020008430200080000000000000000E5
:10018000430200084302000800F002F800F03CF8C7
:100190000AA090E8000C82448344AAF10107DA45E2
:1001A00001D100F031F8AFF2090EBAE80F0013F0F8
:1001B000010F18BFFB1A43F0010318475C610000F0
:1001C0007C610000103A24BF78C878C1FAD8520781
:1001D00024BF30C830C144BF04680C6070470000C1
:1001E0000023002400250026103A28BF78C1FBD840
:1001F000520728BF30C148BF0B6070471FB505F0DC
:10020000C6FF1FBD10B510BD00F0E2F81146FFF7A4
:10021000F5FF04F00FFD00F000F903B4FFF7F2FF63
:1002200003BC00F003F90000094880470948004773
:10023000FEE7FEE7FEE7FEE7FEE7FEE7FEE7FEE796
:10024000FEE7FEE704480549054A064B70470000F3
:10025000452C000889010008C8120020C818002099
:10026000C8140020C814002053EA020C00F0698072
:100270002DE9F04B4FF00006002B1FBFB3FA83F5BA
:1002800003FA05F424FA05F65E4012BF1643B2FAEB
:1002900082F502FA05F4C5F120051EBF22FA05FC1D
:1002A00044EA0C04203556EA044C4FEA144418BFC3
:1002B000641C4FF000084FF00009904271EB030CF2
:1002C00039D3002919BFB1FA81F701FA07F6B0FA5C
:1002D00080F700FA07F6C7F120071EBF20FA07FCD7
:1002E00046EA0C062037B6FBF4FCA7EB0507103FE7
:1002F00007F01F0BCBF120060CFA0BFB2CFA06F6CD
:1003000044BFB3460026202FA4BF5E464FF0000B2B
:100310005BEA060C08BF4FF0010B19EB0B09ABFBB6
:10032000027C48EB0608C01B06FB02CC0BFB03CC8F
:1003300071EB0C01C1E70B46024641464846BDE859
:10034000F08B13B54FF000004FF00001AFF30080C9
:10035000BDE81C4070474FF0000200B513469446BC
:100360009646203922BFA0E80C50A0E80C50B1F10D
:100370002001BFF4F7AF090728BFA0E80C5048BF21
:100380000CC05DF804EB890028BF40F8042B08BFBF
:10039000704748BF20F8022B11F0804F18BF00F8BB
:1003A000012B704770477047704710B500F008F890
:1003B000006810BD10B5044600F002F8046010BDDE
:1003C0000048704764120020004870476412002003
:1003D0007546FFF7F9FFAE4605006946534620F023
:1003E0000700854618B020B5FFF72CFFBDE8204078
:1003F0004FF000064FF000074FF000084FF0000BE1
:1004000021F00701AC46ACE8C009ACE8C009ACE893
:10041000C009ACE8C0098D46704710B50446AFF37B
:1004200000802046BDE81040FFF7F7BE01491820C4
:10043000ABBEFEE726000200704700BFFEE70000EB
:1004400010B5024800F022F910BD00001003002092
:1004500010B5024800F01AF910BD0000700300202A
:1004600010B5024800F012F910BD0000D0030020C2
:1004700010B5024800F00AF910BD0000500200203B
:1004800010B5024800F002F910BD00003004002051
:1004900010B5024800F0FAF810BD0000B0020020CC
:1004A0000146087810381823B0FBF3F20848805C46
:1004B000C865032A05D908686FF30900001D88651F
:1004C00003E008686FF309008865886D70470000D5
:1004D000A2610008014600208A6A8B69CBB932B15B
:1004E000012A0DD0022A03D0032A10D10EE000BF4A
:1004F000CB6A03F08073B3F1807F00D1012007E065
:10050000CB6AB3F1C07F00D1012001E000E000BF61
:1005100034E08B69B3F5005F1AD132B1012A07D0FC
:10052000022A03D0032A11D10AE000BF01200EE005
:10053000CB6A03F08073B3F1807F00D1012006E025
:10054000CB6AB3F1C07F00D1012000E000BF15E00D
:1005500032B1012A05D0022A04D0032A0CD103E0CB
:1005600000BF00BF012008E0CB6A03F08073B3F145
:10057000807F00D1012000E000BF00BF704730B590
:100580000468246824F4802405682C60046863608F
:100590008468402C04D10468A2600468E16003E030
:1005A0000468A1600468E26030BD704772B600BFA5
:1005B000FEE770B50446A56D00F064FB064694F8AE
:1005C0003500022808D08020606500BF002084F834
:1005D000340000BF012070BD2068006820F01600C4
:1005E000216808602068406920F080002168486127
:1005F000206C08B9A06C28B12068006820F00800C1
:10060000216808602068006820F001002168086007
:1006100010E000F037FB801B05280BD92020606517
:10062000032084F8350000BF002084F8340000BFA8
:100630000320D0E72068006800F001000028E8D11E
:1006400094F85C103F208840A860012084F83500B1
:1006500000BF002084F8340000BF00BFBBE70146A4
:1006600091F83500022803D08020486501207047AA
:10067000052081F835000868006820F001000A684C
:1006800010600020F3E70146486D7047F8B5044656
:10069000002000908C4800684FF41651B0FBF1F731
:1006A000A56D2E6894F85C1008208840304098B101
:1006B0002068006800F0040070B12068006820F035
:1006C00004002168086094F85C1008208840A86045
:1006D000606D40F00100606594F85C100120884076
:1006E000304068B12068406900F0800040B194F863
:1006F0005C1001208840A860606D40F002006065D9
:1007000094F85C1004208840304068B1206800688C
:1007100000F0020040B194F85C1004208840A8600A
:10072000606D40F00400606594F85C101020884013
:10073000304078B32068006800F0080050B394F8A7
:100740005C1010208840A8602068006800F48020B9
:1007500080B12068006800F4002028B9206CC8B17E
:100760002046216C884715E0A06C98B12046A16C0A
:1007700088470FE02068006800F4807028B920687E
:10078000006820F0080021680860206C10B1204645
:10079000216C884794F85C10202088403040002865
:1007A00065D02068006800F0100000285FD094F841
:1007B0005C1020208840A86094F83500052828D1D6
:1007C0002068006820F016002168086020684069F1
:1007D00020F0800021684861206C08B9A06C28B125
:1007E0002068006820F008002168086094F85C1018
:1007F0003F208840A860012084F8350000BF002019
:1008000084F8340000BF206D10B12046216D884768
:10081000F8BD2068006800F4802080B1206800687E
:1008200000F4002028B9606C10B12046616C884744
:100830001DE0E06BD8B12046E16B884717E02068E7
:10084000006800F4807068B92068006820F010002B
:1008500021680860012084F8350000BF002084F87A
:10086000340000BFE06B10B12046E16B8847606D3B
:1008700038B3606D00F00100F0B1052084F8350058
:100880002068006820F001002168086000BF00981F
:10089000401C0090B84200D905E02068006800F0D4
:1008A00001000028F3D100BF012084F8350000BF0B
:1008B000002084F8340000BFE06C10B12046E16CE9
:1008C000884700BFA4E700000C0000202DE9F0419C
:1008D0000446002500F0D6F9074614B90120BDE80A
:1008E000F081606A00B100BF022084F8350000BFCB
:1008F000002084F8340000BF2068006820F0010068
:10090000216808600AE000F0BDF9C01B052805D980
:1009100020206065032084F83500E0E72068006847
:1009200000F001000028EED120680568214805404C
:10093000D4E901010843E16808432169084361697A
:100940000843A1690843E1690843216A0843054354
:10095000606A042803D1D4E90B01084305432068E9
:1009600005602068456925F00705606A0543606AEF
:1009700004280DD1A06A0543E06A48B12046FFF77C
:10098000A9FD28B140206065012084F83500A6E764
:10099000206845612046FFF783FD064694F85C1009
:1009A0003F208840B06000206065012084F8350059
:1009B000002094E73F8010F02DE9F04704460D46F3
:1009C00016461F464FF00008D4F8589000BF94F820
:1009D0003400012802D10220BDE8F087012084F80C
:1009E000340000BF94F83500012825D1022084F896
:1009F0003500002060653B46324629462046FFF719
:100A0000BEFD94F85C103F208840C9F808002068BB
:100A1000006840F0160021680860206C28B120684A
:100A2000006840F00800216808602068006840F015
:100A300001002168086006E000BF002084F834004F
:100A400000BF4FF002084046C6E7000070B50446FC
:100A500000F018F906462546681C10B104480078D5
:100A6000054400BF00F00EF9801BA842FAD370BD08
:100A700008000020F8B502460B460025002400209F
:100A80000021D6E0012606FA01F51E6806EA0504F3
:100A9000AC4274D11E7906F00306012E04D01E79F3
:100AA00006F00306022E13D190684F000326BE40C5
:100AB000B0434F00DE68BE4030439060506801266E
:100AC0008E40B0431E79C6F300168E40304350600E
:100AD0001E7906F00306032E09D0D0684F000326C6
:100AE000BE40B0434F009E68BE403043D0601E7988
:100AF00006F00306022E13D1CF0802F1200656F8A5
:100B000027004E07F70E0F26BE40B0434F07FF0EDB
:100B10001E69BE403043CF0802F1200646F8270088
:100B200010684F000326BE40B0431E7906F003064E
:100B30004F00BE40304310605E6806F44036002E21
:100B400076D000BF002600963C4E366846F48046BC
:100B50003A4F3E603E46366806F48046009600BF37
:100B600000BF374E8F0856F827008E07370F0F2625
:100B7000BE40B043334EB24202D1002624E057E0DB
:100B8000314EB24201D101261EE0304EB24201D1B7
:100B9000022619E02E4EB24201D1032614E02D4E5A
:100BA000B24201D104260FE02B4EB24201D10526FC
:100BB0000AE02A4EB24201D1062605E0284EB24292
:100BC00001D1072600E008268F073F0FBE403043C3
:100BD0001B4E8F0846F82700224E3068A0435E68FF
:100BE00006F4801606B120431E4E3060361D306874
:100BF000A0435E6806F4001606B12043194E361D68
:100C00003060184E361F3068A0435E6806F4003628
:100C100006B12043134E361F3060361F3068A043A4
:100C20005E6806F4803606B120430E4E083E306002
:100C3000491C1029FFF426AFF8BD000044380240DB
:100C40000838014000000240000402400008024051
:100C5000000C024000100240001402400018024044
:100C6000001C0240083C0140024613690B400BB1D6
:100C7000012000E0002070470AB1816101E00B040F
:100C80008361704701480068704700000000002041
:100C9000034800680349097808440149086070471F
:100CA000000000200800002010B50D48006840F446
:100CB00000700B4908600846006840F480600860D6
:100CC0000846006840F480700860032000F0A6F831
:100CD0000F2000F007F800F02BF8002010BD0000F6
:100CE000003C024070B504460E4800784FF47A711B
:100CF000B1FBF0F00C490968B1FBF0F5284600F0B3
:100D00002FFC08B1012070BD102C07D20022214613
:100D1000501E00F045F80548046001E00120F2E7AC
:100D20000020F0E7080000200C0000200400002054
:100D300008B500BF002000900E48006840F48040D5
:100D40000C4908600846006800F48040009000BF2D
:100D500000BF00BF00200090081F006840F08050D6
:100D6000091F08600846006800F08050009000BF2E
:100D700000BF08BD443802400146084600280DDB8C
:100D800000BF00BF00F01F0301229A4043099B00EF
:100D900003F1E023C3F8002100BF00BF00BF70478C
:100DA0002DE9F05F80460D461646002702F04EFF03
:100DB000074639462A46334601F00700C0F1070AC4
:100DC000BAF1040F02D94FF0040A01E0C0F1070A9A
:100DD000D14600F1040ABAF1070F02D24FF0000A1F
:100DE00001E0A0F1030AD4464FF0010A0AFA09FA19
:100DF000AAF1010A0AEA020A0AFA0CFA4FF0010BF8
:100E00000BFA0CFBABF1010B0BEA030B4AEA0B04E8
:100E10002146404602F022FFBDE8F09F00BF00F0EF
:100E20000702064B19684FF6FF031940044B0B43AA
:100E300043EA0221014B196000BF70470CED00E04E
:100E40000000FA0570B504460D460CB9012070BDCE
:100E50005848006800F00700A84209D255490D70B3
:100E60000846006800F00700A84201D00120EEE724
:100E7000207800F0020002281DD1207800F0040044
:100E8000042805D14C48006840F4E0504A49086005
:100E9000207800F00800082805D14748006840F491
:100EA0006040454908604448006820F0F000A168AF
:100EB000084341490860207800F00100A8B3606849
:100EC000012807D13C4808380068C0F34040B8B951
:100ED0000120BCE76068022802D06068032807D1BF
:100EE000354808380068C0F3406048B90120AEE7D3
:100EF000314808380068C0F3400008B90120A6E76F
:100F00002D48006820F00300616808432A49086002
:100F1000FFF7B8FE064609E0FFF7B4FE801B41F27A
:100F20008831884202D9032091E707E0224800680F
:100F300000F00C006168B0EB810FEDD11D48006836
:100F400000F00700A84209D91A490D700846006848
:100F500000F00700A84201D0012078E7207800F0D7
:100F60000400042807D11448006820F4E050E16828
:100F7000084311490860207800F00800082808D1CB
:100F80000D48006820F46040216940EAC1000A4928
:100F9000086000F03FF808490968C1F30311074AE7
:100FA000515CC8400649086006480068FFF79AFE91
:100FB00000204CE7003C024008380240AA610008CB
:100FC0000C00002004000020014800687047000069
:100FD0000C00002000B5FFF7F7FF04490968C1F3D2
:100FE0008221034A515CC84000BD0000083802401D
:100FF000BA61000800B5FFF7E7FF04490968C1F3CB
:101000004231034A515CC84000BD0000083802402C
:10101000BA6100082DE9F047002400250026A1460A
:101020002548006800F00C0020B1042805D00828ED
:101030003AD105E0DFF8849039E0DFF8849036E0BB
:101040001D48001F006800F03F041B48001F006897
:1010500000F4800078B11A481749091F0968C1F3E4
:101060008811A0FB01700146224600233846FFF795
:10107000FBF805460EE011480F49091F0968C1F346
:101080008811A0FB01700146224600233846FFF775
:10109000EBF805460848001F0068C0F30140401CFB
:1010A0004600B5FBF6F902E0DFF8109000BF00BF84
:1010B0004846BDE8F0870000083802400024F400EC
:1010C00000127A00F8B504460CB90120F8BD20786A
:1010D00000F00100002874D0F948006800F00C000E
:1010E00004280DD0F648006800F00C00082813D141
:1010F000F348001F006800F48000B0F5800F0BD1AA
:10110000EF4808380068C0F34040002859D06068B4
:10111000002856D10120D9E700BF6068B0F5803FB4
:1011200008D1E7480838006840F48030E4490839BD
:1011300008601EE06068B0F5A02F0DD1E0480838C7
:10114000006840F48020DE490839086008460068DD
:1011500040F4803008600CE0D9480838006820F47A
:101160008030D749083908600846006820F480209C
:10117000086000BF606890B1FFF784FD054606E097
:10118000FFF780FD401B642801D903209EE7CC486F
:1011900008380068C0F340400028F1D011E0FFF7A4
:1011A00071FD054606E0FFF76DFD401B642801D97F
:1011B00003208BE7C24808380068C0F3404000288D
:1011C000F1D1207800F0020002285FD1BC4800680D
:1011D00000F00C0058B1BA48006800F00C00082874
:1011E0001CD1B748001F006800F48000B0B9B448B3
:1011F00008380068C0F3400020B1E068012801D041
:10120000012063E7AE480838006820F0F800216943
:1012100040EAC100AA490839086037E0E06800B335
:101220000120A8490860FFF72DFD054606E0FFF7FD
:1012300029FD401B022801D9032047E7A0480838B0
:101240000068C0F340000028F1D09D4808380068CD
:1012500020F0F800216940EAC10099490839086086
:1012600014E0002097490860FFF70CFD054606E0F2
:10127000FFF708FD401B022801D9032026E790480C
:1012800008380068C0F340000028F1D1207800F051
:10129000080008282CD16069A8B101208A4908609B
:1012A000FFF7F0FC054606E0FFF7ECFC401B0228C8
:1012B00001D903200AE782486C300068C0F340007F
:1012C0000028F1D014E000207F490860FFF7DAFC25
:1012D000054606E0FFF7D6FC401B022801D9032093
:1012E000F4E677486C300068C0F340000028F1D184
:1012F000207800F00400042870D1002770483830AE
:10130000006800F0805090B900BF002000906C4849
:101310003830006840F0805069493831086008462C
:10132000006800F08050009000BF00BF01276748B0
:10133000006800F48070B0B96448006840F48070C0
:1013400062490860FFF79EFC054606E0FFF79AFC3D
:10135000401B022801D90320B8E65C48006800F46D
:1013600080700028F2D000BFA068012808D154483E
:101370006830006840F001005149683108601DE0A4
:10138000A06805280DD14E486830006840F0040080
:101390004B49683108600846006840F00100086069
:1013A0000CE047486830006820F00100444968318B
:1013B00008600846006820F00400086000BFA068CC
:1013C000A8B1FFF75FFC054609E0FFF75BFC401B97
:1013D00041F28831884202D9032077E626E0384876
:1013E00068300068C0F340000028EED013E0FFF73B
:1013F00049FC054608E0FFF745FC401B41F28831F7
:10140000884201D9032061E62D4868300068C0F3A6
:1014100040000028EFD1012F07D12948383000685B
:1014200020F0805026493831086000BFA0690028AC
:1014300045D02348006800F00C0008285DD0A06962
:10144000022845D100201F490866FFF71BFC05460E
:1014500006E0FFF717FC401B022801D9032035E600
:10146000174808380068C0F340600028F1D1D4E97B
:1014700007010843616A40EA81110122A06AC2EBB8
:10148000500041EA00412C20005D41EA00600C4917
:10149000091F086001200B490866FFF7F3FB0546AA
:1014A00006E0FFF7EFFB401B022801D903200DE601
:1014B000034808380068C0F340600028F1D049E0D4
:1014C0000838024000004742800E4742007000404A
:1014D000002021490866FFF7D5FB054606E0FFF727
:1014E000D1FB401B022801D90320EFE51B4800680F
:1014F000C0F340600028F2D12CE0A069012800D19F
:10150000E4E51648001D0668A069012820D006F40D
:101510008001E06981421BD106F03F01206A8142CF
:1015200016D147F6C0703040616AB0EB811F0FD111
:1015300006F440310122A06AC2EB5000B1EB004F2B
:1015400006D106F070612C20005DB1EB006F01D078
:101550000120BBE50020B9E5000047420038024009
:1015600070B504462546681EB0F1807F01D3012086
:101570000FE0681E4FF0E02148610F214FF0FF306F
:1015800002F06CFB00204FF0E02188610720086129
:10159000002070BD7047704730B502460B4600BF53
:1015A00092F83C00012801D1022030BD012082F8D0
:1015B0003C0000BF022082F83D00106844681068BB
:1015C000816824F070041868044310684460184D62
:1015D0001068A8421BD01068B0F1804F17D0154D8D
:1015E0001068A84213D0144D1068A8420FD0134DB4
:1015F0001068A8420BD0124D1068A84207D0114DB8
:101600001068A84203D0104D1068A84205D121F0FF
:1016100080015868014310688160012082F83D0014
:1016200000BF002082F83C0000BF00BFBDE7000003
:10163000000001400004004000080040000C004091
:1016400000040140004001400018004010B504466D
:101650000CB9012010BD94F83D0028B9002084F891
:101660003C00204600F026F8022084F83D00211DB1
:10167000206801F019FB012084F8460000BF84F8BF
:101680003E0001213F2001554020015541200155D8
:1016900000BF00BF012084F84200432001554420D0
:1016A00001554520015500BF012084F83D00002070
:1016B000D0E7000038B5044629492068884218D18F
:1016C00000BF002000902748006840F02000254916
:1016D00008600846006800F02000009000BF00BFCE
:1016E000002211463720FFF75BFB3720FFF744FB52
:1016F00035E01D492068884231D100BF00200090AC
:101700001848001D006840F002001649091D0860D5
:101710000846006800F00200009000BF00BF0022F1
:1017200011462B20FFF73CFB2B20FFF725FB002267
:1017300011462C20FFF734FB2C20FFF71DFB002265
:1017400011462D20FFF72CFB2D20FFF715FB002263
:1017500011462E20FFF724FB2E20FFF70DFB38BD8E
:10176000001400404038024000040140014691F856
:101770003D00012801D001207047022081F83D0082
:101780000868C06840F001000B68D8601A4B086810
:1017900098421BD00868B0F1804F17D0174B0868EB
:1017A000984213D0164B086898420FD0154B086822
:1017B00098420BD0144B0868984207D0134B086826
:1017C000984203D0124B086898420CD10868806890
:1017D00000F00702062A0CD00868006840F00100FB
:1017E0000B68186005E00868006840F001000B68AD
:1017F00018600020C0E70000000001400004004025
:1018000000080040000C004000040140004001407E
:10181000001800402DE9F04104460D46002700BFA6
:1018200094F83C00012802D10220BDE8F08101209B
:1018300084F83C0000BF022084F83D0020688668E0
:1018400026F0770626F47F462068866028685028B0
:1018500033D00CDC202850D004DC00284BD01028DA
:1018600051D149E0302849D040284CD139E0602896
:101870002DD0702807D0B0F5805F03D0B0F5005FA1
:1018800041D10DE041E0D5E902136A68206801F01A
:101890007BFA2068866846F077062068866034E028
:1018A000D5E902136A68206801F06EFA2068806842
:1018B00040F480402168886027E0EA686968206811
:1018C00001F076FA5021206801F069FA1DE0EA681B
:1018D0006968206801F07FFA6021206801F05FFAF2
:1018E00013E0EA686968206801F062FA4021206824
:1018F00001F055FA09E000BF00BF00BF2968206869
:1019000001F04DFA01E0012700BF00BF012084F87B
:101910003D0000BF002084F83C0000BF384684E74B
:10192000704770B504462068C5682068066906F0EF
:101930000200022819D105F00200022815D1401F2B
:1019400021680861012020772068806900F0030089
:1019500018B12046FFF7E4FF05E0204600F097F8B5
:10196000204600F095F80020207706F004000428B7
:1019700019D105F00400042815D1C043216808617D
:10198000022020772068806900F4407018B120465A
:10199000FFF7C6FF05E0204600F079F8204600F08A
:1019A00077F80020207706F00800082819D105F004
:1019B0000800082815D1C043216808610420207759
:1019C0002068C06900F0030018B12046FFF7A8FFA7
:1019D00005E0204600F05BF8204600F059F80020B2
:1019E000207706F01000102819D105F010001028FB
:1019F00015D1C04321680861082020772068C0699C
:101A000000F4407018B12046FFF78AFF05E0204639
:101A100000F03DF8204600F03BF80020207706F06B
:101A2000010048B105F0010030B16FF001002168FC
:101A30000861204600F02EF806F08000802809D1C9
:101A400005F08000802805D1C04321680861204648
:101A5000FFF7A0FD06F04000402809D105F0400046
:101A6000402805D1C04321680861204600F042F8B3
:101A700006F02000202809D105F02000202805D1FB
:101A8000C043216808612046FFF785FD70BD70479F
:101A90007047000070B5044611492068884218D18B
:101AA00010480068B0F5FA7F04D20E480068401C68
:101AB0000C4908600C4803F0ADF806460B4803F0EB
:101AC000A9F805462946304603F002F902F0A2FFC4
:101AD00005E007492068884201D100F09DFC70BDF7
:101AE00000140040C8000020D4000020DC000020CA
:101AF000000401407047F8B504460D46164694F8B8
:101B0000420020282DD105B10EB90120F8BD0120D9
:101B100020630020606332462946204601F02CFCF9
:101B20000746206B012819D100BF002000902068D3
:101B30000068009020684068009000BF00BF00BFB0
:101B400000BF21680C3151E8001F41F010002168EE
:101B50000C3141E80002002AF3D100E001273846A9
:101B6000D4E70220D2E7000070B504460D461449C0
:101B70002068884209D12A461249204601F00BFE0E
:101B80001049114801F0BAFE19E010492068884256
:101B900009D12A460E49204601F0FDFD0C490D48A9
:101BA00001F0ACFE0BE00C492068884207D12946C1
:101BB0000A4801F0A3FC0949094801F09FFE70BDE5
:101BC00000100140900400207801002000480040EF
:101BD000D0040020C00100200014014010050020A6
:101BE0000802002010B5044600BF00BF21680C3178
:101BF00051E8001F21F4907021680C3141E8000287
:101C0000002AF3D100BF00BF00BF2168143151E8A2
:101C1000001F21F001002168143141E80002002A70
:101C2000F3D100BF206B01280ED100BF00BF216897
:101C30000C3151E8001F21F0100021680C3141E8FF
:101C40000002002AF3D100BF2068406900F0400084
:101C5000402820D100BF00BF2168143151E8001F87
:101C600021F040002168143141E80002002AF3D13C
:101C700000BFE06B78B10020E16B0865E06BFEF718
:101C800098FC40B1E06BFEF7FEFC202803D1102049
:101C90006064032010BD0020E085202084F842000D
:101CA0000020206300BFF5E710B50446204601F090
:101CB000BBFD10BD2DE9F84F04462068056820687B
:101CC000C668206847694FF00009CA4605F00F0949
:101CD000B9F1000F0AD105F0200038B106F020005C
:101CE00020B1204601F0B4F9BDE8F88FB9F1000F3A
:101CF0007CD007F0010018B906F49070002875D068
:101D000005F0010030B106F4807018B1606C40F04D
:101D10000100606405F0040030B107F0010018B163
:101D2000606C40F00200606405F0020030B107F022
:101D3000010018B1606C40F00400606405F0080018
:101D400048B106F0200010B907F0010018B1606C2E
:101D500040F008006064606C002846D005F0200068
:101D600028B106F0200010B1204601F071F920687A
:101D70004069C0F3801A606C00F0080010B9BAF135
:101D8000000F2DD0204601F00AF92068406900F0CC
:101D90004000402820D100BF00BF2168143151E825
:101DA000001F21F040002168143141E80002002AA0
:101DB000F3D100BFE06B50B17F48E16B0865E06B89
:101DC000FEF74DFC88B1E06B016D88470DE02046C1
:101DD000FFF76AFF09E009E02046FFF765FF04E02E
:101DE0002046FFF761FF002060647DE7206B01283B
:101DF00078D105F01000002874D006F010000028FB
:101E0000FAD000BF00200090206800680090206891
:101E10004068009000BF00BF2068406900F04000AB
:101E2000402870D1E06B006840681FFA80F8B8F174
:101E3000000F58D0A08D404555DDA4F82E80E06BF2
:101E4000C069B0F5807F43D000BF00BF21680C316E
:101E500051E8001F21F4807021680C3141E8000234
:101E6000002AF3D100BF00BF00BF2168143151E840
:101E7000001F21F001002168143141E80002002A0E
:101E8000F3D100BF00BF00BF2168143151E8001F2B
:101E900021F040002168143141E80002002AF3D10A
:101EA00000BF202084F842000020206300BF00BF54
:101EB00021680C3151E8001F21F0100021680C311D
:101EC00041E80002002AF3D100BFE06BFEF771FB8E
:101ED00002206063A08DE28D801A81B22046FFF758
:101EE00043FE0EE052E0A08D40450AD1E06BC06990
:101EF000B0F5807F05D102206063A18D2046FFF7F9
:101F000033FEF1E6FFE7A08DE18D401A1FFA80F85D
:101F1000E08DD0B3B8F1000F37D000BF00BF21680B
:101F20000C3151E8001F21F4907021680C3141E818
:101F30000002002AF3D100BF00BF00BF21681431A6
:101F400051E8001F21F001002168143141E800022E
:101F5000002AF3D100BF202084F842000020206333
:101F600000BF00BF21680C3151E8001F21F01000B4
:101F700021680C3141E80002002AF3D100BF0220A1
:101F8000606341462046FFF7EFFDADE605F08000B7
:101F900030B106F0800018B1204601F059FAA3E6EE
:101FA00005F0400030B106F0400018B1204601F0C5
:101FB0002CF899E600BF97E6FF2D000810B50446FF
:101FC0000CB9012010BDA06900B100E000BF94F879
:101FD000410028B9002084F84000204600F02AF88B
:101FE000242084F841002068C06820F40050216853
:101FF000C860204601F0AAF82068006920F49040EB
:10200000216808612068406920F02A002168486141
:102010002068C06840F400502168C86000206064F7
:10202000202084F8410084F842000020606300BF53
:10203000C8E7000010B586B00446142101A8FEF7D9
:102040008AF9BC492068884279D100BF00200090FD
:10205000B948006840F01000B749086008460068B9
:1020600000F01000009000BF00BF00BF00200090F3
:10207000B1481438006840F00100AF4914390860D5
:102080000846006800F00100009000BF00BF4FF458
:10209000C060019002200290002003900320049071
:1020A0000720059001A9A548FEF7E4FCA448A5492E
:1020B00008604FF0006048600021A2488160C16064
:1020C0004FF4806101610021416181614FF48071B1
:1020D000C161002101624162FEF7F8FB08B1FEF721
:1020E00065FA00BF9748E063846300BF9448783086
:1020F000954908604FF00060486040219248816037
:102100000021C1604FF48061016100214161816162
:10211000C16101624162FEF7D9FB08B1FEF746FAE0
:1021200000BF8948A063846300BF002211462520B8
:10213000FEF736FE2520FEF71FFEF8E0FFE7834995
:10214000206888427BD100BF002000907A48001FA1
:10215000006840F480207849091F0860084600683C
:1021600000F48020009000BF00BF00BF002000905E
:1021700071481438006840F002006F491439086053
:102180000846006800F00200009000BF00BF4FF456
:1021900040600190022002900020039003200490F0
:1021A0000720059001A96A48FEF764FC69486A495E
:1021B00008604FF000604860002167488160C1609E
:1021C0004FF4806101610021416181614FF48071B0
:1021D000C161002101624162FEF778FB08B1FEF7A0
:1021E000E5F900BF5C48E063846300BF59483030C4
:1021F0005A4908604FF000604860402157488160AC
:102200000021C1604FF48061016100214161816161
:10221000C16101624162FEF759FB08B1FEF7C6F9E0
:1022200000BF4E48A063846300BF002211462720F0
:10223000FEF7B6FD2720FEF79FFD78E0FFE748494F
:102240002068884273D100BF002000903A4800689F
:1022500040F02000384908600846006800F020007F
:10226000009000BF00BF00BF00200090324814382B
:10227000006840F0040030491439086008460068DE
:1022800000F00400009000BF00BFC02001900220B9
:10229000029000200390032004900820059001A9DB
:1022A0003048FEF7E7FB264818382F4908608005BC
:1022B000486000212C488160C1604FF48061016159
:1022C000002141618161C16101624162FEF7FEFA54
:1022D00008B1FEF76BF900BF2348E063846300BFD9
:1022E00017486030214908604FF020604860402165
:1022F0001E4881600021C1604FF4806101610021AE
:1023000041618161C16101624162FEF7DFFA08B19A
:10231000FEF74CF900BF1548A063846300BF00229C
:1023200011464720FEF73CFD4720FEF725FD06B08D
:1023300010BD00000010014044380240000002407F
:102340004064024050020020B002002000480040DB
:1023500000040240286002401003002070030020A7
:102360000014014000080240D00300203004002087
:1023700070477047F7B50446154694F84100202889
:102380003ED1019800B10DB90120FEBD0198206237
:10239000A584E58400206064212084F84100194868
:1023A000A16BC8631848A16B08641848A16BC86486
:1023B0000020A16B086501AE23681A1D31682B4609
:1023C000A06BFEF7F9FA30B110206064202084F889
:1023D00041000120D9E76FF040002168086000BF8C
:1023E00000BF2168143151E8001F41F080002168CE
:1023F000143141E80002002AF3D100BF0020C4E7F5
:102400000220C2E7392F0008912F0008112E000882
:102410007047704700BFFEE710B58AB02448007EC1
:1024200008B90AB010BD07AA08A909A802F098FCCB
:1024300004461F484476C4B99DED090A80ED000AA0
:102440009DED080A80ED010A9DED070A80ED020A64
:10245000C069401C1649C8619DED090A154880ED08
:102460000E0A9DED070A80ED0F0A04AA05A906A829
:1024700000F04AF848B9BDF918000D498881BDF946
:102480001400C881BDF91000088201AA02A903A89E
:1024900000F012F848B9BDF90C0005494882BDF9B1
:1024A00008008882BDF90400C88200BFB9E70000B7
:1024B000F0100020201100202DE9FC4104460D46BB
:1024C00016466B4606223B21682000F071F907464C
:1024D000BFB99DF801009DF8001040EA012000B24C
:1024E00020809DF803009DF8021040EA012000B210
:1024F00028809DF805009DF8041040EA012000B2F4
:1025000030803846BDE8FC812DE9FC4104460D468B
:1025100016466B4606224321682000F049F907461B
:10252000BFB99DF801009DF8001040EA012000B2FB
:1025300020809DF803009DF8021040EA012000B2BF
:1025400028809DF805009DF8041040EA012000B2A3
:1025500030803846BDE8FC8110B5002210210F48BC
:10256000FEF78AFB0D48006820F4406040F480606C
:102570000A490860002220210848FEF77DFB00F090
:102580000FF8012210210548FEF776FB00F008F84D
:10259000002210210148FEF76FFB10BD0008024029
:1025A0000A2000BF011EA0F10100FBD1704700000E
:1025B00010B5002210210F48FEF75EFB0D480068A1
:1025C00020F4406040F480600A4908600122202124
:1025D0000848FEF751FBFFF7E3FF012210210548F1
:1025E000FEF74AFBFFF7DCFF002210210148FEF74F
:1025F00043FB10BD0008024070B505460024154895
:10260000006820F4406013490860002618E00022AA
:1026100010211048FEF730FBFFF7C2FF0122102106
:102620000C48FEF729FB6006040E20210948FEF73E
:102630001BFB08B1601CC4B2FFF7B2FF701CC6B22E
:10264000082EE4DB15B9FFF7B3FF01E0FFF784FFC5
:10265000204670BD0008024070B504461848006866
:1026600020F4406040F48060154908600022102189
:102670001348FEF701FB00251EE0E00928B1012206
:1026800020210F48FEF7F8FA04E0002220210C4830
:10269000FEF7F2FA6006040E012210210848FEF748
:1026A000EBFAFFF77DFF002210210548FEF7E4FA60
:1026B000FFF776FF681CC5B2082DDEDB70BD000099
:1026C0000008024010B51048006820F4406040F453
:1026D00080600D490860012220210B48FEF7CCFAEA
:1026E000012210210848FEF7C7FAFFF759FF002220
:1026F00020210548FEF7C0FAFFF752FF0022102103
:102700000148FEF7B9FA10BD0008024010B51048A4
:10271000006820F4406040F480600D4908600022A9
:1027200010210B48FEF7A8FA002220210848FEF7E6
:10273000A3FAFFF735FF012210210548FEF79CFAA6
:10274000012220210248FEF797FAFFF729FF10BD6A
:102750000008024010B500241448006820F44060CE
:1027600012490860012220211048FEF785FAFFF780
:1027700017FF012210210D48FEF77EFAFFF710FF28
:1027800007E0601CC4B2FA2C03DDFFF7BFFF012095
:1027900010BD20210548FEF767FA0028F1D100227C
:1027A00010210248FEF768FA0020F1E70008024015
:1027B0002DE9F04106460F4614461D46FFF782FFFD
:1027C000002141EA4601C8B2FFF746FFFFF7C2FF0A
:1027D00020B1FFF79BFF0120BDE8F0813846FFF7ED
:1027E0003BFFFFF7B7FFFFF76DFF012101EB46014C
:1027F000C8B2FFF731FFFFF7ADFF0DE0012C04D1A8
:102800000020FFF7F9FE287003E00120FFF7F4FE37
:102810002870601EC4B26D1C002CEFD1FFF776FF4C
:102820000020D9E72DE9F04105460E4617469846A7
:10283000FFF748FF002141EA4501C8B2FFF70CFF4E
:10284000FFF788FF20B1FFF761FF0120BDE8F081AD
:102850003046FFF701FFFFF77DFF00240CE018F87A
:102860000400FFF7F9FEFFF775FF18B1FFF74EFF01
:102870000120EBE7601CC4B2BC42F0DBFFF746FF6F
:102880000020E3E708B500BF00200090264800685C
:1028900040F48000244908600846006800F4800085
:1028A000009000BF00BF00BF0020009008460068F5
:1028B00040F4001008600846006800F40010009022
:1028C00000BF00BF002211460C20FEF769FA0C2061
:1028D000FEF752FA002211460E20FEF761FA0E2092
:1028E000FEF74AFA002211463920FEF759FA39203C
:1028F000FEF742FA002211463A20FEF751FA3A203A
:10290000FEF73AFA002211464520FEF749FA452023
:10291000FEF732FA002211464620FEF741FA462021
:10292000FEF72AFA08BD00003038024000B587B033
:10293000142102A8FDF70FFD00BF002001903348CD
:10294000006840F00400314908600846006800F063
:102950000400019000BF00BF00BF002001900846A6
:10296000006840F0800008600846006800F08000C1
:10297000019000BF00BF00BF002001900846006822
:1029800040F0010008600846006800F00100019076
:1029900000BF00BF00BF002001900846006840F063
:1029A000020008600846006800F00200019000BFC5
:1029B00000BF002246F210011548FEF75DF9012222
:1029C00020211348FEF758F946F23000029001200A
:1029D000039000200490059002A90D48FEF74AF8E4
:1029E00008200290002003900120049002A90848CA
:1029F000FEF740F810200290002003900120049080
:102A000002A90448FEF736F807B000BD303802408E
:102A100000080240000002401CB500200090019018
:102A20000E480F4908605320486000210C4881601F
:102A300040F2E731C16000218161FEF707FE08B175
:102A4000FDF7B4FD00200090019069460448FEF7B0
:102A5000A3FD08B1FDF7AAFD1CBD00000014004055
:102A6000E800002000B587B0002003900490059096
:102A7000069001900290154815490860A72048600B
:102A800000211348816042F20F71C1600021016191
:102A9000416180218161FEF7D9FD08B1FDF786FD16
:102AA0004FF48050039003A90948FEF7B3FE08B124
:102AB000FDF77CFD00200190029001A90448FEF77B
:102AC0006BFD08B1FDF772FD07B000BD00040140C9
:102AD0003001002010B50B480B4908604FF461200D
:102AE0004860002108488160C16001610C2141619A
:102AF00000218161C161FFF761FA08B1FDF756FD60
:102B000010BD0000001001407801002010B50B48F6
:102B10000B4908604FF4612048600021084881603B
:102B2000C16001610C21416100218161C161FFF738
:102B300045FA08B1FDF73AFD10BD0000004800401D
:102B4000C001002010B50B480B4908604FF4E1307C
:102B50004860002108488160C16001610C21416129
:102B600000218161C161FFF729FA08B1FDF71EFD5F
:102B700010BD0000001401400802002000BFFEE765
:102B800000BFFEE77047704710B5FEF781F810BD33
:102B900000B593B0302107A8FDF7DDFB142102A892
:102BA000FDF7D9FB00BF002001902448006840F0E9
:102BB0008050224908600846006800F0805001906B
:102BC00000BF00BF00BF002001901D48006840F416
:102BD00080401B4908600846006800F4804001906E
:102BE00000BF00BF012007900004089002200D9054
:102BF00041050E9104210F91A821109102211191FC
:102C00000421129107A8FEF75DFA08B1FDF7CEFC8A
:102C10000F20029002200390002004904FF4A05057
:102C200005904FF480500690052102A8FEF70AF99E
:102C300008B1FDF7BBFC13B000BD000040380240F6
:102C4000007000400348006840F4700001490860CB
:102C50007047000088ED00E010B50248FEF761FE05
:102C600010BD0000E800002010B50248FEF759FE34
:102C700010BD00003001002010B50248FEF751FEE3
:102C800010BD00003001002010B50248FEF749FEDB
:102C900010BD00003001002010B50248FEF741FED3
:102CA00010BD00003001002010B502682B4B984287
:102CB0000ED0B0F1804F0BD0294B984208D0294B51
:102CC000984205D0284B984202D0284B984203D115
:102CD00022F070024B681A43204B984220D0B0F18A
:102CE000804F1DD01E4B98421AD01E4B984217D0D1
:102CF0001D4B984214D01D4B984211D01C4B98424A
:102D00000ED01C4B98420BD01B4B984208D01B4B4B
:102D1000984205D01A4B984202D01A4B984203D1E0
:102D200022F44072CB681A4322F080034C6943EAD4
:102D300004028B68C3620B688362084B984202D01E
:102D40000A4B984201D10B690363036843F0040303
:102D5000036001234361026010BD000000000140D8
:102D60000004004000080040000C00400004014046
:102D7000004001400044014000480140001800406C
:102D8000001C00400020004030B50C46816821F452
:102D90007F4142EA032525432943816030BD0A462D
:102DA000816821F0700142F0070319438160704788
:102DB00030B50B461446026A056A25F00105056226
:102DC000816921F0F00141EA041122F00A021A435C
:102DD0008161026230BD30B50B461446026A056A55
:102DE00025F010050562816921F4704141EA043142
:102DF00022F0A00242EA03128161026230BD70B586
:102E00000446A56B0020E8852846FEF74DFF70BDFF
:102E100070B506460025B46B20684069C0F3C01544
:102E200094F84100212805D125B10020E0842046F6
:102E300000F0FBF820684069C0F3801594F8420068
:102E4000222805D125B10020E085204600F0A7F812
:102E5000606C40F0100060642046FEF725FF70BDF6
:102E600070B50546AC6B2868006800F480700028D7
:102E700042D1E08500BF00BF21680C3151E8001F3E
:102E800021F4807021680C3141E80002002AF3D15E
:102E900000BF00BF00BF2168143151E8001F21F0BE
:102EA00001002168143141E80002002AF3D100BF7B
:102EB00000BF00BF2168143151E8001F21F040001D
:102EC0002168143141E80002002AF3D100BF20201C
:102ED00084F84200206B01280ED100BF00BF21689A
:102EE0000C3151E8001F21F0100021680C3141E83D
:102EF0000002002AF3D100BF00206063206B01288C
:102F000004D1A18D2046FEF72FFE02E02046FFF7F8
:102F10002FFA70BD70B50546AC6B01206063206B65
:102F2000012805D1A08D41082046FEF71DFE02E0D4
:102F30002046FFF71EFA70BD70B50546AC6B2868D9
:102F4000006800F48070F8B90020E08400BF00BF82
:102F50002168143151E8001F21F0800021681431EC
:102F600041E80002002AF3D100BF00BF00BF216882
:102F70000C3151E8001F41F0400021680C3141E85C
:102F80000002002AF3D102E02046FFF741FA70BDAB
:102F900070B50446A56B2846FFF73BFA70BD00BF2D
:102FA00000BF02680C3252E8002F22F490710268D0
:102FB0000C3242E80013002BF3D100BF00BF00BF6A
:102FC0000268143252E8002F22F001010268143224
:102FD00042E80013002BF3D100BF016B01290ED191
:102FE00000BF00BF02680C3252E8002F22F010012F
:102FF00002680C3242E80013002BF3D100BF2021FD
:1030000080F8421000210163704710B50446206823
:10301000C06820F040002168C860202084F841008A
:103020002046FFF7F5F9002010BD00BF00BF026881
:103030000C3252E8002F22F0C00102680C3242E844
:103040000013002BF3D100BF202180F841107047FE
:10305000F8B504460025002694F84200222873D1D2
:10306000A068B0F5805F0BD1206948B9A66A2068D6
:103070004068C0F308003080A06A801CA06214E0A1
:10308000A56AA068B0F5805F03D0A06828B9206960
:1030900018B920684068287004E02068406800F093
:1030A0007F002870A06A401CA062E08D401E80B2A4
:1030B000E085002846D12068C06820F02000216803
:1030C000C8602068C06820F480702168C8602068EB
:1030D000406920F0010021684861202084F8420006
:1030E00000206063206B012826D10020206300BFF0
:1030F00000BF21680C3151E8001F21F01000216849
:103100000C3141E80002002AF3D100BF20680068BA
:1031100000F0100010280AD100BF002000902068A5
:103120000068009020684068009000BF00BFA18D3B
:103130002046FEF719FD02E02046FFF719F90020AE
:10314000F8BD01E00020FBE70220F9E72DE9F84F88
:1031500004462068006920F44050E1680843216873
:1031600008612169A068084361690843E16908436F
:1031700000902068C06849F20C61884300990843B8
:103180002168C8602068406920F44070A169084344
:103190002168486176492068884203D075492068D3
:1031A000884203D1FDF726FF814602E0FDF712FFBA
:1031B0008146E069B0F5004F6CD102206168A0FB48
:1031C000015003461920A9FB007001462A463846E3
:1031D000FDF74AF86421B0FBF1F04FEA001A022033
:1031E0006168A0FB01510B461920A9FB00712A461A
:1031F0003846FDF739F8834602206168A0FB01508C
:1032000003461920A9FB00712A463846FDF72CF821
:103210006421B0FBF1F000EBC00101EB0010ABEB5F
:103220008000322101EBC0006421B0FBF1F000F01E
:10323000F8000AEB400A02206168A0FB0150034637
:103240001920A9FB007001462A463846FDF70CF804
:10325000834602206168A0FB015003461920A9FBA8
:1032600000712A463846FCF7FFFF6421B0FBF1F0FD
:1032700000EBC00101EB0010ABEB8000322101EB51
:10328000C0006421B0FBF1F000F007005044216859
:1032900088606AE004206168A0FB015003461920A1
:1032A000A9FB007001462A463846FCF7DDFF82463E
:1032B00004206168A0FB015003461920A9FB00709F
:1032C00001462A463846FCF7CFFF6421B0FBF1F0F7
:1032D00000EBC00101EB0010AAEB8000322101EBF2
:1032E00000106421B0FBF1F000F0F00A04206168E6
:1032F000A0FB017003461920A9FB00513A4628465D
:10330000FCF7B2FF6421B0FBF1F00AEB001A0420D5
:103310006168A0FB01510B461920A9FB00712A46E8
:103320003846FCF7A1FF834604206168A0FB0150EA
:1033300003461920A9FB007001462A463846FCF7CF
:1033400093FF6421B0FBF1F000EBC00101EB001032
:10335000ABEB8000322101EB00106421B0FBF1F0F7
:1033600000F00F00504421688860BDE8F88F00002D
:10337000001001400014014077B581B004461546A5
:103380000298A062A58500206064222084F8420093
:103390002C48E16BC8632C48E16B08642B48E16B57
:1033A000C8640020E16B086502AE32682368191D0D
:1033B0002B46E06BFDF700FB38B110206064202045
:1033C00084F84200012004B070BD00BF00200090CE
:1033D00020680068009020684068009000BF00BF2F
:1033E000206970B100BF00BF21680C3151E8001F97
:1033F00041F4807021680C3141E80002002AF3D1C9
:1034000000BF00BF00BF2168143151E8001F41F028
:1034100001002168143141E80002002AF3D100BF05
:1034200000BF00BF2168143151E8001F41F0400087
:103430002168143141E80002002AF3D100BF0020C6
:10344000C1E70000612E0008152F0008112E0008AA
:10345000014691F84100212828D18868B0F5805FA5
:103460000BD1086948B90A6A1088C0F308000B68D4
:103470005860086A801C086205E00B6A581C0862E4
:1034800018780B685860C88C401E80B2C88458B940
:103490000868C06820F080000B68D8600868C068C1
:1034A00040F040000B68D860002070470220FCE725
:1034B00010B50248FEF7FEFB10BD000078010020A9
:1034C00010B50248FEF7F6FB10BD0000C001002059
:1034D00010B50248FEF7EEFB10BD00000802002008
:1034E00000BFFEE710B50348FEF740F90248FEF7BB
:1034F0003DF910BDE8000020300100202DE9FC411D
:1035000005460E46002428E0285DAA2823D1601C29
:10351000285C55281FD10027022004E02118695C8F
:103520003944CFB2401C0A28F8DB04F10A00285CB9
:10353000B8420FD1A01C284400680190A01D284467
:1035400000680090DDED000A9DED010A01F07CF8B5
:10355000BDE8FC8100BF601C84B204F10B00B042E6
:10356000D2DD00BFF4E7000001460848814201D1E6
:10357000074870470748814201D10748F9E70748E3
:10358000814201D10648F4E70020F2E778010020EB
:1035900050090020C001002070090020080200200E
:1035A000900900202DE9FF5F2DED020B2DED028B20
:1035B000884691461E46B0EE408AF0EE608ADDE90C
:1035C00012AB0498FFF7D0FF0446B2EE040A28EECF
:1035D000000AB5EEC00AF1EE10FA04DDB2EE040AFC
:1035E00028EE000A03E0B2EE040A28EE400ABCEE20
:1035F000C00A10EE100A87B2B2EE040A28EE800A62
:10360000B5EEC00AF1EE10FA04DDB2EE040A28EEBF
:10361000800A03E0B2EE040A28EEC00ABCEEC00A3B
:1036200010EE105A24B9BDEC028B06B0BDE8F09F35
:1036300084F80080FD20607084F802903012E07001
:1036400026714FEA2A20607184F806A03812E071D2
:103650002772280E6072280CA072280AE072257367
:1036600084F80DB01498A0736B20E07310222146EB
:10367000049800F002F800BFD5E770B504460D4687
:10368000164604B105B970BD94F84100202800D059
:10369000F9E7324629462046FEF76CFE00BFF2E706
:1036A0002DE9F0472DED028B81460F4690461D46D1
:1036B000B0EE408ADDF828A04846FFF755FF0446E3
:1036C000B2EE040A28EE000AB5EEC00AF1EE10FAD6
:1036D00004DDB2EE040A28EE000A03E0B2EE040AAA
:1036E00028EE400ABCEEC00A10EE100A86B21CB9E1
:1036F000BDEC028BBDE8F0872770F620607084F87F
:1037000002802812E070257130126071A67184F871
:1037100007A06B202072092221464846FFF7ADFF23
:1037200000BFE5E708B500BF002100910168096806
:10373000009101684968009100BF00BF00BF0021EF
:10374000009101680968009101684968009100BF13
:1037500000BF00BF00210091016809680091016865
:103760004968009100BF00BF00BF002100910168BF
:103770000968009101684968009100BF00BF00BF5F
:103780000021009101680968009101684968009171
:1037900000BF00BF08BD2DE9F04180460D4616462A
:1037A000002423E00027601C285C352802D036283E
:1037B00004D101E0062704E0082702E0601C84B27F
:1037C00014E000BFE019B04201DDBDE8F081E0196E
:1037D000401E285C6B2806D12919404600F00CF8E1
:1037E000E01984B201E0601C84B200BFA01CB042AA
:1037F000D8DD00BFE9E7000070B504460D46084873
:103800000068A04203D10649284600F0F7F80548B1
:103810000068A04203D10349284600F0EFF870BDCC
:10382000200000204800002010B50446606C1949B3
:1038300008602046FFF776FF2046FEF7D3F91649C9
:103840002068884209D115480068401C1349086067
:103850001349144800F052F81AE0134920688842CE
:1038600009D112480068401C1049086010491148ED
:1038700000F044F80CE010492068884208D10F4855
:103880000068401C0D4908600D490E4800F036F8EC
:1038900010BD00001C00002000100140100000209E
:1038A000900400207801002000480040140000200F
:1038B000D0040020C00100200014014018000020A6
:1038C000100500200802002010B50649064800F047
:1038D00015F80649064800F011F80649064800F0B8
:1038E0000DF810BD9004002078010020D0040020C5
:1038F000C0010020100500200802002070B5044619
:103900000D46402229462046FEF7F5F838B9E06B0F
:103910000068006820F00800E16B0968086070BD6D
:10392000F0B52DED028B83B00446206808B932480B
:103930002060208A10B94FF47A702082607910BB21
:1039400094ED020AB5EEC00AF1EE10FA01DA012098
:1039500000E000200546D4ED020AB0EE600A2046E1
:1039600000F0C8F8B0EE408A204600F0F9F80646AC
:10397000002000902179B0EE480A33462A4620689C
:10398000FFF78EFE34E094ED030AB5EEC00AF1EEC7
:1039900010FA01DA012000E000200546D4ED020A09
:1039A000B0EE600A204600F0A5F8B0EE408AD4EDF3
:1039B000030AB0EE600A204600F0E4F8F0EE408A18
:1039C000204600F0CDF80646204600F0C9F807462C
:1039D00000200121CDE9006102902179F0EE680A12
:1039E000B0EE480A3B462A462068FFF7DBFD00BFE1
:1039F00003B0BDEC028BF0BD7801002070B52DED59
:103A0000028B04460D4620782979884265D160787A
:103A1000352802D036285ED130E060796B282CD171
:103A2000A078012803D1FF202D49087002E0012071
:103A30002B4908702B48B4F803100180008801F06E
:103A40004EFD00EE100AB8EE400ADFED270A20EE28
:103A5000200AF1EE080A20EE208A284600F088F8B5
:103A6000C8EE000A1E4890F9000000EE100AB8EEF9
:103A7000C00A20EE800A85ED050A2DE0E0796B286A
:103A800028D1A078012803D1FF201849087002E04E
:103A90000120164908701648D4F803100160006828
:103AA00001F025FD00EE100AB8EE400ADFED0E0A27
:103AB00020EE208A284600F05BF8C8EE000A0B488A
:103AC00090F9000000EE100AB8EEC00A20EE800A5D
:103AD00085ED060A00E000BF00BFBDEC028B70BDA3
:103AE0007000002072000020CDCCCC3D740000207E
:103AF0007800002010B52DED028B0446B0EE408A10
:103B0000204600F035F8B5EEC08AF1EE10FA02DD7D
:103B1000F0EE480A01E0F1EE480A60EE200AB1EE4C
:103B2000081A80EE810ABDEC028B10BD7CB50446FC
:103B30000D4620798DF80000F3208DF80100AB20B0
:103B40008DF802008DF8035000208DF804006B20E2
:103B50008DF80500062269462068FEF70BFC7CBD47
:103B60000146088A10B94FF47A707047088AFCE75A
:103B7000416A11B9B7EE000A704790ED090AB8EE34
:103B8000400AF9E710B52DED028B0446B0EE408AED
:103B90002046FFF7EDFFB5EEC08AF1EE10FA02DD28
:103BA000F0EE480A01E0F1EE480A20EE200ABDECF2
:103BB000028B10BD0022427180ED020A11B94FF450
:103BC0007A7200E00A4602827047000070B505462E
:103BD0000E4600242A792146641C0F4842541122C3
:103BE0002146641C425418222146641C4254362249
:103BF0002146641C425432122146641C4254214620
:103C0000641C46546B222146641C425422460249DD
:103C10002868FEF7AFFB70BD7C00002003B401985C
:103C20004100009850EAC12018BF04204A0D18BF77
:103C300040F0010040F2FF72B2EB515F08BF40F06C
:103C40000200012808BF052002B070470248006842
:103C5000C0F30220704700000CED00E010B5002812
:103C600004DB0A07130E054A135406E00A07140E74
:103C7000034A00F00F031B1FD45410BD00E400E002
:103C800018ED00E00000000070B5C1482DED020BFA
:103C90002DED0E8B82B0119D25F000449FEDBEDB13
:103CA0009FEDBFEB84423EDBA4F140511098A1F19F
:103CB0007F6108430FD0BC48844202DC28D11098B1
:103CC00030B39DED100B02B0BDEC0E8B02B0BDE821
:103CD000704000F07BBC9DED100B53EC1D2B51ECA4
:103CE000100B01F023FF9DED100B41EC180B53EC72
:103CF0001E2B51EC100B01F019FF53EC182B01F0A7
:103D000091FC41EC100B02B0BDEC0E8B02B070BD0B
:103D10000120FCF74FFB02B0BDEC0E8B02B0BDE8FA
:103D2000704000F069BCA1489FEDA18B844256DA37
:103D30009DED100BB4F1795F0ADA51EC100BFFF72F
:103D40006DFF042808BF00F067FC9DED100BDAE75B
:103D500053EC102B51EC100B01F0E8FE41EC190B69
:103D600095480621B0EE490AF0EE690A784400F061
:103D7000B1FB53EC192B51EC100B01F0D7FE41ECC9
:103D80001A0B8E48B0EE490AF0EE690A0421784415
:103D900000F0A0FB53EC192B51EC100B01F0C6FE08
:103DA00053EC182B01F03EFC41EC100B51EC1A0BBC
:103DB00053EC102B01F0EAFCCDE900019DED000B66
:103DC00053EC102B9DED100B51EC100B01F0AEFEDF
:103DD0009DED101B53EC112B01F024FCD2E09DED66
:103DE000100B51EC100B00F003FE53EC182B01F0FC
:103DF0009BFF9FED730BCDE9000153EC102B9DED64
:103E0000000B51EC100B01F091FE41EC190B6E48C8
:103E10000621B0EE490AF0EE690A784400F05AFB38
:103E200053EC192B51EC100B01F080FE41EC1B0BF5
:103E30006648B0EE490AF0EE690A0421784400F0C1
:103E400049FB53EC192B51EC100B01F06FFE53ECB6
:103E5000182B01F0E7FB41EC1C0B51EC190B01F0A6
:103E600007FB41EC180B5A489FED5BABA04222DCEC
:103E700053EC1C2B51EC1B0B01F088FCCDE900012D
:103E80009DED000B51EC180B53EC102B01F04EFE86
:103E900053EC182B01F0C6FB53EC1A2B01F046FE35
:103EA00053EC1D2B02F018F853EC1E2B01F03CFFD5
:103EB00041EC100B5FE08DED008B002000909DED3C
:103EC000000B51EC180B53EC102B01F0ABFB9DEDEC
:103ED000000B41EC1E0B53EC102B51EC100B01F0BE
:103EE00025FE53EC192B01F01FFF53EC1E2B01F0A4
:103EF0004DFC41EC190B53EC1C2B51EC1B0B01F04E
:103F000045FC41EC1B0B53EC1A2B51EC190B01F047
:103F10000DFE53EC1D2B01F007FF41EC190B53EC88
:103F20001A2B51EC180B01F001FE53EC1B2B01F086
:103F3000FDFD53EC192B01F0CFFF9DED000B41EC83
:103F4000180B53EC1A2B51EC100B01F0EFFD9FED09
:103F5000249B53EC192B01F0E7FE41EC100B51ECC4
:103F6000180B53EC102B01F0B7FF53EC192B01F099
:103F7000DBFE41EC100B002D3FF7C5AE51EC100BF2
:103F800001F012FB41EC100BBDE600000000000048
:103F90000000F03F00000000075C143326A6913CAF
:103FA000182D4454FB21F93F0000F07F0000E03F52
:103FB000000000000000F03FB8240000C62400000C
:103FC000000000000000E03F0A2400001824000068
:103FD0003333EF3F0000000000000000000000400D
:103FE000182D4454FB21E93F70B59B482DED020B81
:103FF0002DED068B079D25F00044A04218DC974864
:10400000844202DC0AD1069840B19DED060BBDEC5E
:10401000068B02B0BDE8704000F0D8BA002DCCBFCE
:104020009FED8F0B9FED900BBDEC068B02B070BD2A
:104030008F48A04215DD8F48A042D8BF4FF0FF3413
:1040400058DD9DED060B51EC100BFFF7E7FD042842
:1040500008BF00F0E1FA9DED060BBDEC068B02B047
:1040600070BD9DED060B51EC100B00F0C1FCCDE9CD
:10407000060181489FED828BA0423CDD8248A04230
:104080001FDD00249FED82AB9DED060B53EC1A2B38
:1040900051EC100B01F0C6FA9DED060B41EC190B2B
:1040A00053EC1A2B51EC100B01F040FD53EC182B84
:1040B00001F012FF53EC192B01F068FBCDE906016A
:1040C00049E09DED060B012453EC182B51EC100B2D
:1040D00001F0A8FA9DED060B41EC190B53EC182BDF
:1040E00051EC100B01F0F8FE53EC192B01F04EFBD4
:1040F000CDE906012FE06848A0421FDD02249FEDB4
:10410000689B9DED060B53EC192B51EC100B01F045
:104110000DFD53EC182B01F085FA9DED060B41ECDB
:10412000180B53EC192B51EC100B01F0D5FE53EC8E
:10413000182B01F02BFBCDE906010CE09DED060BE1
:10414000032453EC102B9FED580B51EC100B01F096
:104150001DFBCDE906019DED060B53EC102B51EC38
:10416000100B01F0E3FC41EC180B53EC182B01F0A1
:10417000DDFC41EC190B4E480621B0EE490AF0EE89
:10418000690A784400F0A6F953EC182B51EC100B97
:1041900001F0CCFC41EC180B4648B0EE490AF0EEB9
:1041A000690A0521784400F095F953EC192B51EC7C
:1041B000100B01F0BBFC41EC100B51EC180B53EC55
:1041C000102B002C0EDA01F02DFA9DED061B53EC9E
:1041D000112B01F0ABFC9DED061B53EC112B01F0F4
:1041E000A3FD35E001F01EFA9DED061B53EC112BEB
:1041F00001F09CFC41EC100B2F48784400EBC4000C
:1042000090ED001B51EC100B53EC112B01F064FEF0
:104210009DED061B53EC112B01F05EFE41EC100BE3
:104220002648784400EBC40090ED001B51EC100BC5
:1042300053EC112B01F078FD41EC100B002DA2BFC7
:10424000BDEC068B02B070BD51EC100B01F0ACF967
:1042500041EC100B01E70000000010440000F07F6B
:10426000182D4454FB21F93F182D4454FB21F9BF6C
:104270000000DC3F0000203E0000F33F0000000093
:10428000000000000000F03F0000E63F00000000DA
:10429000000000000000004000800340000000001B
:1042A000000000000000F83F000000000000F0BF28
:1042B0005A210000102100009A2000005220000026
:1042C00070B56F4E2DED040B2DED048B82B0DDF833
:1042D00024C0DDE907235C422CF000411C4341EA85
:1042E000D474069D22F00040B44205D86C422C43A1
:1042F00040EAD474B4420BD99DED081B9DED060B2A
:1043000002B0BDEC048B04B0BDE8704000F068B9A9
:10431000ACF14054A4F17F641C430BD0022404EAA6
:10432000AC7444EAD27405439FED578B9FED582B34
:1043300007D015E09DED060B51EC100B00F07CF959
:1043400042E0002C11BF012C9DED060B02B0BDEC2C
:10435000048B04BF04B070BD022C38D0032C3BD0BA
:104360000B439FED4D1B9FED4E0B0AD0B14218D170
:10437000B04209D121F0804120F08040099107909E
:104380000FE0002A15DA10E0474B7B44002C08BFF1
:1043900093ED000B0DD0012C10D0022C17D0032C64
:1043A0001AD0B0421DD1002A03DAB0EE410AF0EE75
:1043B000610A02B0BDEC048B04B070BD93ED000B3C
:1043C00051EC100B01F0F0F841EC100BF1E7B0EEFE
:1043D000480AF0EE680AECE7B0EE420AF0EE620A34
:1043E000E7E7401A00159FED329B3C28C8BF8DEDD2
:1043F000000B17DCBCF1000FBCBF10F13C0F8DEDC2
:10440000009B0FDB9DED080B53EC102B9DED060B75
:1044100051EC100B01F0BAF900F0EAFA00F00CF9D7
:10442000CDE90001B4B1012C10D0022C9FED220B7C
:1044300053EC102B9DED000B51EC100B19D001F03B
:104440004BFD53EC182B01F047FDBDE7019880F0C0
:10445000004001909DED000B53EC192B51EC100B1B
:1044600001F0ECFA04BF0220FBF7A4FF9DED000B66
:104470009FE701F031FD53EC182B01F055FCA3E749
:104480000000F07F00000000182D4454FB2109407B
:10449000182D4454FB2109C0182D4454FB21F9BFA9
:1044A000182D4454FB21F93F821F0000000000003A
:1044B0000000000000000000075C143326A6A13CA9
:1044C0002DED020B019820F0004001909DED000BB6
:1044D00002B0704770B504462DED028B4D1E00EB07
:1044E000C500B0EE408AF0EE608A90ED000B35F02A
:1044F000060017D053EC182B51EC100B01F016FBF3
:1045000041EC100B6D1E04EBC50090ED001B51EC4F
:10451000100B53EC112B01F085F841EC100B35F02A
:104520000600E7D1022D36D0042D1CD0062D1CBF6D
:10453000BDEC028B70BD53EC182B51EC100B01F04D
:10454000F5FA94ED0A1B53EC112B01F06BF853ECC8
:10455000182B01F0EBFA94ED081B53EC112B01F032
:1045600061F841EC100B53EC182B51EC100B01F0DF
:10457000DDFA94ED061B53EC112B01F053F853ECCC
:10458000182B01F0D3FA94ED040B53EC102B01F02F
:1045900049F841EC100B53EC182B51EC100B01F0C7
:1045A000C5FA94ED021B53EC112B01F03BF853ECD0
:1045B000182B01F0BBFA94ED001B53EC112B01F00A
:1045C00031F8BDEC028B41EC100B70BD10B553EC13
:1045D000102B51EC100B01F025F841EC100B10BD25
:1045E00010B553EC112B51EC100B01F01BF841EC02
:1045F000100B10BD000000009FED050B10B553EC33
:10460000102B51EC100B01F0C1F841EC100B10BD58
:1046100000000000000000009FED050B10B553ECFA
:10462000102B51EC100B01F081FA41EC100B10BD76
:10463000000000000000001010B541EC100BFFF767
:10464000D3FC51EC100B10BD1D4880ED0C0AC0EDE1
:104650000D0AB5EEC00AF1EE10FA04D1F5EEC00A6B
:10466000F1EE10FA02D0002016490860B0EEC01A30
:10467000F2EE041AB4EEE11AF1EE10FA1CD2B0EE2A
:10468000E01AF2EE041AB4EEE11AF1EE10FA13D2C7
:10469000B5EEC00AF1EE10FA04D1F5EEC00AF1EE63
:1046A00010FA09D008480078FF2808DA0648007890
:1046B000401C0549087002E000200349087070475B
:1046C00020110020C8000020CC00002010B52DEDE6
:1046D000028B0446F0EE408AA068401CA060E16AAC
:1046E00088420BD30020A06094ED0C0AF0EE400A43
:1046F000B0EE680A04F1A00000F082FD94ED3A8A61
:104700000548018AB0EE480AFFF754FA0248FFF75D
:1047100007F9BDEC028B10BD4800002010B52DED4F
:10472000028B0446F0EE408A6068401C6060A16A1B
:1047300088420BD30020606094ED0D0AF0EE400A31
:10474000B0EE680A04F1540000F05AFD94ED278A97
:10475000184890ED060ADFED180AB4EEE00AF1EE13
:1047600010FA04DDB5EEC08AF1EE10FA0EDC114845
:1047700090ED060AFBEE0E0AB4EEE00AF1EE10FA36
:104780000BD2B5EEC08AF1EE10FA06D200219FEDF1
:104790000B0A0848FFF70EFA06E04FF47A71B0EE04
:1047A000480A0448FFF706FA0248FFF7B9F8BDECDB
:1047B000028B10BD200000200000484200000000D5
:1047C0002DE9F0410446E07800F0C006E07800F002
:1047D0003F05607800F0010098B1EF102846E91716
:1047E00005EB5171C910A5EBC101491C01F0FF088F
:1047F0000B48006820B10A48414602683846904795
:1048000000BF607800F0080030B10548406818B17A
:10481000B011034A516888470020BDE8F0810000CC
:10482000101100202DE9F04F8DB00746884615463F
:104830009946DDE9166B0024002030806B49887BA7
:104840005A4605A900F098FB18B1601E0DB0BDE8EE
:10485000F08F6648807A00F01400002867D09DF839
:10486000140000069DF8151040EA01409DF816104E
:1048700040EA01209DF81710084328609DF81800B1
:1048800000069DF8191040EA01409DF81A1040EA10
:1048900001209DF81B10084368609DF81C0000066D
:1048A0009DF81D1040EA01409DF81E1040EA0120CD
:1048B0009DF81F100843A8609DF8200000069DF891
:1048C000211040EA01409DF8221040EA01209DF8A5
:1048D00023100843E86004F11000C4B228680014F3
:1048E0000190686800140290A86800140390E868BA
:1048F0000014049001984043029901FB01000399C0
:1049000001FB0100049901FB010ABAF1706F02DB9F
:10491000BAF1885F05DD00F08FFB00203080401E7B
:1049200094E7B6F9000040F48070308000BF2F4853
:10493000807A00F0400020B305A9601C085C095D86
:1049400040EA012000B2A8F8000005A9E01C095CBB
:1049500005AAA01C105C41EA002000B2A8F80200E1
:1049600005A9601D095C201D105C41EA002000B211
:10497000A8F80400A01DC4B2B6F9000040F0080079
:1049800030801A48408900F4C07008B305A9601C43
:10499000085C095D40EA012000B2388005A9E01CEE
:1049A000095C05AAA01C105C41EA002000B27880D6
:1049B00005A9601D095C201D105C41EA002000B2C1
:1049C000B880A01DC4B2B6F9000040F0700030807D
:1049D0000648807A00F0030018B105A90819FFF70E
:1049E000EFFE484600F0B4F900202FE71011002038
:1049F00082B0CDE9000121F0004001909DED000B57
:104A000002B051EC100B704700B500F0A7FC00F0AD
:104A1000E3FC00BD10B56748007805287ED2DFE8CA
:104A200000F00323405D98006348018A9FED630A0C
:104A3000FFF7C0F86048FEF773FF6148018A9FEDF9
:104A40005F0AFFF7B7F85E48FEF76AFF00224FF4EF
:104A500080415C48FCF710F900205B4908805B4905
:104A600008805B490870A2E05A4890ED0C0AB5EE48
:104A7000C00AF1EE10FA03D003204E49087096E008
:104A80004FF4FA619FED540A4B48FFF793F84A48F8
:104A9000FEF746FF00224FF480414A48FCF7ECF84D
:104AA00085E04C4890ED0C0AB5EEC00AF1EE10FA24
:104AB00003D003203F49087079E04FF4FA619FED7D
:104AC000470A3D48FFF776F83B48FEF729FF0022EA
:104AD0004FF480413B48FCF7CFF868E09FED370A80
:104AE0003C48FFF7F3FD9FED350A3A48FFF716FE05
:104AF00000F010FD98B10020344908803848007853
:104B000006280FDB3248007860B9012291032D4856
:104B1000FCF7B2F801202E49087003E046E00020BF
:104B2000294908802A480078012811D12248018AA1
:104B30009FED220AFFF73EF81F48FEF7F1FE2048DE
:104B4000018A9FED1E0AFFF735F81D48FEF7E8FEC3
:104B50002DE09FED1A0A1F48FFF7B8FD9FED170AD9
:104B60001C48FFF7DBFD00F0D5FCD8B10020174949
:104B7000088015480088962804DA13480088401CED
:104B8000114908801048008896280EDB10480078EC
:104B900058B9012291030B48FCF76EF801200C492B
:104BA000087002E000200849088000E000BF00BF54
:104BB00010BD000058120020480000200000000036
:104BC0002000002000080240CE000020D00000207D
:104BD000D2000020201100200000A0C20000A0424E
:104BE000CC00002007480849086010208880012078
:104BF000887106480649086008208880012088716D
:104C00007047000000000240D4000020000802406D
:104C1000DC00002070B50446A1882068FCF724F869
:104C200005460026A079012801D105B90126A57104
:104C3000304670BDFCF738F8FDF7AAFFFDF776FEA9
:104C4000FDF720FEFDF746FFFDF760FFFDF77AFF59
:104C5000FDF7E2FEFDF706FFFEF736FE6420FBF7E8
:104C6000F5FEFFF7D1FE4FF4FA70FBF7EFFE0121DE
:104C70001148FEF75BFF0520FBF7E8FE01210F4816
:104C8000FEF754FF0520FBF7E1FE05210A48FEF779
:104C90009DFF3220FBF7DAFE05210848FEF796FF5C
:104CA0003220FBF7D3FEFFF79DFF00F009F8FEF777
:104CB00019FC00BFFEE70000200000204800002093
:104CC000002002490870487070470000E40000208E
:104CD00010B502461C48407868BB012A0AD11A4B1D
:104CE0001B78581CC31700EB93739B10A0EB830336
:104CF000154C2370012925D10120134B58701846FB
:104D0000007830B1012808D002280AD0032810D139
:104D10000BE000200D4B18700CE001200B4B1870BD
:104D200008E00220094B187004E00420074B1870BB
:104D300000E000BF06E0012904D10020024B5870BA
:104D4000024B187010BD0000E40000205812002033
:104D500010B5044614B1FBF795FF206010BD0000AC
:104D600070B52DED0C8B8EB004460D461646B7EE91
:104D7000000AF0EE409A9FED7C0AB0EE408A9FED6B
:104D80007A0AF0EE408A9FED780AB0EE409A07A8C2
:104D900008A90DAB03AACDE9001009A90BA8FFF7DC
:104DA00041FD20B101200EB0BDEC0C8B70BDBDF8F3
:104DB000200000F4807000287ED09DED030AB8EE3C
:104DC000C00ADFED6A0A80EE201AF0EE419A9DEDEE
:104DD000040AB8EEC00ADFED650A80EE201AB0EED4
:104DE000418A9DED050AB8EEC00ADFED600A80EE4B
:104DF000201AF0EE418A9DED060AB8EEC00ADFEDFA
:104E00005B0A80EE201AB0EE419AB8EE000A28EE56
:104E1000000A20EE090AF0EE000A69EEA00A00EE90
:104E2000A80A10EE101A084601F040F941EC1C0BDC
:104E3000B0EE4C0AF0EE6C0AFEF726FFB0EE40BA78
:104E4000F0EE60BA9FED4A0B53EC102B51EC1B0BAC
:104E500000F06CFE41EC1A0B00F0B2FB2060B8EEE3
:104E6000000A28EE000A20EE080AF0EE000A68EEBA
:104E7000A00A00EEE80AF7EE000A30EE200A10EE73
:104E8000101A084601F012F941EC1C0BB0EE000AB2
:104E900028EE800A20EE090AF0EE000A69EEA00A68
:104EA00000EE880A10EE101A084601F0FFF841ECF7
:104EB0001D0BB0EE4C1A00E052E0F0EE6C1AB0EEB2
:104EC0004D0AF0EE6D0AFFF7FBF9B0EE40BAF0EED6
:104ED00060BA9FED270B53EC102B51EC1B0B00F02D
:104EE00025FE41EC1A0B00F06BFB286029EEA90AA5
:104EF00008EE080A08EEE80A09EE490A10EE101A50
:104F0000084601F0D3F841EC1C0B28EE280A09EE04
:104F1000890AF0EE000A20EE200A10EE101A084668
:104F200001F0C4F841EC1D0BB0EE4C1AF0EE6C1A17
:104F3000B0EE4D0AF0EE6D0AFFF7C2F9B0EE40BADE
:104F4000F0EE60BA9FED0A0B53EC102B51EC1B0BEB
:104F500000F0ECFD41EC1A0B00F032FB306001E098
:104F6000022020E700201EE7000000000000804E25
:104F70006666666666A64C40F8B504460F46164659
:104F80002C4890F8240010B94FF0FF30F8BD2948A4
:104F9000807A10B94FF0FF30F8E7264A1268117B8B
:104FA000244A526810786B460222FDF701FC10B1CA
:104FB0004FF0FF30EAE79DF801009DF8001040EA4D
:104FC0000125A54203DA00203070401EDEE71948B3
:104FD00040684088B5EB600F17DD164A1268D17C37
:104FE000144A526810786B460122FDF7E1FB10B1BC
:104FF0004FF0FF30CAE79DF8000000F0100020B12C
:1050000000F01AF86FF00100C0E7E2B2094B1B682C
:10501000597B084B5B6818783B46FDF7C9FB10B11C
:105020004FF0FF30B2E795FBF4F0401E30700020E7
:10503000ACE700008400002008B57048807A10B901
:105040004FF0FF3008BD002000906C4A1268517C80
:105050006A4A526810786B460122FDF7E3FB10B1F3
:105060004FF0FF30EEE7654A12685179634A5268A3
:1050700010786B460122FDF7D5FB10B14FF0FF30E1
:10508000E0E75E4A126811795C4A526810786B4614
:105090000122FDF7C7FB10B14FF0FF30D2E75748B0
:1050A00090F82400002853D00C200090534A126836
:1050B0001179524A526810786B460122FDF7B2FB13
:1050C00010B14FF0FF30BDE73220FBF7BFFCC0202E
:1050D00000904A48807A00F0010020B19DF800005D
:1050E00040F020000090454A12681179434A526806
:1050F00010786B460122FDF795FB10B14FF0FF30A1
:10510000A0E73E48407C10B10220009001E0002062
:1051100000903A4A1268517C384A526810786B46BF
:105120000122FDF77FFB10B14FF0FF308AE700202E
:105130000090324A12685179304A526810786B46B2
:105140000122FDF76FFB002855D04FF0FF3079E7C3
:1051500004200090294A12681179284A5268107870
:105160006B460122FDF75EFB10B14FF0FF3069E79F
:105170002248807C20B92148807A00F0010010B9D3
:105180004020009001E0602000901C4A12681179D4
:105190001A4A526810786B460122FDF743FB10B1A2
:1051A0004FF0FF304EE73220FBF750FC1348407CB5
:1051B00010B10120009001E0002000900F4A126819
:1051C000517C0E4A526810786B460122FDF72AFB8B
:1051D00010B14FF0FF3035E7084A12685179074A9D
:1051E00052681078054B10330122FDF71BFB10B1FC
:1051F0004FF0FF3026E7002024E700008400002065
:10520000B0EE401A80ED0C1AC0ED0D0A90ED0C0ABC
:10521000D0ED0D1A30EE610A80ED0E0A90ED000A15
:10522000D0ED0E1A20EE210A80ED050A90ED0E0A4F
:10523000D0ED0F1A30EE610AD0ED021A20EE210AED
:1052400080ED080A90ED0E0A80ED0F0A90ED110A2C
:10525000D0ED051A30EE610AB5EEC00AF1EE10FA93
:1052600006DD90ED110AD0ED051A30EE610A01E07D
:105270009FED390A80ED090A90ED100AD0ED051A6C
:1052800030EE610AB5EEC00AF1EE10FA06D290EDEA
:10529000100AD0ED051A30EE610A01E09FED2E0AEA
:1052A00080ED0A0A017F21B19FED2B0A80ED060AED
:1052B00028E090ED010AD0ED0E1A60EE211A90ED73
:1052C0000B2A90ED060A01EE820A80ED060A90EDA7
:1052D000060AD0ED091AB4EEE10AF1EE10FA04DD87
:1052E00090ED090A80ED060A0CE090ED060AD0ED7B
:1052F0000A1AB4EEE10AF1EE10FA03D290ED0A0AAE
:1053000080ED060A90ED050AD0ED061A30EE210A6E
:10531000D0ED081A30EE210A80ED120A90ED120A43
:10532000D0ED111AB4EEE10AF1EE10FA04DD90EDC1
:10533000110A80ED120A0CE090ED120AD0ED101A5D
:10534000B4EEE10AF1EE10FA03D290ED100A80ED0E
:10535000120A90ED120A7047000000009FED1C0A2F
:105360001C4880ED030A90ED030AF7EE000A80EE78
:10537000801A80ED041A9FED160A80ED050A90ED63
:10538000050AF7EE000A80EE801A80ED061A90ED0D
:10539000030AD0ED060A20EE200ABCEEC00A80ED1A
:1053A0000A0A9FED0B0A80ED070A90ED070AF7EE57
:1053B000000A80EE801A80ED081A90ED030AD0ED05
:1053C000080A20EE200ABCEEC00A80ED0B0A7047E6
:1053D00000007A4420110020B7EE000A224880ED38
:1053E000150A9FED220A80ED160A9FED200A80ED36
:1053F000170AB2EE0E0A80ED260ABAEE0E0A80ED0A
:10540000250AB2EE040A80ED1E0ABAEE040A80ED07
:105410001F0A90ED060A80ED200A002180F8701026
:10542000B7EE000A80ED280A9FED100A80ED290AE8
:105430009FED0E0A80ED2A0AB2EE0E0A80ED390ABF
:10544000BAEE0E0A80ED380AB2EE040A80ED310A97
:10545000BAEE040A80ED320A90ED080A80ED330AB4
:1054600080F8BC10704700002011002000000000F0
:1054700000B52DED048B83B041EC190B00F060FCFE
:1054800041EC180B18EE100A18EE901A8DED008BF7
:10549000002818BF0120084320F00040C0F17F60C1
:1054A00000F1E040C00F14D019EE101A19EE900A66
:1054B0008DED009B002918BF0121084320F000401A
:1054C000C0F17F6000F1E040C00F04BF0120FAF797
:1054D00071FF51EC180B03B0BDEC048B00BD01460D
:1054E0004FF47F4000EA012040EA11207047014656
:1054F0004FF47F4202EA112242EA11604FF47F0228
:1055000002EA012210434FF07F4202EA0162104397
:105510007047000010B52DED048B204890ED0C0A6B
:1055200010EE101A084600F0C1FD41EC190BB0EE68
:10553000490AF0EE690AFEF7C3FFB0EE408AF0EECA
:10554000608A9FED170B53EC102B51EC180B00F0F9
:10555000B1FA20D2114890ED0D0A10EE101A08464B
:1055600000F0A4FD41EC190BB0EE490AF0EE690A17
:10557000FEF7A6FFB0EE408AF0EE608A9FED080BC2
:1055800053EC102B51EC180B00F094FA03D20120CD
:10559000BDEC048B10BD0020FAE7000020110020B4
:1055A000000000000000144081F00041704780F0CE
:1055B0000040704721F00041704720F000407047E4
:1055C00021F00042A2F16052B2F5801F01F00043C9
:1055D00028BFD2F17F6C0BD95FEA001C43EAC202FC
:1055E00042EB507018BF704728BF20F00100704791
:1055F000B2F5801FBCBF184670474FEA410C1CF53E
:10560000001F02D2084600F0C7BD70B500F038FB9D
:1056100000000089FFF7F6BF4FF00040A0F58000C2
:105620007047000010B591EA030F48BF83F00043B4
:1056300000F15A84841A71EB030C05D2121943EB62
:105640000C03001B61EB0C01DFF824E14FEA11545D
:10565000A4EB135C1EEA430F18BF9EEA445F73D0AD
:1056600023EA0E03DCF1200E21EA045143F48013F7
:1056700032D322FA0CFE10EB0E0023FA0CFE41EBA3
:105680000E01CCF1200E03FA0EFE10EB0E0051F1CC
:105690000001B1F5801FCCF1200E32D201EB045194
:1056A00012FA0EF2BDE8104058BF7047401C38BFD8
:1056B0005FEA420218BF7047002814BF20F00100C3
:1056C00041F100014FEA410313F5001F38BF704755
:1056D000A1F1C04100F022BB012A43EB0302ACF16F
:1056E000200CDCF11F0E32BF4FF0000E23FA0CF33A
:1056F00010EB030041EB0451B4EB115FD0D0A1EBF0
:10570000045101F5801149085FEA300001EB0451B2
:105710000ED350F1000038BF12FA0EFE08D1BDE8DA
:105720001040C9E7401C38BF5FEA4202CAD1C3E754
:10573000BDE810404FEA410313F5001F38BF704722
:10574000A1F1C04100F0EABA9EEA445F08D011EA34
:105750005E0FBDE8104004BF01F00041002070471B
:10576000BDE8104070B500F08BFA00BF64FBBE3E90
:105770000000E0FF491058BFC1F140415B1058BF25
:10578000C3F140438B42EFF3008070472DE9C041E5
:1057900030B4DFF8A0C23CEA111418BF3CEA13147D
:1057A00000F0EC8081EA03051CEA111444EAD57488
:1057B00018BF1CEA131500F0C780A4EB05044FF0D6
:1057C000004545EAC12145EAC32341EA505143EA75
:1057D000525304F17F74994204F500344FEAC0201B
:1057E0004FEAC22208BF904200F09C804FEA136546
:1057F0000FF24016765D4FEA134506FB05F7C7F139
:10580000807706FB07F74FEAD737A7FB0368764296
:10581000C8F58038A7FB06CE38BFA8F1010807FB02
:1058200008E64FF0000EA6FB028CE6FB03CEDCF18F
:10583000000CCEF1004E38BFAEF1010EA6FB0C58A5
:105840004FF000074FF00005E6FB0E87A1FB08C6EE
:10585000A0FB07CE16EB0E0645F10005E1FB076540
:1058600015F1E04E7EBFA4F580345FEA46066D4137
:1058700016F1800745F100054FEA17274FEA066643
:1058800047EA0567A6F1DE46B6F1805F4FEA1525C7
:105890001FD9384624F0010C05EBC471BCF1FE6F32
:1058A00001EB0C1102D8F0BCBDE8008124425CBFC2
:1058B00001F5801E9EEAC47F02D4F0BCBDE80081E1
:1058C000244238D4F0BCA1F1C041BDE8004100F051
:1058D00025BA4FEAD22242EA43524FEAD323A7FB2A
:1058E00002864FEAD02040EA415007FB03661EEAD9
:1058F0000E0F4FEAD12105FB026658BFA6EB0056FA
:10590000B6EB00564FEA520E4EEAC37E18EB0E0E6F
:1059100056EB530EBDD518EB02085E417F1C55F1C6
:105920000005B6E74FF480154FF000074FF0000672
:105930004FF00008ADE7F0BC4FF0000001F1C041AE
:1059400001F00041BDE8008111EA0C1F0CEA1315BB
:1059500000D00CE013EA0C1F00F025804FF000008F
:10596000F0BC81EA030101F00041BDE80081F0BC18
:10597000BDE8004181EA030100F0D0B9F0BCBDE808
:10598000004170B500F07CF9097EFC3E00F007B8DC
:1059900081EA03014FF0000001F00041704781EA05
:1059A000030100F0BBB9F0BCBDE800414FF00000BE
:1059B00021497047FFFDFBF9F7F5F4F2F0EEEDEB4E
:1059C000E9E8E6E4E3E1E0DEDDDBDAD8D7D5D4D3FD
:1059D000D1D0CFCDCCCBCAC8C7C6C5C4C2C1C0BF49
:1059E000BEBDBCBBBAB9B8B7B6B5B4B3B2B1B0AF4F
:1059F000AEADACABAAA9A8A8A7A6A5A4A3A3A2A133
:105A0000A09F9F9E9D9C9C9B9A99999897979695ED
:105A100095949393929191908F8F8E8E8D8C8C8B89
:105A20008B8A898988888787868585848483838211
:105A3000828181800000FF070000F87F51EA030C9B
:105A400017D41CF5801F58BFBCF5801F00F10680DD
:105A5000994218BF704708BF9042704707D711F5A9
:105A6000801F58BF13F5801F19D49942704789428F
:105A700070471CF5801F08D5BCF5801FF7D58B42F9
:105A800018BF704708BF824270474FF4001C1CEBE0
:105A9000410F38BF1CEB430F01D28B42704770B5EA
:105AA00000F0EEF8922449004FF000514FF080537F
:105AB000FFF760BE51EA030C17D41CF5801F58BFD6
:105AC000BCF5801F00F10680994218BF704708BFDF
:105AD0009042704707D711F5801F58BF13F5801FFC
