:020000040800F2
:10000000C017002029020008A52300084921000884
:10001000A12300081F040008512C00080000000064
:10002000000000000000000000000000AB230008FA
:100030008F05000800000000A9230008AD23000878
:10004000430200084302000843020008430200087C
:10005000430200084302000843020008430200086C
:10006000430200084302000843020008430200085C
:100070002504000843020008350400084302000874
:10008000430200084302000843020008430200083C
:10009000430200084302000843020008430200082C
:1000A000430200084302000843020008430200081C
:1000B000430200084302000843020008430200080C
:1000C00043020008430200084302000843020008FC
:1000D00043020008212C000843020008312C0008CC
:1000E00043020008430200084302000843020008DC
:1000F00043020008430200084302000843020008CC
:1001000043020008430200084302000843020008BB
:100110004302000843020008430200087D2400084F
:100120004302000845040008550400084302000883
:100130004302000800000000000000004302000825
:10014000430200084302000843020008430200087B
:10015000430200086504000875040008412C0008EB
:10016000430200084302000843020008430200085B
:1001700043020008430200080000000000000000E5
:10018000430200084302000800F002F800F03CF8C7
:100190000AA090E8000C82448344AAF10107DA45E2
:1001A00001D100F031F8AFF2090EBAE80F0013F0F8
:1001B000010F18BFFB1A43F0010318475434000025
:1001C00074340000103A24BF78C878C1FAD85207B6
:1001D00024BF30C830C144BF04680C6070470000C1
:1001E0000023002400250026103A28BF78C1FBD840
:1001F000520728BF30C148BF0B6070471FB503F0DE
:10020000F1F91FBD10B510BD00F0CFF81146FFF792
:10021000F5FF03F077F800F0EDF803B4FFF7F2FF15
:1002200003BC00F0F5F80000094880470948004782
:10023000FEE7FEE7FEE7FEE7FEE7FEE7FEE7FEE796
:10024000FEE7FEE704480549054A064B70470000F3
:100250006924000889010008C0110020C01700208F
:10026000C0130020C013002053EA020C00F0698084
:100270002DE9F04B4FF00006002B1FBFB3FA83F5BA
:1002800003FA05F424FA05F65E4012BF1643B2FAEB
:1002900082F502FA05F4C5F120051EBF22FA05FC1D
:1002A00044EA0C04203556EA044C4FEA144418BFC3
:1002B000641C4FF000084FF00009904271EB030CF2
:1002C00039D3002919BFB1FA81F701FA07F6B0FA5C
:1002D00080F700FA07F6C7F120071EBF20FA07FCD7
:1002E00046EA0C062037B6FBF4FCA7EB0507103FE7
:1002F00007F01F0BCBF120060CFA0BFB2CFA06F6CD
:1003000044BFB3460026202FA4BF5E464FF0000B2B
:100310005BEA060C08BF4FF0010B19EB0B09ABFBB6
:10032000027C48EB0608C01B06FB02CC0BFB03CC8F
:1003300071EB0C01C1E70B46024641464846BDE859
:10034000F08B13B54FF000004FF00001AFF30080C9
:10035000BDE81C4070474FF0000200B513469446BC
:100360009646203922BFA0E80C50A0E80C50B1F10D
:100370002001BFF4F7AF090728BFA0E80C5048BF21
:100380000CC05DF804EB890028BF40F8042B08BFBF
:10039000704748BF20F8022B11F0804F18BF00F8BB
:1003A000012B7047704770477047754600F02CF876
:1003B000AE4605006946534620F00700854618B052
:1003C00020B5FFF73FFFBDE820404FF000064FF09B
:1003D00000074FF000084FF0000B21F00701AC467A
:1003E000ACE8C009ACE8C009ACE8C009ACE8C00999
:1003F0008D46704710B50446AFF300802046BDE837
:100400001040FFF70ABF000000487047601100204D
:1004100001491820ABBEFEE726000200704700BF6E
:10042000FEE7000010B5024800F020F910BD000002
:100430004C02002010B5024800F018F910BD000071
:10044000AC02002010B5024800F010F910BD000009
:100450000C03002010B5024800F008F910BD0000A0
:100460008C01002010B5024800F000F910BD00001A
:100470006C03002010B5024800F0F8F810BD000031
:10048000EC0100200146087810381823B0FBF3F285
:100490000848805CC865032A05D908686FF309001D
:1004A000001D886503E008686FF309008865886DA2
:1004B00070470000EE350008014600208A6A8B690B
:1004C000CBB932B1012A0DD0022A03D0032A10D1B0
:1004D0000EE000BFCB6A03F08073B3F1807F00D1E0
:1004E000012007E0CB6AB3F1C07F00D1012001E019
:1004F00000E000BF34E08B69B3F5005F1AD132B180
:10050000012A07D0022A03D0032A11D10AE000BF32
:1005100001200EE0CB6A03F08073B3F1807F00D13D
:10052000012006E0CB6AB3F1C07F00D1012000E0DA
:1005300000BF15E032B1012A05D0022A04D0032AF7
:100540000CD103E000BF00BF012008E0CB6A03F03C
:100550008073B3F1807F00D1012000E000BF00BFB5
:10056000704730B50468246824F4802405682C6042
:10057000046863608468402C04D10468A260046845
:10058000E16003E00468A1600468E26030BD704788
:1005900072B600BFFEE770B50446A56D00F05AFBC9
:1005A000064694F83500022808D08020606500BF18
:1005B000002084F8340000BF012070BD206800686E
:1005C00020F01600216808602068406920F0800053
:1005D00021684861206C08B9A06C28B120680068C7
:1005E00020F00800216808602068006820F0010001
:1005F0002168086010E000F02DFB801B05280BD956
:1006000020206065032084F8350000BF002084F8B6
:10061000340000BF0320D0E72068006800F001002C
:100620000028E8D194F85C103F208840A8600120A1
:1006300084F8350000BF002084F8340000BF00BFFC
:10064000BBE7014691F83500022803D080204865B9
:1006500001207047052081F835000868006820F007
:1006600001000A6810600020F3E70000F8B50446B6
:10067000002000908C4800684FF41651B0FBF1F751
:10068000A56D2E6894F85C1008208840304098B121
:100690002068006800F0040070B12068006820F055
:1006A00004002168086094F85C1008208840A86065
:1006B000606D40F00100606594F85C100120884096
:1006C000304068B12068406900F0800040B194F883
:1006D0005C1001208840A860606D40F002006065F9
:1006E00094F85C1004208840304068B120680068AD
:1006F00000F0020040B194F85C1004208840A8602B
:10070000606D40F00400606594F85C101020884033
:10071000304078B32068006800F0080050B394F8C7
:100720005C1010208840A8602068006800F48020D9
:1007300080B12068006800F4002028B9206CC8B19E
:100740002046216C884715E0A06C98B12046A16C2A
:1007500088470FE02068006800F4807028B920689E
:10076000006820F0080021680860206C10B1204665
:10077000216C884794F85C10202088403040002885
:1007800065D02068006800F0100000285FD094F861
:100790005C1020208840A86094F83500052828D1F6
:1007A0002068006820F01600216808602068406911
:1007B00020F0800021684861206C08B9A06C28B145
:1007C0002068006820F008002168086094F85C1038
:1007D0003F208840A860012084F8350000BF002039
:1007E00084F8340000BF206D10B12046216D884789
:1007F000F8BD2068006800F4802080B1206800689F
:1008000000F4002028B9606C10B12046616C884764
:100810001DE0E06BD8B12046E16B884717E0206807
:10082000006800F4807068B92068006820F010004B
:1008300021680860012084F8350000BF002084F89A
:10084000340000BFE06B10B12046E16B8847606D5B
:1008500038B3606D00F00100F0B1052084F8350078
:100860002068006820F001002168086000BF00983F
:10087000401C0090B84200D905E02068006800F0F4
:1008800001000028F3D100BF012084F8350000BF2B
:10089000002084F8340000BFE06C10B12046E16C09
:1008A000884700BFA4E700000C0000202DE9F041BC
:1008B0000446002500F0CEF9074614B90120BDE832
:1008C000F081606A00B100BF022084F8350000BFEB
:1008D000002084F8340000BF2068006820F0010088
:1008E000216808600AE000F0B5F9C01B052805D9A9
:1008F00020206065032084F83500E0E72068006868
:1009000000F001000028EED120680568214805406C
:10091000D4E901010843E16808432169084361699A
:100920000843A1690843E1690843216A0843054374
:10093000606A042803D1D4E90B0108430543206809
:1009400005602068456925F00705606A0543606A0F
:1009500004280DD1A06A0543E06A48B12046FFF79C
:10096000ABFD28B140206065012084F83500A6E782
:10097000206845612046FFF785FD064694F85C1027
:100980003F208840B06000206065012084F8350079
:10099000002094E73F8010F02DE9F04704460D4613
:1009A00016461F464FF00008D4F8589000BF94F840
:1009B0003400012802D10220BDE8F087012084F82C
:1009C000340000BF94F83500012825D1022084F8B6
:1009D0003500002060653B46324629462046FFF739
:1009E000C0FD94F85C103F208840C9F808002068DA
:1009F000006840F0160021680860206C28B120686B
:100A0000006840F00800216808602068006840F035
:100A100001002168086006E000BF002084F834006F
:100A200000BF4FF002084046C6E7000070B504461C
:100A300000F010F906462546681C10B104480078FD
:100A4000054400BF00F006F9801BA842FAD370BD30
:100A500008000020F8B502460B46002500240020BF
:100A60000021D6E0012606FA01F51E6806EA050413
:100A7000AC4274D11E7906F00306012E04D01E7913
:100A800006F00306022E13D190684F000326BE40E5
:100A9000B0434F00DE68BE4030439060506801268E
:100AA0008E40B0431E79C6F300168E40304350602E
:100AB0001E7906F00306032E09D0D0684F000326E6
:100AC000BE40B0434F009E68BE403043D0601E79A8
:100AD00006F00306022E13D1CF0802F1200656F8C5
:100AE00027004E07F70E0F26BE40B0434F07FF0EFC
:100AF0001E69BE403043CF0802F1200646F82700A9
:100B000010684F000326BE40B0431E7906F003066E
:100B10004F00BE40304310605E6806F44036002E41
:100B200076D000BF002600963C4E366846F48046DC
:100B30003A4F3E603E46366806F48046009600BF57
:100B400000BF374E8F0856F827008E07370F0F2645
:100B5000BE40B043334EB24202D1002624E057E0FB
:100B6000314EB24201D101261EE0304EB24201D1D7
:100B7000022619E02E4EB24201D1032614E02D4E7A
:100B8000B24201D104260FE02B4EB24201D105261C
:100B90000AE02A4EB24201D1062605E0284EB242B2
:100BA00001D1072600E008268F073F0FBE403043E3
:100BB0001B4E8F0846F82700224E3068A0435E681F
:100BC00006F4801606B120431E4E3060361D306894
:100BD000A0435E6806F4001606B12043194E361D88
:100BE0003060184E361F3068A0435E6806F4003649
:100BF00006B12043134E361F3060361F3068A043C5
:100C00005E6806F4803606B120430E4E083E306022
:100C1000491C1029FFF426AFF8BD000044380240FB
:100C20000838014000000240000402400008024071
:100C3000000C024000100240001402400018024064
:100C4000001C0240083C01400AB1816101E00B0434
:100C50008361704701480068704700000000002071
:100C6000034800680349097808440149086070474F
:100C7000000000200800002010B50D48006840F476
:100C800000700B4908600846006840F48060086006
:100C90000846006840F480700860032000F0A6F861
:100CA0000F2000F007F800F02BF8002010BD000026
:100CB000003C024070B504460E4800784FF47A714B
:100CC000B1FBF0F00C490968B1FBF0F5284600F0E3
:100CD0002FFC08B1012070BD102C07D20022214644
:100CE000501E00F045F80548046001E00120F2E7DD
:100CF0000020F0E7080000200C0000200400002085
:100D000008B500BF002000900E48006840F4804005
:100D10000C4908600846006800F48040009000BF5D
:100D200000BF00BF00200090081F006840F0805006
:100D3000091F08600846006800F08050009000BF5E
:100D400000BF08BD443802400146084600280DDBBC
:100D500000BF00BF00F01F0301229A4043099B001F
:100D600003F1E023C3F8002100BF00BF00BF7047BC
:100D70002DE9F05F80460D461646002702F036FA50
:100D8000074639462A46334601F00700C0F1070AF4
:100D9000BAF1040F02D94FF0040A01E0C0F1070ACA
:100DA000D14600F1040ABAF1070F02D24FF0000A4F
:100DB00001E0A0F1030AD4464FF0010A0AFA09FA49
:100DC000AAF1010A0AEA020A0AFA0CFA4FF0010B28
:100DD0000BFA0CFBABF1010B0BEA030B4AEA0B0419
:100DE0002146404602F00AFABDE8F09F00BF00F03D
:100DF0000702064B19684FF6FF031940044B0B43DB
:100E000043EA0221014B196000BF70470CED00E07E
:100E10000000FA0570B504460D460CB9012070BDFE
:100E20005848006800F00700A84209D255490D70E3
:100E30000846006800F00700A84201D00120EEE754
:100E4000207800F0020002281DD1207800F0040074
:100E5000042805D14C48006840F4E0504A49086035
:100E6000207800F00800082805D14748006840F4C1
:100E70006040454908604448006820F0F000A168DF
:100E8000084341490860207800F00100A8B3606879
:100E9000012807D13C4808380068C0F34040B8B981
:100EA0000120BCE76068022802D06068032807D1EF
:100EB000354808380068C0F3406048B90120AEE703
:100EC000314808380068C0F3400008B90120A6E79F
:100ED0002D48006820F00300616808432A49086033
:100EE000FFF7B8FE064609E0FFF7B4FE801B41F2AB
:100EF0008831884202D9032091E707E02248006840
:100F000000F00C006168B0EB810FEDD11D48006866
:100F100000F00700A84209D91A490D700846006878
:100F200000F00700A84201D0012078E7207800F007
:100F30000400042807D11448006820F4E050E16858
:100F4000084311490860207800F00800082808D1FB
:100F50000D48006820F46040216940EAC1000A4958
:100F6000086000F03FF808490968C1F30311074A17
:100F7000515CC8400649086006480068FFF79AFEC1
:100F800000204CE7003C024008380240F6350008DB
:100F90000C00002004000020014800687047000099
:100FA0000C00002000B5FFF7F7FF04490968C1F302
:100FB0008221034A515CC84000BD0000083802404D
:100FC0000636000800B5FFF7E7FF04490968C1F3DA
:100FD0004231034A515CC84000BD0000083802405D
:100FE000063600082DE9F047002400250026A1461A
:100FF0002548006800F00C0020B1042805D008281E
:101000003AD105E0DFF8849039E0DFF8849036E0EB
:101010001D48001F006800F03F041B48001F0068C7
:1010200000F4800078B11A481749091F0968C1F314
:101030008811A0FB01700146224600233846FFF7C5
:1010400013F905460EE011480F49091F0968C1F35D
:101050008811A0FB01700146224600233846FFF7A5
:1010600003F905460848001F0068C0F30140401C12
:101070004600B5FBF6F902E0DFF8109000BF00BFB4
:101080004846BDE8F0870000083802400024F4001C
:1010900000127A00F8B504460CB90120F8BD20789A
:1010A00000F00100002874D0F948006800F00C003E
:1010B00004280DD0F648006800F00C00082813D171
:1010C000F348001F006800F48000B0F5800F0BD1DA
:1010D000EF4808380068C0F34040002859D06068E5
:1010E000002856D10120D9E700BF6068B0F5803FE5
:1010F00008D1E7480838006840F48030E4490839EE
:1011000008601EE06068B0F5A02F0DD1E0480838F7
:10111000006840F48020DE4908390860084600680D
:1011200040F4803008600CE0D9480838006820F4AA
:101130008030D749083908600846006820F48020CC
:10114000086000BF606890B1FFF784FD054606E0C7
:10115000FFF780FD401B642801D903209EE7CC489F
:1011600008380068C0F340400028F1D011E0FFF7D4
:1011700071FD054606E0FFF76DFD401B642801D9AF
:1011800003208BE7C24808380068C0F340400028BD
:10119000F1D1207800F0020002285FD1BC4800683D
:1011A00000F00C0058B1BA48006800F00C000828A4
:1011B0001CD1B748001F006800F48000B0B9B448E3
:1011C00008380068C0F3400020B1E068012801D071
:1011D000012063E7AE480838006820F0F800216974
:1011E00040EAC100AA490839086037E0E06800B366
:1011F0000120A8490860FFF72DFD054606E0FFF72E
:1012000029FD401B022801D9032047E7A0480838E0
:101210000068C0F340000028F1D09D4808380068FD
:1012200020F0F800216940EAC100994908390860B6
:1012300014E0002097490860FFF70CFD054606E022
:10124000FFF708FD401B022801D9032026E790483C
:1012500008380068C0F340000028F1D1207800F081
:10126000080008282CD16069A8B101208A490860CB
:10127000FFF7F0FC054606E0FFF7ECFC401B0228F8
:1012800001D903200AE782486C300068C0F34000AF
:101290000028F1D014E000207F490860FFF7DAFC55
:1012A000054606E0FFF7D6FC401B022801D90320C3
:1012B000F4E677486C300068C0F340000028F1D1B4
:1012C000207800F00400042870D1002770483830DE
:1012D000006800F0805090B900BF002000906C487A
:1012E0003830006840F0805069493831086008465D
:1012F000006800F08050009000BF00BF01276748E1
:10130000006800F48070B0B96448006840F48070F0
:1013100062490860FFF79EFC054606E0FFF79AFC6D
:10132000401B022801D90320B8E65C48006800F49D
:1013300080700028F2D000BFA068012808D154486E
:101340006830006840F001005149683108601DE0D4
:10135000A06805280DD14E486830006840F00400B0
:101360004B49683108600846006840F00100086099
:101370000CE047486830006820F0010044496831BB
:1013800008600846006820F00400086000BFA068FC
:10139000A8B1FFF75FFC054609E0FFF75BFC401BC7
:1013A00041F28831884202D9032077E626E03848A6
:1013B00068300068C0F340000028EED013E0FFF76B
:1013C00049FC054608E0FFF745FC401B41F2883127
:1013D000884201D9032061E62D4868300068C0F3D7
:1013E00040000028EFD1012F07D12948383000688C
:1013F00020F0805026493831086000BFA0690028DD
:1014000045D02348006800F00C0008285DD0A06992
:10141000022845D100201F490866FFF71BFC05463E
:1014200006E0FFF717FC401B022801D9032035E630
:10143000174808380068C0F340600028F1D1D4E9AB
:1014400007010843616A40EA81110122A06AC2EBE8
:10145000500041EA00412C20005D41EA00600C4947
:10146000091F086001200B490866FFF7F3FB0546DA
:1014700006E0FFF7EFFB401B022801D903200DE631
:10148000034808380068C0F340600028F1D049E004
:101490000838024000004742800E4742007000407A
:1014A000002021490866FFF7D5FB054606E0FFF757
:1014B000D1FB401B022801D90320EFE51B4800683F
:1014C000C0F340600028F2D12CE0A069012800D1CF
:1014D000E4E51648001D0668A069012820D006F43E
:1014E0008001E06981421BD106F03F01206A814200
:1014F00016D147F6C0703040616AB0EB811F0FD142
:1015000006F440310122A06AC2EB5000B1EB004F5B
:1015100006D106F070612C20005DB1EB006F01D0A8
:101520000120BBE50020B9E5000047420038024039
:1015300070B504462546681EB0F1807F01D30120B6
:101540000FE0681E4FF0E02148610F214FF0FF309F
:1015500001F054FE00204FF0E0218861072008616F
:10156000002070BD7047704730B502460B4600BF83
:1015700092F83C00012801D1022030BD012082F800
:101580003C0000BF022082F83D00106844681068EB
:10159000816824F070041868044310684460184D92
:1015A0001068A8421BD01068B0F1804F17D0154DBD
:1015B0001068A84213D0144D1068A8420FD0134DE4
:1015C0001068A8420BD0124D1068A84207D0114DE8
:1015D0001068A84203D0104D1068A84205D121F030
:1015E00080015868014310688160012082F83D0045
:1015F00000BF002082F83C0000BF00BFBDE7000034
:10160000000001400004004000080040000C0040C1
:1016100000040140004001400018004010B504469D
:101620000CB9012010BD94F83D0028B9002084F8C1
:101630003C00204600F026F8022084F83D00211DE1
:10164000206800F023FF012084F8460000BF84F8E2
:101650003E0001213F200155402001554120015508
:1016600000BF00BF012084F8420043200155442000
:1016700001554520015500BF012084F83D000020A0
:10168000D0E7000038B504460E492068884217D1DB
:1016900000BF002000900C48006840F020000A497C
:1016A00008600846006800F02000009000BF00BFFE
:1016B000002211463720FFF75BFB3720FFF744FB82
:1016C00038BD00000014004040380240014691F847
:1016D0003D00012801D001207047022081F83D0023
:1016E0000868C06840F001000B68D8601A4B0868B1
:1016F00098421BD00868B0F1804F17D0174B08688C
:10170000984213D0164B086898420FD0154B0868C2
:1017100098420BD0144B0868984207D0134B0868C6
:10172000984203D0124B086898420CD10868806830
:1017300000F00702062A0CD00868006840F001009B
:101740000B68186005E00868006840F001000B684D
:1017500018600020C0E700000000014000040040C5
:1017600000080040000C004000040140004001401F
:1017700000180040704770B504462068C5682068AE
:10178000066906F00200022819D105F002000228BD
:1017900015D1401F216808610120207720688069E9
:1017A00000F0030018B12046FFF7E4FF05E02046F3
:1017B00000F097F8204600F095F80020207706F01A
:1017C0000400042819D105F00400042815D1C043F1
:1017D00021680861022020772068806900F4407049
:1017E00018B12046FFF7C6FF05E0204600F079F863
:1017F000204600F077F80020207706F0080008283F
:1018000019D105F00800082815D1C04321680861E6
:10181000042020772068C06900F0030018B120463A
:10182000FFF7A8FF05E0204600F05BF8204600F037
:1018300059F80020207706F01000102819D105F083
:101840001000102815D1C0432168086108202077B6
:101850002068C06900F4407018B12046FFF78AFF85
:1018600005E0204600F03DF8204600F03BF800205F
:10187000207706F0010048B105F0010030B16FF0AB
:10188000010021680861204600F02EF806F0800073
:10189000802809D105F08000802805D1C043216847
:1018A00008612046FFF75EFE06F04000402809D19F
:1018B00005F04000402805D1C0432168086120465A
:1018C00000F01EF806F02000202809D105F02000C5
:1018D000202805D1C043216808612046FFF743FE58
:1018E00070BD70477047000010B50446034920687A
:1018F000884201D101F0F6FC10BD00000014004048
:101900007047F8B504460D46164694F84200202864
:101910002DD105B10EB90120F8BD012020630020B2
:10192000606332462946204601F0DEF80746206B08
:10193000012819D100BF00200090206800680090A5
:1019400020684068009000BF00BF00BF00BF216852
:101950000C3151E8001F41F0100021680C3141E8C2
:101960000002002AF3D100E001273846D4E7022024
:10197000D2E7000070B504460D461449206888423D
:1019800009D12A461249204601F080FA104911482F
:1019900001F0DEFA19E010492068884209D12A4690
:1019A0000E49204601F072FA0C490D4801F0D0FAB8
:1019B0000BE00C492068884207D129460A4801F00B
:1019C00051F90949094801F0C3FA70BD00100140FE
:1019D000CC030020B4000020004800400C0400208C
:1019E000FC000020001401404C04002044010020B1
:1019F000704700002DE9F84F04462068056820680C
:101A0000C668206847694FF00009CA4605F00F090B
:101A1000B9F1000F0AD105F0200038B106F020001E
:101A200020B1204600F0CBFEBDE8F88FB9F1000FE1
:101A30007CD007F0010018B906F49070002875D02A
:101A400005F0010030B106F4807018B1606C40F010
:101A50000100606405F0040030B107F0010018B126
:101A6000606C40F00200606405F0020030B107F0E5
:101A7000010018B1606C40F00400606405F00800DB
:101A800048B106F0200010B907F0010018B1606CF1
:101A900040F008006064606C002846D005F020002B
:101AA00028B106F0200010B1204600F088FE206822
:101AB0004069C0F3801A606C00F0080010B9BAF1F8
:101AC000000F2DD0204600F021FE2068406900F074
:101AD0004000402820D100BF00BF2168143151E8E8
:101AE000001F21F040002168143141E80002002A63
:101AF000F3D100BFE06B50B17F48E16B0865E06B4C
:101B0000FEF79FFD88B1E06B016D88470DE0204630
:101B1000FFF76EFF09E009E02046FFF769FF04E0E8
:101B20002046FFF765FF002060647DE7206B0128F9
:101B300078D105F01000002874D006F010000028BD
:101B4000FAD000BF00200090206800680090206854
:101B50004068009000BF00BF2068406900F040006E
:101B6000402870D1E06B006840681FFA80F8B8F137
:101B7000000F58D0A08D404555DDA4F82E80E06BB5
:101B8000C069B0F5807F43D000BF00BF21680C3131
:101B900051E8001F21F4807021680C3141E80002F7
:101BA000002AF3D100BF00BF00BF2168143151E803
:101BB000001F21F001002168143141E80002002AD1
:101BC000F3D100BF00BF00BF2168143151E8001FEE
:101BD00021F040002168143141E80002002AF3D1CD
:101BE00000BF202084F842000020206300BF00BF17
:101BF00021680C3151E8001F21F0100021680C31E0
:101C000041E80002002AF3D100BFE06BFEF7C3FCFD
:101C100002206063A08DE28D801A81B22046FFF71A
:101C2000A9FE0EE052E0A08D40450AD1E06BC069EC
:101C3000B0F5807F05D102206063A18D2046FFF7BB
:101C400099FEF1E6FFE7A08DE18D401A1FFA80F8BA
:101C5000E08DD0B3B8F1000F37D000BF00BF2168CE
:101C60000C3151E8001F21F4907021680C3141E8DB
:101C70000002002AF3D100BF00BF00BF2168143169
:101C800051E8001F21F001002168143141E80002F1
:101C9000002AF3D100BF202084F8420000202063F6
:101CA00000BF00BF21680C3151E8001F21F0100077
:101CB00021680C3141E80002002AF3D100BF022064
:101CC000606341462046FFF755FEADE605F0800013
:101CD00030B106F0800018B1204600F071FFA3E695
:101CE00005F0400030B106F0400018B1204600F089
:101CF00043FD99E600BF97E66D25000810B5044640
:101D00000CB9012010BDA06900B100E000BF94F83B
:101D1000410028B9002084F84000204600F02AF84D
:101D2000242084F841002068C06820F40050216815
:101D3000C860204600F0C2FD2068006920F4904091
:101D4000216808612068406920F02A002168486104
:101D50002068C06840F400502168C86000206064BA
:101D6000202084F8410084F842000020606300BF16
:101D7000C8E7000010B586B00446142101A8FEF79C
:101D8000EAFAB9492068884276D100BF0020009065
:101D9000B648006840F01000B44908600846006882
:101DA00000F01000009000BF00BF00BF00200090B6
:101DB000AE481438006840F00100AC49143908609E
:101DC0000846006800F00100009000BF00BF4FF41B
:101DD000C060019002200290002003900320049034
:101DE0000720059001A9A248FEF734FEA148A249A8
:101DF00008604FF00060486000219F488160C1602A
:101E00004FF480610161002141618161C161016222
:101E10004162FEF74BFD08B1FEF7BAFB00BF9648E2
:101E2000E063846300BF93487830944908604FF0C2
:101E3000006048604021914881600021C1604FF4FA
:101E400080610161002141618161C1610162416282
:101E5000FEF72CFD08B1FEF79BFB00BF8748A0638F
:101E6000846300BF002211462520FEF781FF252054
:101E7000FEF76AFFF5E0FFE781492068884278D1E4
:101E800000BF002000907948001F006840F48020C7
:101E90007649091F08600846006800F48020009019
:101EA00000BF00BF00BF00200090704814380068D9
:101EB00040F002006D49143908600846006800F0DF
:101EC0000200009000BF00BF4FF44060019002206C
:101ED000029000200390032004900720059001A9A0
:101EE0006848FEF7B7FD6848684908604FF0006031
:101EF0004860002165488160C1604FF480610161E4
:101F0000002141618161C16101624162FEF7CEFC45
:101F100008B1FEF73DFB00BF5C48E063846300BF8F
:101F2000594830305A4908604FF0006048604021FD
:101F3000574881600021C1604FF480610161002138
:101F400041618161C16101624162FEF7AFFC08B18C
:101F5000FEF71EFB00BF4E48A063846300BF002253
:101F600011462720FEF704FF2720FEF7EDFE78E05C
:101F7000FFE748492068884273D100BF00200090E5
:101F80003A48006840F02000384908600846006878
:101F900000F02000009000BF00BF00BF00200090B4
:101FA00032481438006840F00400304914390860A1
:101FB0000846006800F00400009000BF00BFC02089
:101FC000019002200290002003900320049008203A
:101FD000059001A93048FEF73DFD264818382F49E5
:101FE00008608005486000212C488160C1604FF482
:101FF00080610161002141618161C16101624162D1
:10200000FEF754FC08B1FEF7C3FA00BF2348E063B3
:10201000846300BF17486030214908604FF020609A
:10202000486040211E4881600021C1604FF48061FA
:102030000161002141618161C16101624162FEF77C
:1020400035FC08B1FEF7A4FA00BF1548A06384630D
:1020500000BF002211464720FEF78AFE4720FEF708
:1020600073FE06B010BD000000100140443802406D
:1020700000000240406402408C010020EC0100207E
:102080000048004000040240286002404C0200204A
:10209000AC02002000140140000802400C030020A4
:1020A0006C03002070477047F7B50446154694F856
:1020B000410020283ED1019800B10DB90120FEBD9C
:1020C00001982062A584E58400206064212084F8C2
:1020D00041001948A16BC8631848A16B08641848EF
:1020E000A16BC8640020A16B086501AE23681A1DAE
:1020F00031682B46A06BFEF74FFC30B110206064B6
:10210000202084F841000120D9E76FF040002168C9
:10211000086000BF00BF2168143151E8001F41F082
:1021200080002168143141E80002002AF3D100BF89
:102130000020C4E70220C2E7A7260008FF26000807
:102140007F2500087047704700BFFEE708B500BF55
:10215000002000902648006840F480002449086070
:102160000846006800F48000009000BF00BF00BF78
:10217000002000900846006840F4001008600846FF
:10218000006800F40010009000BF00BF002211465C
:102190000C20FEF7EDFD0C20FEF7D6FD00221146C7
:1021A0000E20FEF7E5FD0E20FEF7CEFD00221146C3
:1021B0003920FEF7DDFD3920FEF7C6FD002211466D
:1021C0003A20FEF7D5FD3A20FEF7BEFD002211466B
:1021D0004520FEF7CDFD4520FEF7B6FD0022114655
:1021E0004620FEF7C5FD4620FEF7AEFD08BD000007
:1021F0003038024000B587B0142102A8FEF7ABF8D2
:1022000000BF002001902748006840F004002549E5
:1022100008600846006800F00400019000BF00BF9D
:1022200000BF002001900846006840F08000086070
:102230000846006800F08000019000BF00BF00BFAA
:10224000002001900846006840F00200086008463F
:10225000006800F00200019000BF00BF00BF002036
:1022600001900846006840F00100086008460068D8
:1022700000F00100019000BF00BF00224FF40051A8
:102280000948FEF7E1FC4FF4005002900120039052
:1022900000200490059002A90348FEF7DBFB07B07D
:1022A00000BD000030380240000802401CB500208C
:1022B000009001900E480F490860532048600021AB
:1022C0000C48816040F2E731C16000218161FFF775
:1022D000A5F908B1FEF75CF900200090019069466D
:1022E0000448FFF741F908B1FEF752F91CBD0000A0
:1022F000001400406C00002010B50B480B4908602A
:102300004FF461204860002108488160C16001618C
:102310000C21416100218161C161FFF7EFFC08B12F
:10232000FEF736F910BD000000100140B400002097
:1023300010B50B480B4908604FF46120486000213C
:1023400008488160C16001610C2141610021816107
:10235000C161FFF7D3FC08B1FEF71AF910BD000008
:1023600000480040FC00002010B50B480B490860F5
:102370004FF4E1304860002108488160C16001618C
:102380000C21416100218161C161FFF7B7FC08B1F7
:10239000FEF7FEF810BD00000014014044010020CB
:1023A00000BFFEE700BFFEE77047704710B5FEF7BD
:1023B00057FC10BD00B593B0302107A8FDF7CBFF47
:1023C000142102A8FDF7C7FF00BF00200190244898
:1023D000006840F08050224908600846006800F01C
:1023E0008050019000BF00BF00BF002001901D4839
:1023F000006840F480401B4908600846006800F40B
:102400008040019000BF00BF0120079000040890A9
:1024100002200D9041050E9104210F91A8211091E9
:10242000022111910421129107A8FEF733FE08B191
:10243000FEF7AEF80F2002900220039000200490D7
:102440004FF4A05005904FF480500690052102A84B
:10245000FEF7E0FC08B1FEF79BF813B000BD0000EA
:1024600040380240007000400348006840F47000AB
:10247000014908607047000088ED00E010B502488F
:10248000FFF779F910BD00006C00002010B502685C
:102490002B4B98420ED0B0F1804F0BD0294B984275
:1024A00008D0294B984205D0284B984202D0284B9F
:1024B000984203D122F070024B681A43204B984295
:1024C00020D0B0F1804F1DD01E4B98421AD01E4B29
:1024D000984217D01D4B984214D01D4B984211D0F2
:1024E0001C4B98420ED01C4B98420BD01B4B984271
:1024F00008D01B4B984205D01A4B984202D01A4B79
:10250000984203D122F44072CB681A4322F0800330
:102510004C6943EA04028B68C3620B688362084B10
:10252000984202D00A4B984201D10B6903630368B9
:1025300043F00403036001234361026010BD000007
:10254000000001400004004000080040000C004072
:1025500000040140004001400044014000480140A7
:1025600000180040001C00400020004070B50446E8
:10257000A56B0020E8852846FFF73AFA70BD70B5D4
:1025800006460025B46B20684069C0F3C01594F876
:102590004100212805D125B10020E084204600F02B
:1025A000FBF820684069C0F3801594F842002228A7
:1025B00005D125B10020E085204600F0A7F8606C29
:1025C00040F0100060642046FFF712FA70BD70B54D
:1025D0000546AC6B2868006800F48070002842D182
:1025E000E08500BF00BF21680C3151E8001F21F4D5
:1025F000807021680C3141E80002002AF3D100BF4D
:1026000000BF00BF2168143151E8001F21F0010014
:102610002168143141E80002002AF3D100BF00BF55
:1026200000BF2168143151E8001F21F040002168EB
:10263000143141E80002002AF3D100BF202084F8C1
:102640004200206B01280ED100BF00BF21680C3171
:1026500051E8001F21F0100021680C3141E8000210
:10266000002AF3D100BF00206063206B012804D151
:10267000A18D2046FFF77EF902E02046FFF712FD0C
:1026800070BD70B50546AC6B01206063206B0128FE
:1026900005D1A08D41082046FFF76CF902E02046E5
:1026A000FFF701FD70BD70B50546AC6B286800688A
:1026B00000F48070F8B90020E08400BF00BF2168FA
:1026C000143151E8001F21F080002168143141E8E5
:1026D0000002002AF3D100BF00BF00BF21680C3107
:1026E00051E8001F41F0400021680C3141E8000230
:1026F000002AF3D102E02046FFF724FD70BD70B53B
:102700000446A56B2846FFF71EFD70BD00BF00BF45
:1027100002680C3252E8002F22F4907102680C32E9
:1027200042E80013002BF3D100BF00BF00BF0268D6
:10273000143252E8002F22F001010268143242E8FC
:102740000013002BF3D100BF016B01290ED100BF94
:1027500000BF02680C3252E8002F22F0100102681C
:102760000C3242E80013002BF3D100BF202180F887
:10277000421000210163704710B504462068C0680C
:1027800020F040002168C860202084F841002046E5
:10279000FFF7D8FC002010BD00BF00BF02680C325C
:1027A00052E8002F22F0C00102680C3242E8001308
:1027B000002BF3D100BF202180F841107047F8B5FD
:1027C00004460025002694F84200222873D1A06810
:1027D000B0F5805F0BD1206948B9A66A20684068CF
:1027E000C0F308003080A06A801CA06214E0A56AD3
:1027F000A068B0F5805F03D0A06828B9206918B937
:1028000020684068287004E02068406800F07F007D
:102810002870A06A401CA062E08D401E80B2E08556
:10282000002846D12068C06820F020002168C860D8
:102830002068C06820F480702168C8602068406902
:1028400020F0010021684861202084F84200002027
:102850006063206B012826D10020206300BF00BFE9
:1028600021680C3151E8001F21F0100021680C3163
:1028700041E80002002AF3D100BF2068006800F0A0
:10288000100010280AD100BF0020009020680068C6
:10289000009020684068009000BF00BFA18D2046D6
:1028A000FFF768F802E02046FFF7FCFB0020F8BDC8
:1028B00001E00020FBE70220F9E700002DE9F84FD6
:1028C00004462068006920F44050E168084321680C
:1028D00008612169A068084361690843E169084308
:1028E00000902068C06849F20C6188430099084351
:1028F0002168C8602068406920F44070A1690843DD
:102900002168486176492068884203D0754920686B
:10291000884203D1FEF756FB814602E0FEF742FBF8
:102920008146E069B0F5004F6CD102206168A0FBE0
:10293000015003461920A9FB007001462A4638467B
:10294000FDF792FC6421B0FBF1F04FEA001A02207F
:102950006168A0FB01510B461920A9FB00712A46B2
:102960003846FDF781FC834602206168A0FB0150D8
:1029700003461920A9FB00712A463846FDF774FC6E
:102980006421B0FBF1F000EBC00101EB0010ABEBF8
:102990008000322101EBC0006421B0FBF1F000F0B7
:1029A000F8000AEB400A02206168A0FB01500346D0
:1029B0001920A9FB007001462A463846FDF754FC51
:1029C000834602206168A0FB015003461920A9FB41
:1029D00000712A463846FDF747FC6421B0FBF1F050
:1029E00000EBC00101EB0010ABEB8000322101EBEA
:1029F000C0006421B0FBF1F000F0070050442168F2
:102A000088606AE004206168A0FB01500346192039
:102A1000A9FB007001462A463846FDF725FC824690
:102A200004206168A0FB015003461920A9FB007037
:102A300001462A463846FDF717FC6421B0FBF1F049
:102A400000EBC00101EB0010AAEB8000322101EB8A
:102A500000106421B0FBF1F000F0F00A042061687E
:102A6000A0FB017003461920A9FB00513A462846F5
:102A7000FDF7FAFB6421B0FBF1F00AEB001A042029
:102A80006168A0FB01510B461920A9FB00712A4681
:102A90003846FDF7E9FB834604206168A0FB01503E
:102AA00003461920A9FB007001462A463846FDF767
:102AB000DBFB6421B0FBF1F000EBC00101EB001087
:102AC000ABEB8000322101EB00106421B0FBF1F090
:102AD00000F00F00504421688860BDE8F88F0000C6
:102AE000001001400014014077B581B0044615463E
:102AF0000298A062A58500206064222084F842002C
:102B00002C48E16BC8632C48E16B08642B48E16BEF
:102B1000C8640020E16B086502AE32682368191DA5
:102B20002B46E06BFDF738FF38B1102060642020A1
:102B300084F84200012004B070BD00BF0020009066
:102B400020680068009020684068009000BF00BFC7
:102B5000206970B100BF00BF21680C3151E8001F2F
:102B600041F4807021680C3141E80002002AF3D161
:102B700000BF00BF00BF2168143151E8001F41F0C1
:102B800001002168143141E80002002AF3D100BF9E
:102B900000BF00BF2168143151E8001F41F0400020
:102BA0002168143141E80002002AF3D100BF00205F
:102BB000C1E70000CF250008832600087F25000814
:102BC000014691F84100212828D18868B0F5805F3E
:102BD0000BD1086948B90A6A1088C0F308000B686D
:102BE0005860086A801C086205E00B6A581C08627D
:102BF00018780B685860C88C401E80B2C88458B9D9
:102C00000868C06820F080000B68D8600868C06859
:102C100040F040000B68D860002070470220FCE7BD
:102C200010B50248FEF7E6FE10BD0000B40000201B
:102C300010B50248FEF7DEFE10BD0000FC000020CB
:102C400010B50248FEF7D6FE10BD0000440100207A
:102C500000BFFEE710B50248FEF738FD10BD0000CA
:102C60006C0000202DE9FC4105460E46002428E0BA
:102C7000285DAA2823D1601C285C55281FD1002775
:102C8000022004E02118695C3944CFB2401C0A28B4
:102C9000F8DB04F10A00285CB8420FD1A01C2844DC
:102CA00000680190A01D284400680090DDED000A36
:102CB0009DED010A00F0B6FABDE8FC8100BF601C82
:102CC00084B204F10B00B042D2DD00BFF4E7000093
:102CD00001460848814201D10748704707488142B0
:102CE00001D10748F9E70748814201D10648F4E7D6
:102CF0000020F2E7B40000208C080020FC00002037
:102D0000AC08002044010020CC0800202DE9FF5F22
:102D10002DED020B2DED028B884691461E46B0EE3E
:102D2000408AF0EE608ADDE912AB0498FFF7D0FF2D
:102D30000446B2EE040A28EE000AB5EEC00AF1EE2F
:102D400010FA04DDB2EE040A28EE000A03E0B2EE47
:102D5000040A28EE400ABCEEC00A10EE100A87B240
:102D6000B2EE040A28EE800AB5EEC00AF1EE10FABF
:102D700004DDB2EE040A28EE800A03E0B2EE040A93
:102D800028EEC00ABCEEC00A10EE105A24B9BDEC01
:102D9000028B06B0BDE8F09F84F80080FD206070D3
:102DA00084F802903012E07026714FEA2A20607198
:102DB00084F806A03812E0712772280E6072280C81
:102DC000A072280AE072257384F80DB01498A073DD
:102DD0006B20E07310222146049800F002F800BF37
:102DE000D5E770B504460D46164604B105B970BD69
:102DF00094F84100202800D0F9E7324629462046C1
:102E0000FFF752F900BFF2E72DE9F0472DED028BF5
:102E100081460F4690461D46B0EE408ADDF828A058
:102E20004846FFF755FF0446B2EE040A28EE000AB2
:102E3000B5EEC00AF1EE10FA04DDB2EE040A28EE97
:102E4000000A03E0B2EE040A28EE400ABCEEC00A13
:102E500010EE100A86B21CB9BDEC028BBDE8F087FB
:102E60002770F620607084F802802812E0702571C7
:102E700030126071A67184F807A06B2020720922BD
:102E800021464846FFF7ADFF00BFE5E72DE9F041D9
:102E900080460D461646002423E00027601C285C6F
:102EA000352802D0362804D101E0062704E008279F
:102EB00002E0601C84B214E000BFE019B04201DD02
:102EC000BDE8F081E019401E285C6B2806D1291965
:102ED000404600F00BF8E01984B201E0601C84B2B7
:102EE00000BFA01CB042D8DD00BFE9E770B50446C2
:102EF0000D4608480068A04203D10649284600F064
:102F0000A7F805480068A04203D10349284600F00D
:102F10009FF870BD100000203800002010B5064951
:102F2000064800F015F80649064800F011F8064971
:102F3000064800F00DF810BDCC030020B4000020BE
:102F40000C040020FC0000204C0400204401002060
:102F500070B504460D46402229462046FEF7D1FCB6
:102F600038B9E06B0068006820F00800E16B096880
:102F7000086070BDF0B52DED028B83B0044620686B
:102F800008B932482060208A10B94FF47A70208244
:102F9000607910BB94ED020AB5EEC00AF1EE10FAAA
:102FA00001DA012000E000200546D4ED020AB0EE6F
:102FB000600A204600F0C8F8B0EE408A204600F0D3
:102FC000DFF80646002000902179B0EE480A33462B
:102FD0002A462068FFF718FF34E094ED030AB5EEA7
:102FE000C00AF1EE10FA01DA012000E000200546E7
:102FF000D4ED020AB0EE600A204600F0A5F8B0EE6B
:10300000408AD4ED030AB0EE600A204600F0CAF808
:10301000F0EE408A204600F0B3F80646204600F065
:10302000AFF8074600200121CDE900610290217927
:10303000F0EE680AB0EE480A3B462A462068FFF7E1
:1030400065FE00BF03B0BDEC028BF0BDB4000020F4
:1030500070B52DED028B04460D4620782979884203
:1030600065D16078352802D036285ED130E06079AD
:103070006B282CD1A078012803D1FF202D4908709E
:1030800002E001202B4908702B48B4F8031001809E
:10309000008800F08DFA00EE100AB8EE400ADFED6D
:1030A000270A20EE200AF1EE080A20EE208A2846A0
:1030B00000F06EF8C8EE000A1E4890F9000000EE1D
:1030C000100AB8EEC00A20EE800A85ED050A2DE050
:1030D000E0796B2828D1A078012803D1FF20184976
:1030E000087002E00120164908701648D4F8031051
:1030F0000160006800F064FA00EE100AB8EE400AC1
:10310000DFED0E0A20EE208A284600F041F8C8EED6
:10311000000A0B4890F9000000EE100AB8EEC00A51
:1031200020EE800A85ED060A00E000BF00BFBDEC7E
:10313000028B70BD6000002062000020CDCCCC3D31
:10314000640000206800002010B52DED028B0446BD
:10315000B0EE408A204600F01BF8B5EEC08AF1EED2
:1031600010FA02DDF0EE480A01E0F1EE480A60EEE6
:10317000200AB1EE081A80EE810ABDEC028B10BD68
:103180000146088A10B94FF47A707047088AFCE744
:10319000416A11B9B7EE000A704790ED090AB8EE1E
:1031A000400AF9E710B52DED028B0446B0EE408AD7
:1031B0002046FFF7EDFFB5EEC08AF1EE10FA02DD12
:1031C000F0EE480A01E0F1EE480A20EE200ABDECDC
:1031D000028B10BD0022427180ED020A11B94FF43A
:1031E0007A7200E00A4602827047000002480068D6
:1031F000C0F30220704700000CED00E010B500287D
:1032000004DB0A07130E054A135406E00A07140EDE
:10321000034A00F00F031B1FD45410BD00E400E06C
:1032200018ED00E0024880ED0C0AC0ED0D0A704771
:103230002C10002010B52DED028B0446F0EE408AD4
:10324000A068401CA060E16A88420BD30020A06007
:1032500094ED0C0AF0EE400AB0EE680A04F19C000E
:1032600000F06EF894ED398A0548018AB0EE480AFC
:10327000FFF7B0FF0248FFF77DFEBDEC028B10BDEB
:103280003800002010B52DED028B0446F0EE408A88
:103290006068401C6060A16A88420BD300206060B7
:1032A00094ED0D0AF0EE400AB0EE680A04F1500009
:1032B00000F046F894ED268A4FF47A71B0EE480A91
:1032C0000448FFF787FF0348FFF754FEBDEC028B6D
:1032D00010BD00001000002000B500F0DFF800F085
:1032E0001BF900BD10B59FED050A0548FFF7A2FFC9
:1032F0009FED020A0248FFF7C5FF10BD0000000065
:103300002C100020FDF7B8FCFFF754F8FEF772FF11
:10331000FEF71CFFFEF7F0FFFFF70AF8FFF724F8AF
:10332000FEF7C4FFFFF7FAFD6420FDF77FFBFFF710
:10333000D3FF6420FDF77AFBFFF78CFC00BFFEE7AC
:10334000B0EE401A80ED0C1AC0ED0D0A90ED0C0A9B
:10335000D0ED0D1A30EE610A80ED0E0A90ED000AF4
:10336000D0ED0E1A20EE210A80ED050A90ED0E0A2E
:10337000D0ED0F1A30EE610AD0ED021A20EE210ACC
:1033800080ED080A90ED0E0A80ED0F0A90ED110A0B
:10339000D0ED051A30EE610AB5EEC00AF1EE10FA72
:1033A00006DD90ED110AD0ED051A30EE610A01E05C
:1033B0009FED390A80ED090A90ED100AD0ED051A4B
:1033C00030EE610AB5EEC00AF1EE10FA06D290EDC9
:1033D000100AD0ED051A30EE610A01E09FED2E0AC9
:1033E00080ED0A0A017F21B19FED2B0A80ED060ACC
:1033F00028E090ED010AD0ED0E1A60EE211A90ED52
:103400000B2A90ED060A01EE820A80ED060A90ED85
:10341000060AD0ED091AB4EEE10AF1EE10FA04DD65
:1034200090ED090A80ED060A0CE090ED060AD0ED59
:103430000A1AB4EEE10AF1EE10FA03D290ED0A0A8C
:1034400080ED060A90ED050AD0ED061A30EE210A4D
:10345000D0ED081A30EE210A80ED120A90ED120A22
:10346000D0ED111AB4EEE10AF1EE10FA04DD90EDA0
:10347000110A80ED120A0CE090ED120AD0ED101A3C
:10348000B4EEE10AF1EE10FA03D290ED100A80EDED
:10349000120A90ED120A7047000000009FED1C0A0E
:1034A0001C4880ED030A90ED030AF7EE000A80EE57
:1034B000801A80ED041A9FED160A80ED050A90ED42
:1034C000050AF7EE000A80EE801A80ED061A90EDEC
:1034D000030AD0ED060A20EE200ABCEEC00A80EDF9
:1034E0000A0A9FED0B0A80ED070A90ED070AF7EE36
:1034F000000A80EE801A80ED081A90ED030AD0EDE4
:10350000080A20EE200ABCEEC00A80ED0B0A7047C4
:1035100000007A442C1000209FED230A234880ED00
:10352000140A9FED210A80ED150A9FED1F0A80ED18
:10353000160AB2EE040A80ED250ABAEE040A80EDFE
:10354000240AB2EE040A80ED1D0ABAEE040A80EDE8
:103550001E0A90ED060A80ED1F0A002180F86C100B
:103560009FED110A80ED270A9FED0F0A80ED280AD2
:103570009FED0D0A80ED290AB2EE040A80ED380AAB
:10358000BAEE040A80ED370AB2EE040A80ED300A82
:10359000BAEE040A80ED310A90ED080A80ED320A95
:1035A00080F8B81070470000000000002C100020C8
:1035B00001464FF47F4000EA012040EA11207047A5
:1035C00001464FF47F4202EA112242EA11604FF4B1
:1035D0007F0202EA012210434FF07F4202EA0162B9
:1035E000104370474FF04070E1EE100A704700063C
:1035F0001016000610160000000000000000010276
:10360000030406070809000000000102030400008B
:1036100030360008000000206C000000C4010008E3
:103620009C3600086C00002054170000E0010008E0
:103630000000000010000000010000000024F40061
:10364000B4000020020100000000C8420000000099
:10365000E80300000000000000000000000000007F
:103660000001000001000000FC000020010100003A
:103670000000C84200000000E80300000000000055
:103680000000000000000000000100000100000038
:0C3690000100000001000000000000002C
:040000050800018965
:00000001FF
