:020000040800F2
:10000000501A002029020008F12A00089927000848
:10001000ED2A00080B05000861340008000000000C
:10002000000000000000000000000000F72A0008A7
:10003000F307000800000000F52A0008F92A00086C
:10004000430200084302000843020008430200087C
:10005000430200084302000843020008430200086C
:10006000430200084302000843020008430200085C
:1000700069060008430200087906000843020008E8
:100080008906000899060008430200084302000898
:10009000430200084302000843020008430200082C
:1000A000430200084302000843020008430200081C
:1000B000430200084302000843020008430200080C
:1000C00043020008430200084302000843020008FC
:1000D000430200082134000831340008413400088C
:1000E000430200084302000843020008D92B00081D
:1000F000092C0008F92B0008E92B0008430200082E
:1001000043020008430200084302000843020008BB
:10011000430200084302000843020008C92B0008FC
:1001200043020008A9060008B906000843020008B7
:100130004302000800000000000000004302000825
:10014000430200084302000843020008430200087B
:1001500043020008C9060008D90600085134000807
:10016000430200084302000843020008430200085B
:1001700043020008430200080000000000000000E5
:10018000430200084302000800F002F800F03CF8C7
:100190000AA090E8000C82448344AAF10107DA45E2
:1001A00001D100F031F8AFF2090EBAE80F0013F0F8
:1001B000010F18BFFB1A43F0010318470449000060
:1001C00024490000103A24BF78C878C1FAD85207F1
:1001D00024BF30C830C144BF04680C6070470000C1
:1001E0000023002400250026103A28BF78C1FBD840
:1001F000520728BF30C148BF0B6070471FB504F0DD
:100200004AFC1FBD10B510BD00F04AF91146FFF7BA
:10021000F5FF04F07BF800F068F903B4FFF7F2FF94
:1002200003BC00F06BF9000009488047094800470B
:10023000FEE7FEE7FEE7FEE7FEE7FEE7FEE7FEE796
:10024000FEE7FEE704480549054A064B70470000F3
:10025000B52B00088901000850140020501A002016
:10026000501600205016002053EA020C00F069805E
:100270002DE9F04B4FF00006002B1FBFB3FA83F5BA
:1002800003FA05F424FA05F65E4012BF1643B2FAEB
:1002900082F502FA05F4C5F120051EBF22FA05FC1D
:1002A00044EA0C04203556EA044C4FEA144418BFC3
:1002B000641C4FF000084FF00009904271EB030CF2
:1002C00039D3002919BFB1FA81F701FA07F6B0FA5C
:1002D00080F700FA07F6C7F120071EBF20FA07FCD7
:1002E00046EA0C062037B6FBF4FCA7EB0507103FE7
:1002F00007F01F0BCBF120060CFA0BFB2CFA06F6CD
:1003000044BFB3460026202FA4BF5E464FF0000B2B
:100310005BEA060C08BF4FF0010B19EB0B09ABFBB6
:10032000027C48EB0608C01B06FB02CC0BFB03CC8F
:1003300071EB0C01C1E70B46024641464846BDE859
:10034000F08B13B54FF000004FF00001AFF30080C9
:10035000BDE81C407047032A40F2308010F0030CC7
:1003600000F0158011F8013BBCF1020F624498BF08
:1003700011F801CB00F8013B38BF11F8013BA2F1A5
:10038000040298BF00F801CB38BF00F8013B11F020
:10039000030300F04F80083AC0F0088051F8043B96
:1003A000083A51F804CBA0E80810F5E7121D5CBF2D
:1003B00051F8043B40F8043BAFF30080D20724BF60
:1003C00011F8013B11F801CB48BF11F8012B24BFF4
:1003D00000F8013B00F801CB48BF00F8012B704743
:1003E0004FF0000200B5134694469646203922BFCE
:1003F000A0E80C50A0E80C50B1F12001BFF4F7AF19
:10040000090728BFA0E80C5048BF0CC05DF804EBFA
:10041000890028BF40F8042B08BF704748BF20F868
:10042000022B11F0804F18BF00F8012B7047704766
:100430007047704710B5203AC0F00B80B1E81850F3
:10044000203AA0E81850B1E81850A0E81850BFF4BE
:10045000F5AF5FEA027C24BFB1E81850A0E818505D
:1004600044BF18C918C0BDE810405FEA827C24BFB1
:1004700051F8043B40F8043B08BF7047D20728BF3F
:1004800031F8023B48BF11F8012B28BF20F8023B8E
:1004900048BF00F8012B704700487047F013002058
:1004A0007546FFF7F9FFAE4605006946534620F052
:1004B0000700854618B020B5FFF7C4FEBDE8204010
:1004C0004FF000064FF000074FF000084FF0000B10
:1004D00021F00701AC46ACE8C009ACE8C009ACE8C3
:1004E000C009ACE8C0098D46704710B50446AFF3AB
:1004F00000802046BDE81040FFF78FBE014918205C
:10050000ABBEFEE726000200704700BFFEE708B55D
:1005100000BF0021009101680968009101684968E5
:10052000009100BF00BF00BF002100910168096871
:10053000009101684968009100BF00BF00BF002121
:10054000009101680968009101684968009100BF45
:1005500000BF00BF00210091016809680091016897
:100560004968009100BF00BF00BF002100910168F1
:100570000968009101684968009100BF00BF08BD8B
:1005800070B5054600242148C58136E02048005D4D
:10059000AA2830D11E49601C085CBB282BD104F16D
:1005A0000F00085CEE2826D10846011910221748D2
:1005B0001830FFF7D0FE1649A01C01441348096803
:1005C00001601349A01D01441048096841601049A9
:1005D00004F10A0001440D48096881600C4904F1E6
:1005E0000E00085C09490873012048730846006939
:1005F000401C086170BD601C84B204F11000A84268
:10060000C4D900200149487300BFF3E7C813002094
:100610008813002010B507484069401C054948610F
:100620000548FFF774FF044801F018FC00F006F8D5
:1006300010BD0000C8130020A401002010B5402206
:100640000749084801F087FB48B90648C06B0068B5
:10065000006820F008000349C96B0968086010BDF4
:1006600088130020A401002010B5024800F032F9E0
:1006700010BD0000FC03002010B5024800F02AF96C
:1006800010BD00005C04002010B5024800F022F903
:1006900010BD00003C03002010B5024800F01AF91C
:1006A00010BD00009C03002010B5024800F012F9B4
:1006B00010BD0000BC04002010B5024800F00AF98B
:1006C00010BD00007C02002010B5024800F002F9C5
:1006D00010BD00001C05002010B5024800F0FAF81B
:1006E00010BD0000DC0200200146087810381823F5
:1006F000B0FBF3F20848805CC865032A05D9086896
:100700006FF30900001D886503E008686FF30900B6
:100710008865886D70470000A04A000801460020E7
:100720008A6A8B69CBB932B1012A0DD0022A03D073
:10073000032A10D10EE000BFCB6A03F08073B3F13F
:10074000807F00D1012007E0CB6AB3F1C07F00D1E8
:10075000012001E000E000BF34E08B69B3F5005FE9
:100760001AD132B1012A07D0022A03D0032A11D1AB
:100770000AE000BF01200EE0CB6A03F08073B3F102
:10078000807F00D1012006E0CB6AB3F1C07F00D1A9
:10079000012000E000BF15E032B1012A05D0022A95
:1007A00004D0032A0CD103E000BF00BF012008E001
:1007B000CB6A03F08073B3F1807F00D1012000E0A9
:1007C00000BF00BF704730B50468246824F480245B
:1007D00005682C60046863608468402C04D1046858
:1007E000A2600468E16003E00468A1600468E2605C
:1007F00030BD704772B600BFFEE770B50446A56D08
:1008000000F064FB064694F83500022808D08020EA
:10081000606500BF002084F8340000BF012070BD77
:100820002068006820F01600216808602068406990
:1008300020F0800021684861206C08B9A06C28B1C4
:100840002068006820F008002168086020680068BF
:1008500020F001002168086010E000F037FB801BE9
:1008600005280BD920206065032084F8350000BFDF
:10087000002084F8340000BF0320D0E7206800681F
:1008800000F001000028E8D194F85C103F20884077
:10089000A860012084F8350000BF002084F83400EF
:1008A00000BF00BFBBE7014691F83500022803D026
:1008B0008020486501207047052081F835000868D0
:1008C000006820F001000A6810600020F3E701468C
:1008D000486D7047F8B50446002000908C480068C9
:1008E0004FF41651B0FBF1F7A56D2E6894F85C102B
:1008F00008208840304098B12068006800F004006B
:1009000070B12068006820F004002168086094F845
:100910005C1008208840A860606D40F001006065B0
:1009200094F85C1001208840304068B1206840692C
:1009300000F0800040B194F85C1001208840A8606D
:10094000606D40F00200606594F85C1004208840FF
:10095000304068B12068006800F0020040B194F8AF
:100960005C1004208840A860606D40F00400606561
:1009700094F85C1010208840304078B320680068FC
:1009800000F0080050B394F85C1010208840A86074
:100990002068006800F4802080B12068006800F4BE
:1009A000002028B9206CC8B12046216C884715E08A
:1009B000A06C98B12046A16C88470FE020680068C1
:1009C00000F4807028B92068006820F008002168D1
:1009D0000860206C10B12046216C884794F85C10A8
:1009E000202088403040002865D02068006800F052
:1009F000100000285FD094F85C1020208840A86088
:100A000094F83500052828D12068006820F01600E9
:100A1000216808602068406920F0800021684861F2
:100A2000206C08B9A06C28B12068006820F008008C
:100A30002168086094F85C103F208840A86001207D
:100A400084F8350000BF002084F8340000BF206D1A
:100A500010B12046216D8847F8BD2068006800F479
:100A6000802080B12068006800F4002028B9606C04
:100A700010B12046616C88471DE0E06BD8B120467C
:100A8000E16B884717E02068006800F4807068B95F
:100A90002068006820F0100021680860012084F8B8
:100AA000350000BF002084F8340000BFE06B10B1B7
:100AB0002046E16B8847606D38B3606D00F001003F
:100AC000F0B1052084F835002068006820F00100AE
:100AD0002168086000BF0098401C0090B84200D90F
:100AE00005E02068006800F001000028F3D100BF95
:100AF000012084F8350000BF002084F8340000BFD6
:100B0000E06C10B12046E16C884700BFA4E700000C
:100B10000C0000202DE9F0410446002500F0D6F934
:100B2000074614B90120BDE8F081606A00B100BF3A
:100B3000022084F8350000BF002084F8340000BF94
:100B40002068006820F00100216808600AE000F0D9
:100B5000BDF9C01B052805D920206065032084F855
:100B60003500E0E72068006800F001000028EED1C1
:100B70002068056821480540D4E901010843E1687F
:100B800008432169084361690843A1690843E16991
:100B90000843216A08430543606A042803D1D4E965
:100BA0000B0108430543206805602068456925F06E
:100BB0000705606A0543606A04280DD1A06A0543F1
:100BC000E06A48B12046FFF7A9FD28B140206065E2
:100BD000012084F83500A6E7206845612046FFF72C
:100BE00083FD064694F85C103F208840B0600020EA
:100BF0006065012084F83500002094E73F8010F004
:100C00002DE9F04704460D4616461F464FF00008F2
:100C1000D4F8589000BF94F83400012802D1022083
:100C2000BDE8F087012084F8340000BF94F8350057
:100C3000012825D1022084F83500002060653B465C
:100C4000324629462046FFF7BEFD94F85C103F204F
:100C50008840C9F808002068006840F01600216844
:100C60000860206C28B12068006840F00800216806
:100C700008602068006840F001002168086006E014
:100C800000BF002084F8340000BF4FF00208404647
:100C9000C6E7000070B5044600F018F90646254680
:100CA000681C10B104480078054400BF00F00EF93C
:100CB000801BA842FAD370BD08000020F8B5024698
:100CC0000B460025002400200021D6E0012606FA6C
:100CD00001F51E6806EA0504AC4274D11E7906F0DF
:100CE0000306012E04D01E7906F00306022E13D14E
:100CF00090684F000326BE40B0434F00DE68BE4000
:100D000030439060506801268E40B0431E79C6F390
:100D100000168E40304350601E7906F00306032E05
:100D200009D0D0684F000326BE40B0434F009E68F4
:100D3000BE403043D0601E7906F00306022E13D168
:100D4000CF0802F1200656F827004E07F70E0F26AF
:100D5000BE40B0434F07FF0E1E69BE403043CF0870
:100D600002F1200646F8270010684F000326BE4017
:100D7000B0431E7906F003064F00BE4030431060BA
:100D80005E6806F44036002E76D000BF002600963E
:100D90003C4E366846F480463A4F3E603E463668E2
:100DA00006F48046009600BF00BF374E8F0856F805
:100DB00027008E07370F0F26BE40B043334EB24296
:100DC00002D1002624E057E0314EB24201D1012683
:100DD0001EE0304EB24201D1022619E02E4EB24240
:100DE00001D1032614E02D4EB24201D104260FE0BA
:100DF0002B4EB24201D105260AE02A4EB24201D161
:100E0000062605E0284EB24201D1072600E008265A
:100E10008F073F0FBE4030431B4E8F0846F8270018
:100E2000224E3068A0435E6806F4801606B1204367
:100E30001E4E3060361D3068A0435E6806F4001612
:100E400006B12043194E361D3060184E361F3068EB
:100E5000A0435E6806F4003606B12043134E361FE9
:100E60003060361F3068A0435E6806F4803606B1F5
:100E700020430E4E083E3060491C1029FFF426AF77
:100E8000F8BD00004438024008380140000002402C
:100E90000004024000080240000C02400010024022
:100EA0000014024000180240001C0240083C0140AF
:100EB000024613690B400BB1012000E0002070478F
:100EC0000AB1816101E00B04836170470148006849
:100ED00070470000000000200348006803490978BB
:100EE0000844014908607047000000200800002005
:100EF00010B50D48006840F400700B4908600846C2
:100F0000006840F4806008600846006840F4807023
:100F10000860032000F0A6F80F2000F007F800F0AA
:100F20002BF8002010BD0000003C024070B50446C4
:100F30000E4800784FF47A71B1FBF0F00C49096863
:100F4000B1FBF0F5284600F02FFC08B1012070BD80
:100F5000102C07D200222146501E00F045F805480B
:100F6000046001E00120F2E70020F0E70800002023
:100F70000C0000200400002008B500BF00200090F5
:100F80000E48006840F480400C490860084600683C
:100F900000F48040009000BF00BF00BF0020009020
:100FA000081F006840F08050091F0860084600686C
:100FB00000F08050009000BF00BF08BD44380240E0
:100FC0000146084600280DDB00BF00BF00F01F03EC
:100FD00001229A4043099B0003F1E023C3F800215A
:100FE00000BF00BF00BF70472DE9F05F80460D468F
:100FF0001646002702F0ECFD074639462A463346DE
:1010000001F00700C0F1070ABAF1040F02D94FF04E
:10101000040A01E0C0F1070AD14600F1040ABAF15E
:10102000070F02D24FF0000A01E0A0F1030AD446F4
:101030004FF0010A0AFA09FAAAF1010A0AEA020AB9
:101040000AFA0CFA4FF0010B0BFA0CFBABF1010B97
:101050000BEA030B4AEA0B042146404602F0C0FDAE
:10106000BDE8F09F00BF00F00702064B19684FF67D
:10107000FF031940044B0B4343EA0221014B196063
:1010800000BF70470CED00E00000FA0570B50446A3
:101090000D460CB9012070BD5848006800F00700EB
:1010A000A84209D255490D700846006800F00700B3
:1010B000A84201D00120EEE7207800F002000228CB
:1010C0001DD1207800F00400042805D14C480068A8
:1010D00040F4E0504A490860207800F008000828F1
:1010E00005D14748006840F46040454908604448DD
:1010F000006820F0F000A1680843414908602078AA
:1011000000F00100A8B36068012807D13C48083806
:101110000068C0F34040B8B90120BCE7606802280D
:1011200002D06068032807D1354808380068C0F34A
:10113000406048B90120AEE7314808380068C0F384
:10114000400008B90120A6E72D48006820F0030000
:10115000616808432A490860FFF7B8FE064609E0BF
:10116000FFF7B4FE801B41F28831884202D9032088
:1011700091E707E02248006800F00C006168B0EBDE
:10118000810FEDD11D48006800F00700A84209D981
:101190001A490D700846006800F00700A84201D007
:1011A000012078E7207800F00400042807D11448D3
:1011B000006820F4E050E168084311490860207895
:1011C00000F00800082808D10D48006820F46040AD
:1011D000216940EAC1000A49086000F03FF8084967
:1011E0000968C1F30311074A515CC8400649086009
:1011F00006480068FFF79AFE00204CE7003C0240DA
:1012000008380240A84A00080C0000200400002012
:1012100001480068704700000C00002000B5FFF78F
:10122000F7FF04490968C1F38221034A515CC840B1
:1012300000BD000008380240B84A000800B5FFF7BA
:10124000E7FF04490968C1F34231034A515CC840D1
:1012500000BD000008380240B84A00082DE9F047F8
:10126000002400250026A1462548006800F00C0057
:1012700020B1042805D008283AD105E0DFF8849091
:1012800039E0DFF8849036E01D48001F006800F068
:101290003F041B48001F006800F4800078B11A4822
:1012A0001749091F0968C1F38811A0FB01700146A5
:1012B000224600233846FEF7D7FF05460EE01148C8
:1012C0000F49091F0968C1F38811A0FB017001468D
:1012D000224600233846FEF7C7FF05460848001F90
:1012E0000068C0F30140401C4600B5FBF6F902E07F
:1012F000DFF8109000BF00BF4846BDE8F08700004F
:10130000083802400024F40000127A00F8B50446C0
:101310000CB90120F8BD207800F00100002874D03D
:10132000F948006800F00C0004280DD0F648006869
:1013300000F00C00082813D1F348001F006800F4E7
:101340008000B0F5800F0BD1EF4808380068C0F37B
:101350004040002859D06068002856D10120D9E7C4
:1013600000BF6068B0F5803F08D1E74808380068E2
:1013700040F48030E449083908601EE06068B0F548
:10138000A02F0DD1E0480838006840F48020DE49E5
:10139000083908600846006840F4803008600CE0B6
:1013A000D9480838006820F48030D74908390860E7
:1013B0000846006820F48020086000BF606890B193
:1013C000FFF784FD054606E0FFF780FD401B64281B
:1013D00001D903209EE7CC4808380068C0F340409C
:1013E0000028F1D011E0FFF771FD054606E0FFF798
:1013F0006DFD401B642801D903208BE7C2480838E3
:101400000068C0F340400028F1D1207800F00200CD
:1014100002285FD1BC48006800F00C0058B1BA48FF
:10142000006800F00C0008281CD1B748001F0068B5
:1014300000F48000B0B9B44808380068C0F3400038
:1014400020B1E068012801D0012063E7AE480838E8
:10145000006820F0F800216940EAC100AA49083973
:10146000086037E0E06800B30120A8490860FFF792
:101470002DFD054606E0FFF729FD401B022801D996
:10148000032047E7A04808380068C0F34000002860
:10149000F1D09D480838006820F0F800216940EA42
:1014A000C10099490839086014E000209749086094
:1014B000FFF70CFD054606E0FFF708FD401B02287C
:1014C00001D9032026E7904808380068C0F340009F
:1014D0000028F1D1207800F0080008282CD160699C
:1014E000A8B101208A490860FFF7F0FC054606E034
:1014F000FFF7ECFC401B022801D903200AE78248D1
:101500006C300068C0F340000028F1D014E00020E7
:101510007F490860FFF7DAFC054606E0FFF7D6FCD6
:10152000401B022801D90320F4E677486C3000689C
:10153000C0F340000028F1D1207800F00400042816
:1015400070D1002770483830006800F0805090B9A2
:1015500000BF002000906C483830006840F0805098
:101560006949383108600846006800F080500090F2
:1015700000BF00BF01276748006800F48070B0B961
:101580006448006840F4807062490860FFF79EFC80
:10159000054606E0FFF79AFC401B022801D903200C
:1015A000B8E65C48006800F480700028F2D000BF04
:1015B000A068012808D154486830006840F0010054
:1015C0005149683108601DE0A06805280DD14E48DA
:1015D0006830006840F004004B49683108600846F4
:1015E000006840F0010008600CE04748683000687F
:1015F00020F001004449683108600846006820F086
:101600000400086000BFA068A8B1FFF75FFC0546B2
:1016100009E0FFF75BFC401B41F28831884202D9A8
:10162000032077E626E0384868300068C0F34000C1
:101630000028EED013E0FFF749FC054608E0FFF76D
:1016400045FC401B41F28831884201D9032061E604
:101650002D4868300068C0F340000028EFD1012F0A
:1016600007D129483830006820F0805026493831A9
:10167000086000BFA069002845D02348006800F03A
:101680000C0008285DD0A069022845D100201F4920
:101690000866FFF71BFC054606E0FFF717FC401B3A
:1016A000022801D9032035E6174808380068C0F33E
:1016B00040600028F1D1D4E907010843616A40EA9B
:1016C00081110122A06AC2EB500041EA00412C20A6
:1016D000005D41EA00600C49091F086001200B49C8
:1016E0000866FFF7F3FB054606E0FFF7EFFB401B3C
:1016F000022801D903200DE6034808380068C0F32A
:1017000040600028F1D049E008380240000047421C
:10171000800E474200700040002021490866FFF714
:10172000D5FB054606E0FFF7D1FB401B022801D997
:101730000320EFE51B480068C0F340600028F2D1A9
:101740002CE0A069012800D1E4E51648001D0668D8
:10175000A069012820D006F48001E06981421BD1F4
:1017600006F03F01206A814216D147F6C070304032
:10177000616AB0EB811F0FD106F440310122A06AEB
:10178000C2EB5000B1EB004F06D106F070612C2087
:10179000005DB1EB006F01D00120BBE50020B9E591
:1017A000000047420038024070B504462546681ED6
:1017B000B0F1807F01D301200FE0681E4FF0E021DF
:1017C00048610F214FF0FF3002F00AFA00204FF07D
:1017D000E021886107200861002070BD70477047D4
:1017E00030B502460B4600BF92F83C00012801D1FB
:1017F000022030BD012082F83C0000BF022082F8A8
:101800003D00106844681068816824F0700418680E
:10181000044310684460184D1068A8421BD010683B
:10182000B0F1804F17D0154D1068A84213D0144D59
:101830001068A8420FD0134D1068A8420BD0124D6B
:101840001068A84207D0114D1068A84203D0104D6F
:101850001068A84205D121F0800158680143106842
:101860008160012082F83D0000BF002082F83C002A
:1018700000BF00BFBDE700000000014000040040C1
:1018800000080040000C00400004014000400140FE
:101890000018004010B504460CB9012010BD94F8A2
:1018A0003D0028B9002084F83C00204600F026F8CE
:1018B000022084F83D00211D206801F0ADF90120CF
:1018C00084F8460000BF84F83E0001213F20015506
:1018D000402001554120015500BF00BF012084F880
:1018E000420043200155442001554520015500BFC9
:1018F000012084F83D000020D0E7000038B5044600
:1019000029492068884218D100BF0020009027484C
:10191000006840F02000254908600846006800F093
:101920002000009000BF00BF002211463720FFF7C3
:101930005BFB3720FFF744FB35E01D4920688842F8
:1019400031D100BF002000901848001D006840F011
:1019500002001649091D08600846006800F00200F0
:10196000009000BF00BF002211462B20FFF73CFB78
:101970002B20FFF725FB002211462C20FFF734FB1C
:101980002C20FFF71DFB002211462D20FFF72CFB1A
:101990002D20FFF715FB002211462E20FFF724FB18
:1019A0002E20FFF70DFB38BD0014004040380240E8
:1019B00000040140014691F83D00012801D00120BA
:1019C0007047022081F83D000868C06840F00100BF
:1019D0000B68D8601A4B086898421BD00868B0F1B1
:1019E000804F17D0174B0868984213D0164B0868E1
:1019F00098420FD0154B086898420BD0144B0868DA
:101A0000984207D0134B0868984203D0124B0868DD
:101A100098420CD10868806800F00702062A0CD0B2
:101A20000868006840F001000B68186005E008686D
:101A3000006840F001000B6818600020C0E700005B
:101A4000000001400004004000080040000C00407D
:101A50000004014000400140001800402DE9F04121
:101A600004460D46002700BF94F83C00012802D12F
:101A70000220BDE8F081012084F83C0000BF022074
:101A800084F83D002068866826F0770626F47F46B5
:101A9000206886602868502833D00CDC202850D07D
:101AA00004DC00284BD0102851D149E0302849D01F
:101AB00040284CD139E060282DD0702807D0B0F5EF
:101AC000805F03D0B0F5005F41D10DE041E0D5E982
:101AD00002136A68206801F00FF92068866846F0F2
:101AE00077062068866034E0D5E902136A682068CA
:101AF00001F002F92068806840F480402168886025
:101B000027E0EA686968206801F00AF95021206836
:101B100001F0FDF81DE0EA686968206801F013F93A
:101B20006021206801F0F3F813E0EA686968206832
:101B300001F0F6F84021206801F0E9F809E000BF63
:101B400000BF00BF2968206801F0E1F801E001272B
:101B500000BF00BF012084F83D0000BF002084F8D2
:101B60003C0000BF384684E7704770B504462068E3
:101B7000C5682068066906F00200022819D105F040
:101B80000200022815D1401F21680861012020773A
:101B90002068806900F0030018B12046FFF7E4FFD9
:101BA00005E0204600F097F8204600F095F8002068
:101BB000207706F00400042819D105F00400042859
:101BC00015D1C04321680861022020772068806910
:101BD00000F4407018B12046FFF7C6FF05E020462C
:101BE00000F079F8204600F077F80020207706F022
:101BF0000800082819D105F00800082815D1C043AD
:101C000021680861042020772068C06900F0030083
:101C100018B12046FFF7A8FF05E0204600F05BF86A
:101C2000204600F059F80020207706F01000102818
:101C300019D105F01000102815D1C04321680861A2
:101C4000082020772068C06900F4407018B1204651
:101C5000FFF78AFF05E0204600F03DF8204600F03F
:101C60003BF80020207706F0010048B105F00100A4
:101C700030B16FF0010021680861204600F02EF8B5
:101C800006F08000802809D105F08000802805D169
:101C9000C043216808612046FFF7A0FD06F0400020
:101CA000402809D105F04000402805D1C0432168F3
:101CB0000861204600F04EF806F02000202809D1E7
:101CC00005F02000202805D1C04321680861204686
:101CD000FFF785FD70BD70477047000070B5044682
:101CE00014492068884224D113480068B0F5FA7F6F
:101CF00004D211480068401C0F4908600F4801F0E9
:101D000063FF0F4880ED000A0E4801F05DFF0E48AA
:101D100080ED000A0D4802F0E9FA06460C4802F090
:101D2000E5FA05462946304602F040FB02F0B0F9DC
:101D300000BF70BD00140040940000205800002037
:101D4000100000203000002014000020B800002007
:101D5000C00000207047F8B504460D46164694F8BA
:101D6000420020282DD105B10EB90120F8BD012077
:101D700020630020606332462946204601F0B4FA11
:101D80000746206B012819D100BF00200090206871
:101D90000068009020684068009000BF00BF00BF4E
:101DA00000BF21680C3151E8001F41F0100021688C
:101DB0000C3141E80002002AF3D100E00127384647
:101DC000D4E70220D2E7000070B504460D46194959
:101DD0002068884209D12A461749204601F09BFC19
:101DE0001549164801F054FD23E015492068884242
:101DF00005D12846FEF7C4FBFEF720FC19E0114987
:101E00002068884209D12A460F49204601F083FC08
:101E10000D490E4801F03CFD0BE00D492068884259
:101E200007D129460B4801F029FB0A490A4801F06D
:101E30002FFD70BD001001407C0500205C010020DA
:101E40000044004000480040BC050020EC01002098
:101E500000140140FC0500203402002010B50446A7
:101E600000BF00BF21680C3151E8001F21F49070C1
:101E700021680C3141E80002002AF3D100BF00BF05
:101E800000BF2168143151E8001F21F001002168D2
:101E9000143141E80002002AF3D100BF206B012871
:101EA0000ED100BF00BF21680C3151E8001F21F0A6
:101EB000100021680C3141E80002002AF3D100BF74
:101EC0002068406900F04000402820D100BF00BFDA
:101ED0002168143151E8001F21F0400021681431BD
:101EE00041E80002002AF3D100BFE06B78B1002086
:101EF000E16B0865E06BFEF780FC40B1E06BFEF73C
:101F0000E6FC202803D110206064032010BD0020CF
:101F1000E085202084F842000020206300BFF5E720
:101F200010B50446204601F03FFC10BD2DE9F84FE6
:101F30000446206805682068C668206847694FF035
:101F40000009CA4605F00F09B9F1000F0AD105F0E2
:101F5000200038B106F0200020B1204601F030F812
:101F6000BDE8F88FB9F1000F7CD007F0010018B977
:101F700006F49070002875D005F0010030B106F429
:101F8000807018B1606C40F00100606405F00400DE
:101F900030B107F0010018B1606C40F002006064DD
:101FA00005F0020030B107F0010018B1606C40F09C
:101FB0000400606405F0080048B106F0200010B984
:101FC00007F0010018B1606C40F008006064606CBC
:101FD000002846D005F0200028B106F0200010B1FE
:101FE000204600F0EDFF20684069C0F3801A606C65
:101FF00000F0080010B9BAF1000F2DD0204600F013
:1020000086FF2068406900F04000402820D100BFD2
:1020100000BF2168143151E8001F21F04000216801
:10202000143141E80002002AF3D100BFE06B50B147
:102030007F48E16B0865E06BFEF735FC88B1E06B2B
:10204000016D88470DE02046FFF76AFF09E009E0CF
:102050002046FFF765FF04E02046FFF761FF002000
:1020600060647DE7206B012878D105F0100000281E
:1020700074D006F010000028FAD000BF00200090B5
:1020800020680068009020684068009000BF00BF92
:102090002068406900F04000402870D1E06B006883
:1020A00040681FFA80F8B8F1000F58D0A08D404565
:1020B00055DDA4F82E80E06BC069B0F5807F43D079
:1020C00000BF00BF21680C3151E8001F21F480706F
:1020D00021680C3141E80002002AF3D100BF00BFA3
:1020E00000BF2168143151E8001F21F00100216870
:1020F000143141E80002002AF3D100BF00BF00BF45
:102100002168143151E8001F21F04000216814318A
:1021100041E80002002AF3D100BF202084F84200E9
:102120000020206300BF00BF21680C3151E8001F70
:1021300021F0100021680C3141E80002002AF3D19F
:1021400000BFE06BFEF759FB02206063A08DE28DBB
:10215000801A81B22046FFF737FE0EE052E0A08DD4
:1021600040450AD1E06BC069B0F5807F05D10220FF
:102170006063A18D2046FFF727FEF1E6FFE7A08D03
:10218000E18D401A1FFA80F8E08DD0B3B8F1000F4E
:1021900037D000BF00BF21680C3151E8001F21F487
:1021A000907021680C3141E80002002AF3D100BF91
:1021B00000BF00BF2168143151E8001F21F0010069
:1021C0002168143141E80002002AF3D100BF202029
:1021D00084F842000020206300BF00BF21680C315A
:1021E00051E8001F21F0100021680C3141E8000285
:1021F000002AF3D100BF0220606341462046FFF76A
:10220000E3FDADE605F0800030B106F0800018B1C6
:10221000204601F0D5F8A3E605F0400030B106F005
:10222000400018B1204600F0A8FE99E600BF97E6EE
:102230006F2D000810B504460CB9012010BDA0692F
:1022400000B100E000BF94F8410028B9002084F8F4
:102250004000204600F02AF8242084F8410020683D
:10226000C06820F400502168C860204600F026FFB6
:102270002068006920F49040216808612068406966
:1022800020F02A00216848612068C06840F40050AE
:102290002168C86000206064202084F8410084F830
:1022A00042000020606300BFC8E7000010B586B0A0
:1022B0000446142101A8FEF793F8FC4920688842DF
:1022C00079D100BF00200090F948006840F010006C
:1022D000F74908600846006800F01000009000BF51
:1022E00000BF00BF00200090F1481438006840F0A3
:1022F0000100EF49143908600846006800F0010049
:10230000009000BF00BF4FF4C06001900220029017
:1023100000200390032004900720059001A9E548C0
:10232000FEF7CCFCE448E54908604FF000604860E7
:102330000021E2488160C1604FF4806101610021A9
:10234000416181614FF48071C1610021016241628C
:10235000FEF7E0FB08B1FEF74DFA00BFD748E06397
:10236000846300BFD4487830D54908604FF00060DE
:1023700048604021D24881600021C1604FF48061F3
:102380000161002141618161C16101624162FEF729
:10239000C1FB08B1FEF72EFA00BFC948A0638463F1
:1023A00000BF002211462520FEF71EFE2520FEF765
:1023B00007FE78E1FFE7C349206888427AD100BF71
:1023C00000200090BA48001F006840F40030B8496F
:1023D000091F08600846006800F40030009000BF44
:1023E00000BF00BF00200090B1481438006840F0E2
:1023F0000100AF49143908600846006800F0010088
:10240000009000BF00BF0C2001900220029000202D
:102410000390032004900720059001A9A548FEF72A
:102420004DFCA948A94908604FF0006048600021B0
:10243000A6488160C1604FF4806101610021416163
:1024400081614FF48071C161002101624162FEF738
:1024500061FB08B1FEF7CEF900BF9C48E0638463DE
:1024600000BF994818309A4908604FF000604860F2
:102470004021974881600021C1604FF48061016173
:10248000002141618161C16101624162FEF742FB4D
:1024900008B1FEF7AFF900BF8D48A063846300BFA9
:1024A000002211462620FEF79FFD2620FEF788FD1C
:1024B000F9E0FFE78749206888427CD100BF00200F
:1024C00000907B48001F006840F480207849091F75
:1024D00008600846006800F48020009000BF00BF3C
:1024E00000BF0020009072481438006840F00200DD
:1024F0006F49143908600846006800F00200009037
:1025000000BF00BF4FF44060019002200290002005
:102510000390032004900720059001A96E48FEF760
:10252000CDFB694860386D4908604FF00060486035
:1025300000216A488160C1604FF48061016100211F
:10254000416181614FF48071C1610021016241628A
:10255000FEF7E0FA08B1FEF74DF900BF5F48E0630F
:10256000846300BF584830385D4908604FF0006010
:10257000486040215A4881600021C1604FF4806169
:102580000161002141618161C16101624162FEF727
:10259000C1FA08B1FEF72EF900BF5148A063846369
:1025A00000BF002211462720FEF71EFD2720FEF760
:1025B00007FD78E0FFE74B492068884273D100BFF0
:1025C000002000903A48006840F020003849086038
:1025D0000846006800F02000009000BF00BF00BF68
:1025E0000020009032481438006840F00400304960
:1025F000143908600846006800F00400009000BF2D
:1026000000BFC02001900220029000200390032010
:1026100004900820059001A93348FEF74FFB264897
:102620001838324908608005486000212F488160D1
:10263000C1604FF480610161002141618161C1612C
:1026400001624162FEF766FA08B1FEF7D3F800BFF7
:102650002648E063846300BF17486030244908605F
:102660004FF0206048604021214881600021C16016
:102670004FF480610161002141618161C1610162AA
:102680004162FEF747FA08B1FEF7B4F800BF1848F8
:10269000A063846300BF002211464720FEF7A4FC1C
:1026A0004720FEF78DFC06B010BD00000010014071
:1026B0004438024000000240406402407C02002096
:1026C000DC02002000440040886002403C030020FF
:1026D0009C0300200048004000040240FC0300204E
:1026E0005C0400200014014000080240BC040020EB
:1026F0001C05002070477047F7B50446154694F84E
:10270000410020283ED1019800B10DB90120FEBD45
:1027100001982062A584E58400206064212084F86B
:1027200041001948A16BC8631848A16B0864184898
:10273000A16BC8640020A16B086501AE23681A1D57
:1027400031682B46A06BFEF75BFA30B11020606455
:10275000202084F841000120D9E76FF04000216873
:10276000086000BF00BF2168143151E8001F41F02C
:1027700080002168143141E80002002AF3D100BF33
:102780000020C4E70220C2E7A92E0008012F00089C
:10279000812D00087047704700BFFEE708B500BFF5
:1027A000002000902E48006840F480002C4908600A
:1027B0000846006800F48000009000BF00BF00BF22
:1027C000002000900846006840F4001008600846A9
:1027D000006800F40010009000BF00BF0022114606
:1027E0000C20FEF701FC0C20FEF7EAFB002211464C
:1027F0000E20FEF7F9FB0E20FEF7E2FB0022114649
:102800001020FEF7F1FB1020FEF7DAFB0022114644
:102810001120FEF7E9FB1120FEF7D2FB0022114642
:102820003920FEF7E1FB3920FEF7CAFB00221146F2
:102830003A20FEF7D9FB3A20FEF7C2FB00221146F0
:102840004520FEF7D1FB4520FEF7BAFB00221146DA
:102850004620FEF7C9FB4620FEF7B2FB08BD00008C
:102860003038024000B587B0142102A8FDF7B8FD4A
:1028700000BF002001903348006840F00400314957
:1028800008600846006800F00400019000BF00BF27
:1028900000BF002001900846006840F080000860FA
:1028A0000846006800F08000019000BF00BF00BF34
:1028B000002001900846006840F0010008600846CA
:1028C000006800F00100019000BF00BF00BF0020C1
:1028D00001900846006840F0020008600846006861
:1028E00000F00200019000BF00BF002246F210017C
:1028F0001548FEF7E5FA012220211348FEF7E0FA19
:1029000046F23000029001200390002004900590D0
:1029100002A90D48FEF7D2F908200290002003908A
:102920000120049002A90848FEF7C8F9102002907F
:10293000002003900120049002A90448FEF7BEF98C
:1029400007B000BD303802400008024000000240DD
:102950001CB50020009001900E480F4908605320DC
:10296000486000210C48816040F2E731C1600021DD
:102970008161FEF78FFF08B1FDF73CFF002000905A
:10298000019069460448FEF72BFF08B1FDF732FFBE
:102990001CBD000000140040CC00002000B587B032
:1029A0000020039004900590069001900290154835
:1029B00015490860A720486000211348816042F251
:1029C0000F71C16000210161416180218161FEF7C9
:1029D00061FF08B1FDF70EFF4FF48050039003A98B
:1029E0000948FFF73BF808B1FDF704FF002001900C
:1029F000029001A90448FEF7F3FE08B1FDF7FAFEC4
:102A000007B000BD000401401401002010B50B48C0
:102A10000B4908604FF4612048600021084881603C
:102A2000C16001610C21416100218161C161FFF739
:102A300001FC08B1FDF7DEFE10BD000000100140F2
:102A40005C01002010B50B480B4908604FF4612071
:102A50004860002108488160C16001610C2141612A
:102A600000218161C161FFF7E5FB08B1FDF7C2FEFE
:102A700010BD000000440040A401002010B50B4828
:102A80000B4908604FF461204860002108488160CC
:102A9000C16001610C21416100218161C161FFF7C9
:102AA000C9FB08B1FDF7A6FE10BD000000480040BC
:102AB000EC01002010B50B480B4908604FF4E130E1
:102AC0004860002108488160C16001610C214161BA
:102AD00000218161C161FFF7ADFB08B1FDF78AFEFE
:102AE00010BD0000001401403402002000BFFEE7CA
:102AF00000BFFEE77047704710B5FEF7EDF910BD57
:102B000000B593B0302107A8FDF76AFC142102A894
:102B1000FDF766FC00BF002001902448006840F0EB
:102B20008050224908600846006800F080500190FB
:102B300000BF00BF00BF002001901D48006840F4A6
:102B400080401B4908600846006800F480400190FE
:102B500000BF00BF012007900004089002200D90E4
:102B600041050E9104210F91A8211091022111918C
:102B70000421129107A8FEF7C9FB08B1FDF73AFE40
:102B80000F20029002200390002004904FF4A050E8
:102B900005904FF480500690052102A8FEF776FAC2
:102BA00008B1FDF727FE13B000BD00004038024019
:102BB000007000400348006840F47000014908605C
:102BC0007047000088ED00E010B50248FEF7CDFF29
:102BD00010BD0000CC00002010B50248FEF7C5FF74
:102BE00010BD00001401002010B50248FEF7BDFF23
:102BF00010BD00001401002010B50248FEF7B5FF1B
:102C000010BD00001401002010B50248FEF7ADFF12
:102C100010BD00001401002010B502682B4B984233
:102C20000ED0B0F1804F0BD0294B984208D0294BE1
:102C3000984205D0284B984202D0284B984203D1A5
:102C400022F070024B681A43204B984220D0B0F11A
:102C5000804F1DD01E4B98421AD01E4B984217D061
:102C60001D4B984214D01D4B984211D01C4B9842DA
:102C70000ED01C4B98420BD01B4B984208D01B4BDC
:102C8000984205D01A4B984202D01A4B984203D171
:102C900022F44072CB681A4322F080034C6943EA65
:102CA00004028B68C3620B688362084B984202D0AF
:102CB0000A4B984201D10B690363036843F0040394
:102CC000036001234361026010BD00000000014069
:102CD0000004004000080040000C004000040140D7
:102CE00000400140004401400048014000180040FD
:102CF000001C00400020004030B50C46816821F4E3
:102D00007F4142EA032525432943816030BD0A46BD
:102D1000816821F0700142F0070319438160704718
:102D200030B50B461446026A056A25F001050562B6
:102D3000816921F0F00141EA041122F00A021A43EC
:102D40008161026230BD30B50B461446026A056AE5
:102D500025F010050562816921F4704141EA0431D2
:102D600022F0A00242EA03128161026230BD70B516
:102D70000446A56B0020E8852846FFF7D1F870BD12
:102D800070B506460025B46B20684069C0F3C015D5
:102D900094F84100212805D125B10020E084204687
:102DA00000F0FBF820684069C0F3801594F84200F9
:102DB000222805D125B10020E085204600F0A7F8A3
:102DC000606C40F0100060642046FFF7A9F870BD09
:102DD00070B50546AC6B2868006800F48070002868
:102DE00042D1E08500BF00BF21680C3151E8001FCF
:102DF00021F4807021680C3141E80002002AF3D1EF
:102E000000BF00BF00BF2168143151E8001F21F04E
:102E100001002168143141E80002002AF3D100BF0B
:102E200000BF00BF2168143151E8001F21F04000AD
:102E30002168143141E80002002AF3D100BF2020AC
:102E400084F84200206B01280ED100BF00BF21682A
:102E50000C3151E8001F21F0100021680C3141E8CD
:102E60000002002AF3D100BF00206063206B01281C
:102E700004D1A18D2046FEF7A7FF02E02046FFF710
:102E800039FC70BD70B50546AC6B01206063206BEA
:102E9000012805D1A08D41082046FEF795FF02E0EC
:102EA0002046FFF728FC70BD70B50546AC6B28685E
:102EB000006800F48070F8B90020E08400BF00BF13
:102EC0002168143151E8001F21F08000216814317D
:102ED00041E80002002AF3D100BF00BF00BF216813
:102EE0000C3151E8001F41F0400021680C3141E8ED
:102EF0000002002AF3D102E02046FFF74BFC70BD30
:102F000070B50446A56B2846FFF745FC70BD00BFB1
:102F100000BF02680C3252E8002F22F49071026860
:102F20000C3242E80013002BF3D100BF00BF00BFFA
:102F30000268143252E8002F22F0010102681432B4
:102F400042E80013002BF3D100BF016B01290ED121
:102F500000BF00BF02680C3252E8002F22F01001BF
:102F600002680C3242E80013002BF3D100BF20218D
:102F700080F8421000210163704710B504462068B4
:102F8000C06820F040002168C860202084F841001B
:102F90002046FFF7FFFB002010BD00BF00BF026806
:102FA0000C3252E8002F22F0C00102680C3242E8D5
:102FB0000013002BF3D100BF202180F8411070478F
:102FC000F8B504460025002694F84200222873D163
:102FD000A068B0F5805F0BD1206948B9A66A206867
:102FE0004068C0F308003080A06A801CA06214E032
:102FF000A56AA068B0F5805F03D0A06828B92069F1
:1030000018B920684068287004E02068406800F023
:103010007F002870A06A401CA062E08D401E80B234
:10302000E085002846D12068C06820F02000216893
:10303000C8602068C06820F480702168C86020687B
:10304000406920F0010021684861202084F8420096
:1030500000206063206B012826D10020206300BF80
:1030600000BF21680C3151E8001F21F010002168D9
:103070000C3141E80002002AF3D100BF206800684B
:1030800000F0100010280AD100BF00200090206836
:103090000068009020684068009000BF00BFA18DCC
:1030A0002046FEF791FE02E02046FFF723FB0020BA
:1030B000F8BD01E00020FBE70220F9E72DE9F84F19
:1030C00004462068006920F44050E1680843216804
:1030D00008612169A068084361690843E169084300
:1030E00000902068C06849F20C6188430099084349
:1030F0002168C8602068406920F44070A1690843D5
:103100002168486176492068884203D07549206863
:10311000884203D1FEF792F8814602E0FEF77EF87E
:103120008146E069B0F5004F6CD102206168A0FBD8
:10313000015003461920A9FB007001462A46384673
:10314000FDF792F86421B0FBF1F04FEA001A02207B
:103150006168A0FB01510B461920A9FB00712A46AA
:103160003846FDF781F8834602206168A0FB0150D4
:1031700003461920A9FB00712A463846FDF774F86A
:103180006421B0FBF1F000EBC00101EB0010ABEBF0
:103190008000322101EBC0006421B0FBF1F000F0AF
:1031A000F8000AEB400A02206168A0FB01500346C8
:1031B0001920A9FB007001462A463846FDF754F84D
:1031C000834602206168A0FB015003461920A9FB39
:1031D00000712A463846FDF747F86421B0FBF1F04C
:1031E00000EBC00101EB0010ABEB8000322101EBE2
:1031F000C0006421B0FBF1F000F0070050442168EA
:1032000088606AE004206168A0FB01500346192031
:10321000A9FB007001462A463846FDF725F882468C
:1032200004206168A0FB015003461920A9FB00702F
:1032300001462A463846FDF717F86421B0FBF1F045
:1032400000EBC00101EB0010AAEB8000322101EB82
:1032500000106421B0FBF1F000F0F00A0420616876
:10326000A0FB017003461920A9FB00513A462846ED
:10327000FCF7FAFF6421B0FBF1F00AEB001A04201E
:103280006168A0FB01510B461920A9FB00712A4679
:103290003846FCF7E9FF834604206168A0FB015033
:1032A00003461920A9FB007001462A463846FCF760
:1032B000DBFF6421B0FBF1F000EBC00101EB00107B
:1032C000ABEB8000322101EB00106421B0FBF1F088
:1032D00000F00F00504421688860BDE8F88F0000BE
:1032E000001001400014014077B581B00446154636
:1032F0000298A062A58500206064222084F8420024
:103300002C48E16BC8632C48E16B08642B48E16BE7
:10331000C8640020E16B086502AE32682368191D9D
:103320002B46E06BFDF76CFC38B110206064202068
:1033300084F84200012004B070BD00BF002000905E
:1033400020680068009020684068009000BF00BFBF
:10335000206970B100BF00BF21680C3151E8001F27
:1033600041F4807021680C3141E80002002AF3D159
:1033700000BF00BF00BF2168143151E8001F41F0B9
:1033800001002168143141E80002002AF3D100BF96
:1033900000BF00BF2168143151E8001F41F0400018
:1033A0002168143141E80002002AF3D100BF002057
:1033B000C1E70000D12D0008852E0008812D0008EE
:1033C000014691F84100212828D18868B0F5805F36
:1033D0000BD1086948B90A6A1088C0F308000B6865
:1033E0005860086A801C086205E00B6A581C086275
:1033F00018780B685860C88C401E80B2C88458B9D1
:103400000868C06820F080000B68D8600868C06851
:1034100040F040000B68D860002070470220FCE7B5
:1034200010B50248FEF782FD10BD00005C010020CF
:1034300010B50248FEF77AFD10BD0000A40100207F
:1034400010B50248FEF772FD10BD0000EC0100202F
:1034500010B50248FEF76AFD10BD000034020020DE
:1034600000BFFEE710B50348FEF7A4FA0248FEF7D6
:10347000A1FA10BDCC000020140100202DE9FC4170
:1034800005460E46002428E0285DAA2823D1601CAA
:10349000285C55281FD10027022004E02118695C10
:1034A0003944CFB2401C0A28F8DB04F10A00285C3A
:1034B000B8420FD1A01C284400680190A01D2844E8
:1034C00000680090DDED000A9DED010A00F0A6FB0A
:1034D000BDE8FC8100BF601C84B204F10B00B04267
:1034E000D2DD00BFF4E7000001460848814201D167
:1034F000074870470748814201D10748F9E7074864
:10350000814201D10648F4E70020F2E75C01002087
:103510003C0A0020EC0100205C0A0020340200205C
:103520007C0A00202DE9FF5F2DED020B2DED028BB3
:10353000884691461E46B0EE408AF0EE608ADDE98C
:1035400012AB0498FFF7D0FF0446B2EE040A28EE4F
:10355000000AB5EEC00AF1EE10FA04DDB2EE040A7C
:1035600028EE000A03E0B2EE040A28EE400ABCEEA0
:10357000C00A10EE100A87B2B2EE040A28EE800AE2
:10358000B5EEC00AF1EE10FA04DDB2EE040A28EE40
:10359000800A03E0B2EE040A28EEC00ABCEEC00ABC
:1035A00010EE105A24B9BDEC028B06B0BDE8F09FB6
:1035B00084F80080FD20607084F802903012E07082
:1035C00026714FEA2A20607184F806A03812E07153
:1035D0002772280E6072280CA072280AE0722573E8
:1035E00084F80DB01498A0736B20E073102221466C
:1035F000049800F002F800BFD5E770B504460D4608
:10360000164604B105B970BD94F84100202800D0D9
:10361000F9E7324629462046FFF76EF800BFF2E789
:103620002DE9F0472DED028B81460F4690461D4651
:10363000B0EE408ADDF828A04846FFF755FF044663
:10364000B2EE040A28EE000AB5EEC00AF1EE10FA56
:1036500004DDB2EE040A28EE000A03E0B2EE040A2A
:1036600028EE400ABCEEC00A10EE100A86B21CB961
:10367000BDEC028BBDE8F0872770F620607084F8FF
:1036800002802812E070257130126071A67184F8F2
:1036900007A06B202072092221464846FFF7ADFFA4
:1036A00000BFE5E708B500BF002100910168096887
:1036B000009101684968009100BF00BF00BF002170
:1036C000009101680968009101684968009100BF94
:1036D00000BF00BF002100910168096800910168E6
:1036E0004968009100BF00BF00BF00210091016840
:1036F0000968009101684968009100BF00BF00BFE0
:1037000000210091016809680091016849680091F1
:1037100000BF00BF08BD2DE9F04180460D461646AA
:10372000002423E00027601C285C352802D03628BE
:1037300004D101E0062704E0082702E0601C84B2FF
:1037400014E000BFE019B04201DDBDE8F081E019EE
:10375000401E285C6B2806D12919404600F00CF861
:10376000E01984B201E0601C84B200BFA01CB0422A
:10377000D8DD00BFE9E7000070B504460D460848F3
:103780000068A04203D10649284600F001F9054827
:103790000068A04203D10349284600F0F9F870BD43
:1037A000300000205800002010B50446606C1C4911
:1037B00008602046FFF776FF2046FEF74FFB1949C9
:1037C0002068884209D118480068401C16490860E2
:1037D0001649174800F05CF821E016492068884235
:1037E00002D1FCF717FF1AE013492068884209D17B
:1037F00012480068401C114908601149114800F046
:1038000047F80CE010492068884208D10F4800684A
:10381000401C0E4908600E490E4800F039F810BDF2
:103820002C00002000100140200000207C0500201A
:103830005C010020004400400048004024000020BB
:10384000BC050020EC0100200014014028000020ED
:10385000FC0500203402002010B50749074800F09D
:1038600017F8FCF7EBFE0649064800F011F8064988
:10387000064800F00DF810BD7C0500205C0100201A
:10388000BC050020EC010020FC05002034020020D3
:1038900070B504460D46402229462046FEF75BFAE5
:1038A00038B9E06B0068006820F00800E16B096837
:1038B000086070BDF0B52DED028B83B00446206822
:1038C00008B932482060208A10B94FF47A702082FB
:1038D000607910BB94ED020AB5EEC00AF1EE10FA61
:1038E00001DA012000E000200546D4ED020AB0EE26
:1038F000600A204600F0C8F8B0EE408A204600F08A
:10390000F9F80646002000902179B0EE480A3346C7
:103910002A462068FFF784FE34E094ED030AB5EEF2
:10392000C00AF1EE10FA01DA012000E0002005469D
:10393000D4ED020AB0EE600A204600F0A5F8B0EE21
:10394000408AD4ED030AB0EE600A204600F0E4F8A5
:10395000F0EE408A204600F0CDF80646204600F002
:10396000C9F8074600200121CDE9006102902179C4
:10397000F0EE680AB0EE480A3B462A462068FFF798
:10398000D1FD00BF03B0BDEC028BF0BD5C01002097
:1039900070B52DED028B04460D46207829798842BA
:1039A00065D16078352802D036285ED130E0607964
:1039B0006B282CD1A078012803D1FF202D49087055
:1039C00002E001202B4908702B48B4F80310018055
:1039D000008800F0EFFE00EE100AB8EE400ADFEDBE
:1039E000270A20EE200AF1EE080A20EE208A284657
:1039F00000F088F8C8EE000A1E4890F9000000EEBA
:103A0000100AB8EEC00A20EE800A85ED050A2DE006
:103A1000E0796B2828D1A078012803D1FF2018492C
:103A2000087002E00120164908701648D4F8031007
:103A30000160006800F0C6FE00EE100AB8EE400A11
:103A4000DFED0E0A20EE208A284600F05BF8C8EE73
:103A5000000A0B4890F9000000EE100AB8EEC00A08
:103A600020EE800A85ED060A00E000BF00BFBDEC35
:103A7000028B70BD8000002082000020CDCCCC3DA8
:103A8000840000208800002010B52DED028B044634
:103A9000B0EE408A204600F035F8B5EEC08AF1EE6F
:103AA00010FA02DDF0EE480A01E0F1EE480A60EE9D
:103AB000200AB1EE081A80EE810ABDEC028B10BD1F
:103AC0007CB504460D4620798DF80000F3208DF872
:103AD0000100AB208DF802008DF8035000208DF816
:103AE00004006B208DF80500062269462068FEF769
:103AF00003FE7CBD0146088A10B94FF47A70704706
:103B0000088AFCE7416A11B9B7EE000A704790EDE8
:103B1000090AB8EE400AF9E710B52DED028B04460C
:103B2000B0EE408A2046FFF7EDFFB5EEC08AF1EE19
:103B300010FA02DDF0EE480A01E0F1EE480A20EE4C
:103B4000200ABDEC028B10BD0122427180ED020AF9
:103B5000C0ED030A11B94FF47A7200E00A460282FE
:103B600070470022427180ED020A11B94FF47A7257
:103B700000E00A460282704770B505460E460024F2
:103B80002A792146641C0F48425411222146641CA4
:103B9000425418222146641C425436222146641C99
:103BA000425432122146641C42542146641C46543D
:103BB0006B222146641C4254224602492868FEF7C3
:103BC0009BFD70BD8C00002090ED060A7047000040
:103BD00002480068C0F30220704700000CED00E0CE
:103BE00010B5002804DB0A07130E054A135406E03B
:103BF0000A07140E034A00F00F031B1FD45410BD14
:103C000000E400E018ED00E02DED020B019820F03B
:103C1000004001909DED000B02B070471D4880ED03
:103C2000140AC0ED150AB5EEC00AF1EE10FA04D17F
:103C3000F5EEC00AF1EE10FA02D000201649086035
:103C4000B0EEC01AF2EE041AB4EEE11AF1EE10FA78
:103C50001CD2B0EEE01AF2EE041AB4EEE11AF1EE64
:103C600010FA13D2B5EEC00AF1EE10FA04D1F5EE57
:103C7000C00AF1EE10FA09D008480078FF2808DAE7
:103C800006480078401C0549087002E000200349FE
:103C900008707047DC11002094000020980000207C
:103CA00010B52DED048B0446B0EE409A00F09AF961
:103CB000A068401CA060616C88420BD30020A0600B
:103CC00094ED140AF0EE400AB0EE490A04F1BC008B
:103CD00000F0AEFB94ED418A0A4890ED000A70EEC8
:103CE000088A0948018AD0ED020AB0EE600AF0EEB7
:103CF000680AFFF729FF0448FFF7DCFDBDEC048BE1
:103D000010BD0000A80000205800002010B52DEDC7
:103D1000048B0446B0EE409A00F064F92069401C20
:103D20002061E16C88420BD30020206194ED140ADD
:103D3000F0EE400AB0EE490A04F5AA7000F078FBF4
:103D400094ED678A1D4890ED000ADFED1D0A20EE14
:103D5000200A1C48D0ED000A9FED1B1A00EE810AD4
:103D600080ED000A9FED190A28EE000A1848D0EDF0
:103D7000000A9FED181A00EE810A80ED000A16482D
:103D800090ED000A30EE080A0E48D0ED000A30EE41
:103D9000200A0F48D0ED000A70EE208A0F48018AF1
:103DA000D0ED020AB0EE600AF0EE680AFFF7CCFE32
:103DB0000A48FFF77FFDBDEC048B10BDC81300203F
:103DC000295C0F3DB00000203D0A773F0AD7233C15
:103DD000B40000201F856B3FA80000205800002081
:103DE00010B52DED048B0446B0EE409A00F0FAF8C1
:103DF0006068401C6060216C88420BD300206060CA
:103E000094ED150AF0EE400AB0EE490A04F1700094
:103E100000F00EFBD4ED2E8A2C4890ED000A30EE17
:103E2000288A9FED2B0AB4EEC08AF1EE10FA04DD69
:103E30009FED270AB0EE408A0AE0BBEE0E0AB4EE10
:103E4000C08AF1EE10FA03D2BBEE0E0AB0EE408A41
:103E5000204890ED060ADFED1E0AB4EEE00AF1EE0E
:103E600010FA06DD90ED060AB4EEC80AF1EE10FA7B
:103E700010D3184890ED060AFBEE0E0AB4EEE00AE5
:103E8000F1EE10FA11D290ED060AB4EEC80AF1EE86
:103E900010FA0ADD0F48D0ED020AB0EE600A0021E8
:103EA000DFED0D0AFFF750FE09E00A48018AD0ED68
:103EB000020AB0EE600AF0EE480AFFF745FE054838
:103EC000FFF7F8FCBDEC048B10BD0000AC00002037
:103ED00000004842300000200000000010B52DED29
:103EE000048B0446B0EE409A00F07CF8E068401C79
:103EF000E060A16C88420BD30020E06094ED150ACD
:103F0000F0EE400AB0EE490A04F5847000F090FA31
:103F1000D4ED548A2C4890ED000A30EE288A9FEDAB
:103F20002B0AB4EEC08AF1EE10FA04DD9FED270AE9
:103F3000B0EE408A0AE0BBEE0E0AB4EEC08AF1EEA3
:103F400010FA03D2BBEE0E0AB0EE408A204890ED84
:103F5000060ADFED1E0AB4EEE00AF1EE10FA06DD05
:103F600090ED060AB4EEC80AF1EE10FA10D3184824
:103F700090ED060AFBEE0E0AB4EEE00AF1EE10FA3E
:103F800011D290ED060AB4EEC80AF1EE10FA0ADD7D
:103F90000F48D0ED020AB0EE600A0021DFED0D0AF5
:103FA000FFF7D2FD09E00A48018AD0ED020AB0EE1F
:103FB000600AF0EE480AFFF7C7FD0548FFF77AFCF4
:103FC000BDEC048B10BD0000AC0000200000484296
:103FD000300000200000000000B500F0D7FA00F02B
:103FE0003FFB00BD0948007870B9094890ED060A0A
:103FF000084880ED000A084890ED060A074880ED61
:10400000000A01200149087070470000A400002048
:1040100058000020A800002030000020AC00002044
:1040200010B50A480088401C80B2084908800A2858
:104030000BDB002008809FED060A0648FFF730FEE4
:104040009FED030A0348FFF7CBFE10BDA000002040
:1040500000000000DC11002010B50A480088401C58
:1040600080B2084908800A280BDB002008809FEDF9
:10407000060A0648FFF74AFE9FED030A0348FFF7CA
:104080002DFF10BDA200002000000000DC11002068
:1040900010B57F48007806287ED2DFE800F0032BB9
:1040A0004865ADD17B48018AD0ED020AB0EE600AC6
:1040B000DFED790AFFF748FD7648FFF7FBFB77480D
:1040C000018AD0ED020AB0EE600ADFED730AFFF755
:1040D0003BFD7248FFF7EEFB00224FF48041704831
:1040E000FCF7EEFE00206F4908806F4908806F4999
:1040F0000870CAE06E4890ED140AB5EEC00AF1EE01
:1041000010FA03D0032062490870BEE04FF4FA6150
:104110009FED680A5F48FFF724FD5E48FFF7CAFB82
:1041200000224FF480415E48FCF7CAFEADE06048D3
:1041300090ED140AB5EEC00AF1EE10FA03D0032098
:1041400053490870A1E04FF4FA619FED5B0A5148B2
:10415000FFF707FD4F48FFF7ADFB00224FF480410A
:104160004F48FCF7ADFE90E000F03EFBE0B14D485B
:104170000088B0F5967F04DA4A480088401C494917
:10418000088048480088B0F5967F10DB47480078E3
:1041900068B90122910300E076E04148FCF790FE07
:1041A00001204249087002E000203E4908803F4853
:1041B0000078F0B13748018A90ED031AF0EE410A19
:1041C00090ED021AB0EE410AFFF7BEFC3148FFF74E
:1041D00071FB3248018A90ED031AF0EE410A90ED2E
:1041E000021AB0EE410AFFF7AFFC2C48FFF762FB62
:1041F00001E0FFF715FF48E0FFF712FF00F0F4FAC7
:10420000D0B128480088B0F5967F04DA25480088A8
:10421000401C2449088023480088B0F5967F0EDBB7
:104220002248007858B9012291031D48FCF748FE46
:1042300001201E49087002E000201A49088024E08D
:10424000FFF70AFF00F0D0FAD0B116480088B0F5A9
:10425000967F04DA13480088401C124908801148F0
:104260000088B0F5967F0EDB1048007858B901221F
:1042700091030B48FCF724FE01200C49087002E072
:1042800000200849088000E000BF00BF10BD00000A
:104290007C130020580000200000000030000020A7
:1042A000000802409A0000209C0000209E00002090
:1042B000DC1100200000C8C20000C84207480849BD
:1042C000086010208880012088710648064908602F
:1042D000082088800120887170470000000002409B
:1042E000B800002000080240C000002070B504465D
:1042F000A1882068FCF7DCFD05460026A07901288E
:1043000001D105B90126A571304670BDFCF7F0FD5D
:10431000FEF7F6FBFEF7A6FAFEF740FAFEF776FB8D
:10432000FEF7ACFBFEF7C6FBFEF712FBFEF736FB13
:10433000FEF788FBFFF790FA6420FCF7ABFCFFF771
:104340004BFE4FF4FA70FCF7A5FC01211148FFF772
:10435000B7FB0520FCF79EFC01210F48FFF7B0FBDF
:104360000520FCF797FC05210A48FFF705FC3220E1
:10437000FCF790FC05210848FFF7FEFB3220FCF714
:1043800089FCFFF79BFF00F009F8FFF76BF800BF0F
:10439000FEE7000030000020580000200020024905
:1043A0000870487070470000C800002010B51E4A11
:1043B00052787ABB012809D11B4A1278521C052376
:1043C00092FBF3F403FB1422174B1A70012929D135
:1043D0000122154B5A701A461278052A18D2DFE8C6
:1043E00002F003070B0F13000022104B1A7010E0AD
:1043F00001220E4B1A700CE002220C4B1A7008E0DE
:1044000004220A4B1A7004E00522084B1A7000E0DF
:1044100000BF07E0FFE7012904D10022024B5A70D8
:10442000024B1A7010BD0000C80000207C13002051
:10443000B0EE401A80ED0C1AC0ED0D0A90ED0C0A9A
:10444000D0ED0D1A30EE610A80ED0E0A90ED000AF3
:10445000D0ED0E1A20EE210A80ED050A90ED0E0A2D
:10446000D0ED0F1A30EE610AD0ED021A20EE210ACB
:1044700080ED080A90ED0E0A80ED0F0A90ED110A0A
:10448000D0ED051A30EE610AB5EEC00AF1EE10FA71
:1044900006DD90ED110AD0ED051A30EE610A01E05B
:1044A0009FED390A80ED090A90ED100AD0ED051A4A
:1044B00030EE610AB5EEC00AF1EE10FA06D290EDC8
:1044C000100AD0ED051A30EE610A01E09FED2E0AC8
:1044D00080ED0A0A017F21B19FED2B0A80ED060ACB
:1044E00028E090ED010AD0ED0E1A60EE211A90ED51
:1044F0000B2A90ED060A01EE820A80ED060A90ED85
:10450000060AD0ED091AB4EEE10AF1EE10FA04DD64
:1045100090ED090A80ED060A0CE090ED060AD0ED58
:104520000A1AB4EEE10AF1EE10FA03D290ED0A0A8B
:1045300080ED060A90ED050AD0ED061A30EE210A4C
:10454000D0ED081A30EE210A80ED120A90ED120A21
:10455000D0ED111AB4EEE10AF1EE10FA04DD90ED9F
:10456000110A80ED120A0CE090ED120AD0ED101A3B
:10457000B4EEE10AF1EE10FA03D290ED100A80EDEC
:10458000120A90ED120A7047000000009FED320AF7
:10459000324880ED050A90ED050AF7EE000A80EE3C
:1045A000801A80ED061A9FED2C0A80ED070A90ED27
:1045B000070AF7EE000A80EE801A80ED081A90EDE7
:1045C000050AD0ED080A20EE200ABCEEC00A80EDF4
:1045D000100A9FED210A80ED090A90ED090AF7EE15
:1045E000000A80EE801A80ED0A1A90ED050AD0EDDF
:1045F0000A0A20EE200ABCEEC00A80ED110A9FEDE7
:10460000160A80ED0B0A90ED0B0AF7EE000A80EE19
:10461000801A80ED0C1A90ED050AD0ED0C0A20EE00
:10462000200ABCEEC00A80ED120A9FED0B0A80ED55
:104630000D0A90ED0D0AF7EE000A80EE801A80ED6B
:104640000E1A90ED050AD0ED0E0A20EE200ABCEEFF
:10465000C00A80ED130A704700007A44DC11002084
:104660009FED450A454880ED1C0AB1EE040A80ED35
:104670001D0A9FED430A80ED1E0A9FED420A80ED60
:104680002D0A9FED410A80ED2C0A9FED400A80ED36
:10469000250A9FED3F0A80ED260A90ED080A80ED7D
:1046A000270A002180F88C109FED3A0A80ED2F0A2E
:1046B000B2EE040A80ED300A9FED370A80ED310A30
:1046C0009FED300A80ED400A9FED2F0A80ED3F0AF2
:1046D0009FED2E0A80ED380A9FED2D0A80ED390AF4
:1046E00090ED0A0A80ED3A0A80F8D8109FED220A70
:1046F00080ED420AB1EE040A80ED430A9FED200AE4
:1047000080ED440A9FED1F0A80ED530A9FED1E0ABB
:1047100080ED520A9FED1D0A80ED4B0A9FED1C0AA9
:1047200080ED4C0A90ED0C0A80ED4D0A80F82411C2
:104730009FED1A0A80ED550AB2EE080A80ED560A7E
:104740009FED170A80ED570A9FED160A80ED660A65
:104750009FED150A80ED650A9FED140A80ED5E0A53
:104760009FED130A80ED5F0A90ED0E0A80ED600A5E
:1047700080F87011704700000AD7233DDC1100203B
:104780000000000000004843000048C3000016433A
:10479000000016C3A69B44BC6F12033C8FC275BCBD
:1047A0000AD7233C0000FA440000FAC40080BB444E
:1047B0000080BBC401464FF47F4000EA012040EA7C
:1047C0001120704701464FF47F4202EA112242EA6B
:1047D00011604FF47F0202EA012210434FF07F4242
:1047E00002EA01621043704710B52DED048B20489A
:1047F00090ED140A10EE101A084600F0DBF841ECB8
:10480000190BB0EE490AF0EE690AFFF7FDF9B0EEB8
:10481000408AF0EE608A9FED170B53EC102B51ECA1
:10482000180B00F037F820D2114890ED150A10EE61
:10483000101A084600F0BEF841EC190BB0EE490A18
:10484000F0EE690AFFF7E0F9B0EE408AF0EE608A18
:104850009FED080B53EC102B51EC180B00F01AF8DD
:1048600003D20120BDEC048B10BD0020FAE700004C
:10487000DC1100200000000000000840491058BF73
:10488000C1F140415B1058BFC3F140438B42EFF38D
:104890000080704751EA030C17D41CF5801F58BFE5
:1048A000BCF5801F00F10680994218BF704708BF11
:1048B0009042704707D711F5801F58BF13F5801F2E
:1048C00019D499427047894270471CF5801F08D55A
:1048D000BCF5801FF7D58B4218BF704708BF8242D6
:1048E00070474FF4001C1CEB410F38BF1CEB430F0B
:1048F00001D28B42704770B500F008F8922449004D
:104900004FF000514FF08053FFF7B8BF0EF1020E89
:104910002EF0030E5EF8046B364205D4012A43EBF9
:10492000030515F5001F12D8012841EB010C1CF5F9
:10493000001F0CD80ED14FEAD17C15F5001F0CEBEF
:104940004C0C0CF1020C08BF4CEBD37C04E04FF094
:10495000080C01E04FEAD37C0CEB4C0526FA05F677
:1049600006F00706B6F1040C06D20EEB860CBDE885
:1049700070404CF0010C6047DFE80CF0090B0202BC
:104980004FF000414FF00000A1F5002170BD194625
:104990001046012851EB010418BFD4F5001484BF60
:1049A000002001F0004170BD0808A0F500114FEA99
:1049B0003101704743004FEAD30C4FEA3C0C4340AF
:1049C0001FBF40070CF1605113F0FE4F70471CF001
:1049D000006F03D100200CF0004170470CF0004341
:1049E00043EA507010B540EACC0000F00EF800BF6A
:1049F000000000924FEA0001FFF7D6BF4FF00041E0
:104A00004FF00000A1F5002170470EF1020E2EF0CC
:104A1000030E5EF8044B244204D44FEA4102B2F183
:104A20007F4F11D84FEA4003B3F17F4F0CD80ED11E
:104A30004FEAD07CB2F17F4F0CEB4C0C0CF1020C26
:104A400008BF4CEBD17C04E04FF0080C01E04FEACA
:104A5000D17C0CEB4C0324FA03F404F00704B4F10A
:104A6000040C06D20EEB840CBDE810404CF0010C97
:104A70006047DFE80CF0070802024FF00040A0F5A5
:104A8000800010BD0846420018BFD2F1807288BF76
:104A900000F0004010BD4FF04070E1EE100A70478A
:104AA00000061016000610160000000000000000AE
:104AB00001020304060708090000000001020304C4
:104AC000E04A000800000020CC000000C4010008FB
:104AD000AC4B0008CC00002084190000E001000865
:104AE0000000000010000000010000000024F4009D
:104AF00000000000000000000000000000000000B6
:104B000000000000000000000000000000000000A5
:104B10005C010020020100000000C842000000000B
:104B2000E80300000000000000000000000000009A
:104B30000001000006000000EC010020010100005F
:104B40000000C84200000000E80300000000000070
:104B5000000000000000000000010000060000004E
:104B60000100000001000000000000000000000043
:104B70000000000000000000000000000000000035
:104B80000000000000000000000000000000000025
:104B90000000000000000000000000000000000015
:0C4BA00000000000000000000000000009
:040000050800018965
:00000001FF
